{
	"contracts/Evaluator.sol": {
		"Evaluator": {
			"abi": [
				{
					"inputs": [
						{
							"internalType": "contract ERC20TD",
							"name": "_TDERC20",
							"type": "address"
						}
					],
					"stateMutability": "nonpayable",
					"type": "constructor"
				},
				{
					"anonymous": false,
					"inputs": [
						{
							"indexed": false,
							"internalType": "address",
							"name": "erc20Address",
							"type": "address"
						}
					],
					"name": "constructedCorrectly",
					"type": "event"
				},
				{
					"anonymous": false,
					"inputs": [
						{
							"indexed": false,
							"internalType": "string",
							"name": "name",
							"type": "string"
						},
						{
							"indexed": false,
							"internalType": "uint256",
							"name": "legs",
							"type": "uint256"
						},
						{
							"indexed": false,
							"internalType": "uint256",
							"name": "sex",
							"type": "uint256"
						},
						{
							"indexed": false,
							"internalType": "bool",
							"name": "wings",
							"type": "bool"
						}
					],
					"name": "newRandomAnimalAttributes",
					"type": "event"
				},
				{
					"stateMutability": "payable",
					"type": "fallback"
				},
				{
					"inputs": [
						{
							"internalType": "address",
							"name": "",
							"type": "address"
						}
					],
					"name": "assignedRank",
					"outputs": [
						{
							"internalType": "uint256",
							"name": "",
							"type": "uint256"
						}
					],
					"stateMutability": "view",
					"type": "function"
				},
				{
					"inputs": [
						{
							"internalType": "bytes32",
							"name": "_bytes32",
							"type": "bytes32"
						}
					],
					"name": "bytes32ToString",
					"outputs": [
						{
							"internalType": "string",
							"name": "",
							"type": "string"
						}
					],
					"stateMutability": "pure",
					"type": "function"
				},
				{
					"inputs": [],
					"name": "ex1_testERC721",
					"outputs": [],
					"stateMutability": "nonpayable",
					"type": "function"
				},
				{
					"inputs": [],
					"name": "ex2a_getAnimalToCreateAttributes",
					"outputs": [],
					"stateMutability": "nonpayable",
					"type": "function"
				},
				{
					"inputs": [
						{
							"internalType": "uint256",
							"name": "animalNumber",
							"type": "uint256"
						}
					],
					"name": "ex2b_testDeclaredAnimal",
					"outputs": [],
					"stateMutability": "nonpayable",
					"type": "function"
				},
				{
					"inputs": [],
					"name": "ex3_testRegisterBreeder",
					"outputs": [],
					"stateMutability": "nonpayable",
					"type": "function"
				},
				{
					"inputs": [],
					"name": "ex4_testDeclareAnimal",
					"outputs": [],
					"stateMutability": "nonpayable",
					"type": "function"
				},
				{
					"inputs": [],
					"name": "ex5_declareDeadAnimal",
					"outputs": [],
					"stateMutability": "nonpayable",
					"type": "function"
				},
				{
					"inputs": [],
					"name": "ex6a_auctionAnimal_offer",
					"outputs": [],
					"stateMutability": "nonpayable",
					"type": "function"
				},
				{
					"inputs": [
						{
							"internalType": "uint256",
							"name": "animalForSale",
							"type": "uint256"
						}
					],
					"name": "ex6b_auctionAnimal_buy",
					"outputs": [],
					"stateMutability": "nonpayable",
					"type": "function"
				},
				{
					"inputs": [
						{
							"internalType": "address",
							"name": "",
							"type": "address"
						},
						{
							"internalType": "uint256",
							"name": "",
							"type": "uint256"
						}
					],
					"name": "exerciceProgression",
					"outputs": [
						{
							"internalType": "bool",
							"name": "",
							"type": "bool"
						}
					],
					"stateMutability": "view",
					"type": "function"
				},
				{
					"inputs": [
						{
							"internalType": "address",
							"name": "",
							"type": "address"
						}
					],
					"name": "hasBeenPaired",
					"outputs": [
						{
							"internalType": "bool",
							"name": "",
							"type": "bool"
						}
					],
					"stateMutability": "view",
					"type": "function"
				},
				{
					"inputs": [],
					"name": "nextValueStoreRank",
					"outputs": [
						{
							"internalType": "uint256",
							"name": "",
							"type": "uint256"
						}
					],
					"stateMutability": "view",
					"type": "function"
				},
				{
					"inputs": [
						{
							"internalType": "address",
							"name": "studentAddress",
							"type": "address"
						}
					],
					"name": "readLegs",
					"outputs": [
						{
							"internalType": "uint256",
							"name": "",
							"type": "uint256"
						}
					],
					"stateMutability": "view",
					"type": "function"
				},
				{
					"inputs": [
						{
							"internalType": "address",
							"name": "studentAddress",
							"type": "address"
						}
					],
					"name": "readName",
					"outputs": [
						{
							"internalType": "string",
							"name": "",
							"type": "string"
						}
					],
					"stateMutability": "view",
					"type": "function"
				},
				{
					"inputs": [
						{
							"internalType": "address",
							"name": "studentAddress",
							"type": "address"
						}
					],
					"name": "readSex",
					"outputs": [
						{
							"internalType": "uint256",
							"name": "",
							"type": "uint256"
						}
					],
					"stateMutability": "view",
					"type": "function"
				},
				{
					"inputs": [
						{
							"internalType": "address",
							"name": "studentAddress",
							"type": "address"
						}
					],
					"name": "readWings",
					"outputs": [
						{
							"internalType": "bool",
							"name": "",
							"type": "bool"
						}
					],
					"stateMutability": "view",
					"type": "function"
				},
				{
					"inputs": [
						{
							"internalType": "string[20]",
							"name": "_randomNames",
							"type": "string[20]"
						},
						{
							"internalType": "uint256[20]",
							"name": "_randomLegs",
							"type": "uint256[20]"
						},
						{
							"internalType": "uint256[20]",
							"name": "_randomSex",
							"type": "uint256[20]"
						},
						{
							"internalType": "bool[20]",
							"name": "_randomWings",
							"type": "bool[20]"
						}
					],
					"name": "setRandomValuesStore",
					"outputs": [],
					"stateMutability": "nonpayable",
					"type": "function"
				},
				{
					"inputs": [
						{
							"internalType": "address",
							"name": "",
							"type": "address"
						}
					],
					"name": "studentExerciceSolution",
					"outputs": [
						{
							"internalType": "contract IExerciceSolution",
							"name": "",
							"type": "address"
						}
					],
					"stateMutability": "view",
					"type": "function"
				},
				{
					"inputs": [
						{
							"internalType": "contract IExerciceSolution",
							"name": "studentExercice",
							"type": "address"
						}
					],
					"name": "submitExercice",
					"outputs": [],
					"stateMutability": "nonpayable",
					"type": "function"
				},
				{
					"inputs": [
						{
							"internalType": "address",
							"name": "",
							"type": "address"
						}
					],
					"name": "teachers",
					"outputs": [
						{
							"internalType": "bool",
							"name": "",
							"type": "bool"
						}
					],
					"stateMutability": "view",
					"type": "function"
				},
				{
					"stateMutability": "payable",
					"type": "receive"
				}
			],
			"devdoc": {
				"kind": "dev",
				"methods": {},
				"version": 1
			},
			"evm": {
				"assembly": "    /* \"contracts/Evaluator.sol\":118:2184  contract Evaluator {... */\n  mstore(0x40, 0x80)\n    /* \"contracts/Evaluator.sol\":624:667  constructor(ERC20TD _TDERC20) ... */\n  callvalue\n  dup1\n  iszero\n  tag_1\n  jumpi\n  0x00\n  dup1\n  revert\ntag_1:\n  pop\n  mload(0x40)\n  sub(codesize, bytecodeSize)\n  dup1\n  bytecodeSize\n  dup4\n  codecopy\n  dup2\n  dup2\n  add\n  0x40\n  mstore\n  dup2\n  add\n  swap1\n  tag_2\n  swap2\n  swap1\n  tag_3\n  jump\t// in\ntag_2:\n  pop\n    /* \"contracts/Evaluator.sol\":118:2184  contract Evaluator {... */\n  jump(tag_6)\n    /* \"#utility.yul\":88:205   */\ntag_8:\n    /* \"#utility.yul\":197:198   */\n  0x00\n    /* \"#utility.yul\":194:195   */\n  dup1\n    /* \"#utility.yul\":187:199   */\n  revert\n    /* \"#utility.yul\":334:460   */\ntag_10:\n    /* \"#utility.yul\":371:378   */\n  0x00\n    /* \"#utility.yul\":411:453   */\n  0xffffffffffffffffffffffffffffffffffffffff\n    /* \"#utility.yul\":404:409   */\n  dup3\n    /* \"#utility.yul\":400:454   */\n  and\n    /* \"#utility.yul\":389:454   */\n  swap1\n  pop\n    /* \"#utility.yul\":334:460   */\n  swap2\n  swap1\n  pop\n  jump\t// out\n    /* \"#utility.yul\":466:562   */\ntag_11:\n    /* \"#utility.yul\":503:510   */\n  0x00\n    /* \"#utility.yul\":532:556   */\n  tag_21\n    /* \"#utility.yul\":550:555   */\n  dup3\n    /* \"#utility.yul\":532:556   */\n  tag_10\n  jump\t// in\ntag_21:\n    /* \"#utility.yul\":521:556   */\n  swap1\n  pop\n    /* \"#utility.yul\":466:562   */\n  swap2\n  swap1\n  pop\n  jump\t// out\n    /* \"#utility.yul\":568:679   */\ntag_12:\n    /* \"#utility.yul\":620:627   */\n  0x00\n    /* \"#utility.yul\":649:673   */\n  tag_23\n    /* \"#utility.yul\":667:672   */\n  dup3\n    /* \"#utility.yul\":649:673   */\n  tag_11\n  jump\t// in\ntag_23:\n    /* \"#utility.yul\":638:673   */\n  swap1\n  pop\n    /* \"#utility.yul\":568:679   */\n  swap2\n  swap1\n  pop\n  jump\t// out\n    /* \"#utility.yul\":685:837   */\ntag_13:\n    /* \"#utility.yul\":773:812   */\n  tag_25\n    /* \"#utility.yul\":806:811   */\n  dup2\n    /* \"#utility.yul\":773:812   */\n  tag_12\n  jump\t// in\ntag_25:\n    /* \"#utility.yul\":766:771   */\n  dup2\n    /* \"#utility.yul\":763:813   */\n  eq\n    /* \"#utility.yul\":753:831   */\n  tag_26\n  jumpi\n    /* \"#utility.yul\":827:828   */\n  0x00\n    /* \"#utility.yul\":824:825   */\n  dup1\n    /* \"#utility.yul\":817:829   */\n  revert\n    /* \"#utility.yul\":753:831   */\ntag_26:\n    /* \"#utility.yul\":685:837   */\n  pop\n  jump\t// out\n    /* \"#utility.yul\":843:1016   */\ntag_14:\n    /* \"#utility.yul\":915:920   */\n  0x00\n    /* \"#utility.yul\":946:952   */\n  dup2\n    /* \"#utility.yul\":940:953   */\n  mload\n    /* \"#utility.yul\":931:953   */\n  swap1\n  pop\n    /* \"#utility.yul\":962:1010   */\n  tag_28\n    /* \"#utility.yul\":1004:1009   */\n  dup2\n    /* \"#utility.yul\":962:1010   */\n  tag_13\n  jump\t// in\ntag_28:\n    /* \"#utility.yul\":843:1016   */\n  swap3\n  swap2\n  pop\n  pop\n  jump\t// out\n    /* \"#utility.yul\":1022:1403   */\ntag_3:\n    /* \"#utility.yul\":1107:1113   */\n  0x00\n    /* \"#utility.yul\":1156:1158   */\n  0x20\n    /* \"#utility.yul\":1144:1153   */\n  dup3\n    /* \"#utility.yul\":1135:1142   */\n  dup5\n    /* \"#utility.yul\":1131:1154   */\n  sub\n    /* \"#utility.yul\":1127:1159   */\n  slt\n    /* \"#utility.yul\":1124:1243   */\n  iszero\n  tag_30\n  jumpi\n    /* \"#utility.yul\":1162:1241   */\n  tag_31\n  tag_8\n  jump\t// in\ntag_31:\n    /* \"#utility.yul\":1124:1243   */\ntag_30:\n    /* \"#utility.yul\":1282:1283   */\n  0x00\n    /* \"#utility.yul\":1307:1386   */\n  tag_32\n    /* \"#utility.yul\":1378:1385   */\n  dup5\n    /* \"#utility.yul\":1369:1375   */\n  dup3\n    /* \"#utility.yul\":1358:1367   */\n  dup6\n    /* \"#utility.yul\":1354:1376   */\n  add\n    /* \"#utility.yul\":1307:1386   */\n  tag_14\n  jump\t// in\ntag_32:\n    /* \"#utility.yul\":1297:1386   */\n  swap2\n  pop\n    /* \"#utility.yul\":1253:1396   */\n  pop\n    /* \"#utility.yul\":1022:1403   */\n  swap3\n  swap2\n  pop\n  pop\n  jump\t// out\n    /* \"contracts/Evaluator.sol\":118:2184  contract Evaluator {... */\ntag_6:\n  dataSize(sub_0)\n  dup1\n  dataOffset(sub_0)\n  0x00\n  codecopy\n  0x00\n  return\nstop\n\nsub_0: assembly {\n        /* \"contracts/Evaluator.sol\":118:2184  contract Evaluator {... */\n      mstore(0x40, 0x80)\n      jumpi(tag_1, lt(calldatasize, 0x04))\n      shr(0xe0, calldataload(0x00))\n      dup1\n      0x74db455e\n      gt\n      tag_24\n      jumpi\n      dup1\n      0xdf67f59d\n      gt\n      tag_25\n      jumpi\n      dup1\n      0xdf67f59d\n      eq\n      tag_18\n      jumpi\n      dup1\n      0xe2a51e64\n      eq\n      tag_19\n      jumpi\n      dup1\n      0xe7b8ef24\n      eq\n      tag_20\n      jumpi\n      dup1\n      0xe9847a75\n      eq\n      tag_21\n      jumpi\n      dup1\n      0xf0a47f78\n      eq\n      tag_22\n      jumpi\n      dup1\n      0xf4fdbb88\n      eq\n      tag_23\n      jumpi\n      jump(tag_2)\n    tag_25:\n      dup1\n      0x74db455e\n      eq\n      tag_13\n      jumpi\n      dup1\n      0x806df959\n      eq\n      tag_14\n      jumpi\n      dup1\n      0x9201de55\n      eq\n      tag_15\n      jumpi\n      dup1\n      0x9aa99dd6\n      eq\n      tag_16\n      jumpi\n      dup1\n      0xdede624c\n      eq\n      tag_17\n      jumpi\n      jump(tag_2)\n    tag_24:\n      dup1\n      0x39119dce\n      gt\n      tag_26\n      jumpi\n      dup1\n      0x39119dce\n      eq\n      tag_8\n      jumpi\n      dup1\n      0x4466f62d\n      eq\n      tag_9\n      jumpi\n      dup1\n      0x469d2a83\n      eq\n      tag_10\n      jumpi\n      dup1\n      0x4cb6ad03\n      eq\n      tag_11\n      jumpi\n      dup1\n      0x614933ba\n      eq\n      tag_12\n      jumpi\n      jump(tag_2)\n    tag_26:\n      dup1\n      0x0b961254\n      eq\n      tag_3\n      jumpi\n      dup1\n      0x14555c7a\n      eq\n      tag_4\n      jumpi\n      dup1\n      0x2236d353\n      eq\n      tag_5\n      jumpi\n      dup1\n      0x2e64c500\n      eq\n      tag_6\n      jumpi\n      dup1\n      0x3842083a\n      eq\n      tag_7\n      jumpi\n      jump(tag_2)\n    tag_1:\n      jumpi(tag_2, calldatasize)\n      stop\n    tag_2:\n      stop\n        /* \"contracts/Evaluator.sol\":279:347  mapping(address => IExerciceSolution) public studentExerciceSolution */\n    tag_3:\n      callvalue\n      dup1\n      iszero\n      tag_31\n      jumpi\n      0x00\n      dup1\n      revert\n    tag_31:\n      pop\n      tag_32\n      0x04\n      dup1\n      calldatasize\n      sub\n      dup2\n      add\n      swap1\n      tag_33\n      swap2\n      swap1\n      tag_34\n      jump\t// in\n    tag_33:\n      tag_35\n      jump\t// in\n    tag_32:\n      mload(0x40)\n      tag_36\n      swap2\n      swap1\n      tag_37\n      jump\t// in\n    tag_36:\n      mload(0x40)\n      dup1\n      swap2\n      sub\n      swap1\n      return\n        /* \"contracts/Evaluator.sol\":840:904  function ex2b_testDeclaredAnimal(uint animalNumber)... */\n    tag_4:\n      callvalue\n      dup1\n      iszero\n      tag_38\n      jumpi\n      0x00\n      dup1\n      revert\n    tag_38:\n      pop\n      tag_39\n      0x04\n      dup1\n      calldatasize\n      sub\n      dup2\n      add\n      swap1\n      tag_40\n      swap2\n      swap1\n      tag_41\n      jump\t// in\n    tag_40:\n      tag_42\n      jump\t// in\n    tag_39:\n      stop\n        /* \"contracts/Evaluator.sol\":1210:1280  function submitExercice(IExerciceSolution studentExercice)... */\n    tag_5:\n      callvalue\n      dup1\n      iszero\n      tag_43\n      jumpi\n      0x00\n      dup1\n      revert\n    tag_43:\n      pop\n      tag_44\n      0x04\n      dup1\n      calldatasize\n      sub\n      dup2\n      add\n      swap1\n      tag_45\n      swap2\n      swap1\n      tag_46\n      jump\t// in\n    tag_45:\n      tag_47\n      jump\t// in\n    tag_44:\n      stop\n        /* \"contracts/Evaluator.sol\":204:275  mapping(address => mapping(uint256 => bool)) public exerciceProgression */\n    tag_6:\n      callvalue\n      dup1\n      iszero\n      tag_48\n      jumpi\n      0x00\n      dup1\n      revert\n    tag_48:\n      pop\n      tag_49\n      0x04\n      dup1\n      calldatasize\n      sub\n      dup2\n      add\n      swap1\n      tag_50\n      swap2\n      swap1\n      tag_51\n      jump\t// in\n    tag_50:\n      tag_52\n      jump\t// in\n    tag_49:\n      mload(0x40)\n      tag_53\n      swap2\n      swap1\n      tag_54\n      jump\t// in\n    tag_53:\n      mload(0x40)\n      dup1\n      swap2\n      sub\n      swap1\n      return\n        /* \"contracts/Evaluator.sol\":907:954  function ex3_testRegisterBreeder()... */\n    tag_7:\n      callvalue\n      dup1\n      iszero\n      tag_55\n      jumpi\n      0x00\n      dup1\n      revert\n    tag_55:\n      pop\n      tag_56\n      tag_57\n      jump\t// in\n    tag_56:\n      stop\n        /* \"contracts/Evaluator.sol\":449:479  uint public nextValueStoreRank */\n    tag_8:\n      callvalue\n      dup1\n      iszero\n      tag_58\n      jumpi\n      0x00\n      dup1\n      revert\n    tag_58:\n      pop\n      tag_59\n      tag_60\n      jump\t// in\n    tag_59:\n      mload(0x40)\n      tag_61\n      swap2\n      swap1\n      tag_62\n      jump\t// in\n    tag_61:\n      mload(0x40)\n      dup1\n      swap2\n      sub\n      swap1\n      return\n        /* \"contracts/Evaluator.sol\":399:446  mapping(address => uint256) public assignedRank */\n    tag_9:\n      callvalue\n      dup1\n      iszero\n      tag_63\n      jumpi\n      0x00\n      dup1\n      revert\n    tag_63:\n      pop\n      tag_64\n      0x04\n      dup1\n      calldatasize\n      sub\n      dup2\n      add\n      swap1\n      tag_65\n      swap2\n      swap1\n      tag_34\n      jump\t// in\n    tag_65:\n      tag_66\n      jump\t// in\n    tag_64:\n      mload(0x40)\n      tag_67\n      swap2\n      swap1\n      tag_62\n      jump\t// in\n    tag_67:\n      mload(0x40)\n      dup1\n      swap2\n      sub\n      swap1\n      return\n        /* \"contracts/Evaluator.sol\":1708:1799  function readLegs(address studentAddress)... */\n    tag_10:\n      callvalue\n      dup1\n      iszero\n      tag_68\n      jumpi\n      0x00\n      dup1\n      revert\n    tag_68:\n      pop\n      tag_69\n      0x04\n      dup1\n      calldatasize\n      sub\n      dup2\n      add\n      swap1\n      tag_70\n      swap2\n      swap1\n      tag_34\n      jump\t// in\n    tag_70:\n      tag_71\n      jump\t// in\n    tag_69:\n      mload(0x40)\n      tag_72\n      swap2\n      swap1\n      tag_62\n      jump\t// in\n    tag_72:\n      mload(0x40)\n      dup1\n      swap2\n      sub\n      swap1\n      return\n        /* \"contracts/Evaluator.sol\":1005:1050  function ex5_declareDeadAnimal()... */\n    tag_11:\n      callvalue\n      dup1\n      iszero\n      tag_73\n      jumpi\n      0x00\n      dup1\n      revert\n    tag_73:\n      pop\n      tag_74\n      tag_75\n      jump\t// in\n    tag_74:\n      stop\n        /* \"contracts/Evaluator.sol\":1991:2181  function setRandomValuesStore(string[20] memory _randomNames, uint256[20] memory _randomLegs, uint256[20] memory _randomSex, bool[20] memory _randomWings)... */\n    tag_12:\n      callvalue\n      dup1\n      iszero\n      tag_76\n      jumpi\n      0x00\n      dup1\n      revert\n    tag_76:\n      pop\n      tag_77\n      0x04\n      dup1\n      calldatasize\n      sub\n      dup2\n      add\n      swap1\n      tag_78\n      swap2\n      swap1\n      tag_79\n      jump\t// in\n    tag_78:\n      tag_80\n      jump\t// in\n    tag_77:\n      stop\n        /* \"contracts/Evaluator.sol\":957:1002  function ex4_testDeclareAnimal()... */\n    tag_13:\n      callvalue\n      dup1\n      iszero\n      tag_81\n      jumpi\n      0x00\n      dup1\n      revert\n    tag_81:\n      pop\n      tag_82\n      tag_83\n      jump\t// in\n    tag_82:\n      stop\n        /* \"contracts/Evaluator.sol\":1607:1705  function readName(address studentAddress)... */\n    tag_14:\n      callvalue\n      dup1\n      iszero\n      tag_84\n      jumpi\n      0x00\n      dup1\n      revert\n    tag_84:\n      pop\n      tag_85\n      0x04\n      dup1\n      calldatasize\n      sub\n      dup2\n      add\n      swap1\n      tag_86\n      swap2\n      swap1\n      tag_34\n      jump\t// in\n    tag_86:\n      tag_87\n      jump\t// in\n    tag_85:\n      mload(0x40)\n      tag_88\n      swap2\n      swap1\n      tag_89\n      jump\t// in\n    tag_88:\n      mload(0x40)\n      dup1\n      swap2\n      sub\n      swap1\n      return\n        /* \"contracts/Evaluator.sol\":1490:1601  function bytes32ToString(bytes32 _bytes32) ... */\n    tag_15:\n      callvalue\n      dup1\n      iszero\n      tag_90\n      jumpi\n      0x00\n      dup1\n      revert\n    tag_90:\n      pop\n      tag_91\n      0x04\n      dup1\n      calldatasize\n      sub\n      dup2\n      add\n      swap1\n      tag_92\n      swap2\n      swap1\n      tag_93\n      jump\t// in\n    tag_92:\n      tag_94\n      jump\t// in\n    tag_91:\n      mload(0x40)\n      tag_95\n      swap2\n      swap1\n      tag_89\n      jump\t// in\n    tag_95:\n      mload(0x40)\n      dup1\n      swap2\n      sub\n      swap1\n      return\n        /* \"contracts/Evaluator.sol\":782:837  function ex2a_getAnimalToCreateAttributes()... */\n    tag_16:\n      callvalue\n      dup1\n      iszero\n      tag_96\n      jumpi\n      0x00\n      dup1\n      revert\n    tag_96:\n      pop\n      tag_97\n      tag_98\n      jump\t// in\n    tag_97:\n      stop\n        /* \"contracts/Evaluator.sol\":741:779  function ex1_testERC721()... */\n    tag_17:\n      callvalue\n      dup1\n      iszero\n      tag_99\n      jumpi\n      0x00\n      dup1\n      revert\n    tag_99:\n      pop\n      tag_100\n      tag_101\n      jump\t// in\n    tag_100:\n      stop\n        /* \"contracts/Evaluator.sol\":1802:1892  function readSex(address studentAddress)... */\n    tag_18:\n      callvalue\n      dup1\n      iszero\n      tag_102\n      jumpi\n      0x00\n      dup1\n      revert\n    tag_102:\n      pop\n      tag_103\n      0x04\n      dup1\n      calldatasize\n      sub\n      dup2\n      add\n      swap1\n      tag_104\n      swap2\n      swap1\n      tag_34\n      jump\t// in\n    tag_104:\n      tag_105\n      jump\t// in\n    tag_103:\n      mload(0x40)\n      tag_106\n      swap2\n      swap1\n      tag_62\n      jump\t// in\n    tag_106:\n      mload(0x40)\n      dup1\n      swap2\n      sub\n      swap1\n      return\n        /* \"contracts/Evaluator.sol\":1053:1100  function ex6a_auctionAnimal_offer()... */\n    tag_19:\n      callvalue\n      dup1\n      iszero\n      tag_107\n      jumpi\n      0x00\n      dup1\n      revert\n    tag_107:\n      pop\n      tag_108\n      tag_109\n      jump\t// in\n    tag_108:\n      stop\n        /* \"contracts/Evaluator.sol\":1103:1166  function ex6b_auctionAnimal_buy(uint animalForSale)... */\n    tag_20:\n      callvalue\n      dup1\n      iszero\n      tag_110\n      jumpi\n      0x00\n      dup1\n      revert\n    tag_110:\n      pop\n      tag_111\n      0x04\n      dup1\n      calldatasize\n      sub\n      dup2\n      add\n      swap1\n      tag_112\n      swap2\n      swap1\n      tag_41\n      jump\t// in\n    tag_112:\n      tag_113\n      jump\t// in\n    tag_111:\n      stop\n        /* \"contracts/Evaluator.sol\":1895:1988  function readWings(address studentAddress)... */\n    tag_21:\n      callvalue\n      dup1\n      iszero\n      tag_114\n      jumpi\n      0x00\n      dup1\n      revert\n    tag_114:\n      pop\n      tag_115\n      0x04\n      dup1\n      calldatasize\n      sub\n      dup2\n      add\n      swap1\n      tag_116\n      swap2\n      swap1\n      tag_34\n      jump\t// in\n    tag_116:\n      tag_117\n      jump\t// in\n    tag_115:\n      mload(0x40)\n      tag_118\n      swap2\n      swap1\n      tag_54\n      jump\t// in\n    tag_118:\n      mload(0x40)\n      dup1\n      swap2\n      sub\n      swap1\n      return\n        /* \"contracts/Evaluator.sol\":141:181  mapping(address => bool) public teachers */\n    tag_22:\n      callvalue\n      dup1\n      iszero\n      tag_119\n      jumpi\n      0x00\n      dup1\n      revert\n    tag_119:\n      pop\n      tag_120\n      0x04\n      dup1\n      calldatasize\n      sub\n      dup2\n      add\n      swap1\n      tag_121\n      swap2\n      swap1\n      tag_34\n      jump\t// in\n    tag_121:\n      tag_122\n      jump\t// in\n    tag_120:\n      mload(0x40)\n      tag_123\n      swap2\n      swap1\n      tag_54\n      jump\t// in\n    tag_123:\n      mload(0x40)\n      dup1\n      swap2\n      sub\n      swap1\n      return\n        /* \"contracts/Evaluator.sol\":351:396  mapping(address => bool) public hasBeenPaired */\n    tag_23:\n      callvalue\n      dup1\n      iszero\n      tag_124\n      jumpi\n      0x00\n      dup1\n      revert\n    tag_124:\n      pop\n      tag_125\n      0x04\n      dup1\n      calldatasize\n      sub\n      dup2\n      add\n      swap1\n      tag_126\n      swap2\n      swap1\n      tag_34\n      jump\t// in\n    tag_126:\n      tag_127\n      jump\t// in\n    tag_125:\n      mload(0x40)\n      tag_128\n      swap2\n      swap1\n      tag_54\n      jump\t// in\n    tag_128:\n      mload(0x40)\n      dup1\n      swap2\n      sub\n      swap1\n      return\n        /* \"contracts/Evaluator.sol\":279:347  mapping(address => IExerciceSolution) public studentExerciceSolution */\n    tag_35:\n      mstore(0x20, 0x03)\n      dup1\n      0x00\n      mstore\n      keccak256(0x00, 0x40)\n      0x00\n      swap2\n      pop\n      sload\n      swap1\n      0x0100\n      exp\n      swap1\n      div\n      0xffffffffffffffffffffffffffffffffffffffff\n      and\n      dup2\n      jump\t// out\n        /* \"contracts/Evaluator.sol\":840:904  function ex2b_testDeclaredAnimal(uint animalNumber)... */\n    tag_42:\n      pop\n      jump\t// out\n        /* \"contracts/Evaluator.sol\":1210:1280  function submitExercice(IExerciceSolution studentExercice)... */\n    tag_47:\n      pop\n      jump\t// out\n        /* \"contracts/Evaluator.sol\":204:275  mapping(address => mapping(uint256 => bool)) public exerciceProgression */\n    tag_52:\n      mstore(0x20, 0x02)\n      dup2\n      0x00\n      mstore\n      mstore(0x20, keccak256(0x00, 0x40))\n      dup1\n      0x00\n      mstore\n      keccak256(0x00, 0x40)\n      0x00\n      swap2\n      pop\n      swap2\n      pop\n      swap1\n      sload\n      swap1\n      0x0100\n      exp\n      swap1\n      div\n      0xff\n      and\n      dup2\n      jump\t// out\n        /* \"contracts/Evaluator.sol\":907:954  function ex3_testRegisterBreeder()... */\n    tag_57:\n      jump\t// out\n        /* \"contracts/Evaluator.sol\":449:479  uint public nextValueStoreRank */\n    tag_60:\n      sload(0x06)\n      dup2\n      jump\t// out\n        /* \"contracts/Evaluator.sol\":399:446  mapping(address => uint256) public assignedRank */\n    tag_66:\n      mstore(0x20, 0x05)\n      dup1\n      0x00\n      mstore\n      keccak256(0x00, 0x40)\n      0x00\n      swap2\n      pop\n      swap1\n      pop\n      sload\n      dup2\n      jump\t// out\n        /* \"contracts/Evaluator.sol\":1708:1799  function readLegs(address studentAddress)... */\n    tag_71:\n        /* \"contracts/Evaluator.sol\":1773:1780  uint256 */\n      0x00\n        /* \"contracts/Evaluator.sol\":1708:1799  function readLegs(address studentAddress)... */\n      swap2\n      swap1\n      pop\n      jump\t// out\n        /* \"contracts/Evaluator.sol\":1005:1050  function ex5_declareDeadAnimal()... */\n    tag_75:\n      jump\t// out\n        /* \"contracts/Evaluator.sol\":1991:2181  function setRandomValuesStore(string[20] memory _randomNames, uint256[20] memory _randomLegs, uint256[20] memory _randomSex, bool[20] memory _randomWings)... */\n    tag_80:\n        /* \"contracts/Evaluator.sol\":1324:1331  TDERC20 */\n      0x01\n      0x00\n      swap1\n      sload\n      swap1\n      0x0100\n      exp\n      swap1\n      div\n      0xffffffffffffffffffffffffffffffffffffffff\n      and\n        /* \"contracts/Evaluator.sol\":1324:1340  TDERC20.teachers */\n      0xffffffffffffffffffffffffffffffffffffffff\n      and\n      0xf0a47f78\n        /* \"contracts/Evaluator.sol\":1341:1351  msg.sender */\n      caller\n        /* \"contracts/Evaluator.sol\":1324:1352  TDERC20.teachers(msg.sender) */\n      mload(0x40)\n      dup3\n      0xffffffff\n      and\n      0xe0\n      shl\n      dup2\n      mstore\n      0x04\n      add\n      tag_135\n      swap2\n      swap1\n      tag_136\n      jump\t// in\n    tag_135:\n      0x20\n      mload(0x40)\n      dup1\n      dup4\n      sub\n      dup2\n      dup7\n      dup1\n      extcodesize\n      iszero\n      dup1\n      iszero\n      tag_137\n      jumpi\n      0x00\n      dup1\n      revert\n    tag_137:\n      pop\n      gas\n      staticcall\n      iszero\n      dup1\n      iszero\n      tag_139\n      jumpi\n      returndatasize\n      0x00\n      dup1\n      returndatacopy\n      revert(0x00, returndatasize)\n    tag_139:\n      pop\n      pop\n      pop\n      pop\n      mload(0x40)\n      returndatasize\n      not(0x1f)\n      0x1f\n      dup3\n      add\n      and\n      dup3\n      add\n      dup1\n      0x40\n      mstore\n      pop\n      dup2\n      add\n      swap1\n      tag_140\n      swap2\n      swap1\n      tag_141\n      jump\t// in\n    tag_140:\n        /* \"contracts/Evaluator.sol\":1316:1353  require(TDERC20.teachers(msg.sender)) */\n      tag_142\n      jumpi\n      0x00\n      dup1\n      revert\n    tag_142:\n        /* \"contracts/Evaluator.sol\":1991:2181  function setRandomValuesStore(string[20] memory _randomNames, uint256[20] memory _randomLegs, uint256[20] memory _randomSex, bool[20] memory _randomWings)... */\n      pop\n      pop\n      pop\n      pop\n      jump\t// out\n        /* \"contracts/Evaluator.sol\":957:1002  function ex4_testDeclareAnimal()... */\n    tag_83:\n      jump\t// out\n        /* \"contracts/Evaluator.sol\":1607:1705  function readName(address studentAddress)... */\n    tag_87:\n        /* \"contracts/Evaluator.sol\":1672:1685  string memory */\n      0x60\n        /* \"contracts/Evaluator.sol\":1692:1701  return \"\" */\n      mload(0x40)\n      dup1\n      0x20\n      add\n      0x40\n      mstore\n      dup1\n      0x00\n      dup2\n      mstore\n      pop\n      swap1\n      pop\n        /* \"contracts/Evaluator.sol\":1607:1705  function readName(address studentAddress)... */\n      swap2\n      swap1\n      pop\n      jump\t// out\n        /* \"contracts/Evaluator.sol\":1490:1601  function bytes32ToString(bytes32 _bytes32) ... */\n    tag_94:\n        /* \"contracts/Evaluator.sol\":1558:1571  string memory */\n      0x60\n        /* \"contracts/Evaluator.sol\":1585:1594  return \"\" */\n      mload(0x40)\n      dup1\n      0x20\n      add\n      0x40\n      mstore\n      dup1\n      0x00\n      dup2\n      mstore\n      pop\n      swap1\n      pop\n        /* \"contracts/Evaluator.sol\":1490:1601  function bytes32ToString(bytes32 _bytes32) ... */\n      swap2\n      swap1\n      pop\n      jump\t// out\n        /* \"contracts/Evaluator.sol\":782:837  function ex2a_getAnimalToCreateAttributes()... */\n    tag_98:\n      jump\t// out\n        /* \"contracts/Evaluator.sol\":741:779  function ex1_testERC721()... */\n    tag_101:\n      jump\t// out\n        /* \"contracts/Evaluator.sol\":1802:1892  function readSex(address studentAddress)... */\n    tag_105:\n        /* \"contracts/Evaluator.sol\":1866:1873  uint256 */\n      0x00\n        /* \"contracts/Evaluator.sol\":1802:1892  function readSex(address studentAddress)... */\n      swap2\n      swap1\n      pop\n      jump\t// out\n        /* \"contracts/Evaluator.sol\":1053:1100  function ex6a_auctionAnimal_offer()... */\n    tag_109:\n      jump\t// out\n        /* \"contracts/Evaluator.sol\":1103:1166  function ex6b_auctionAnimal_buy(uint animalForSale)... */\n    tag_113:\n      pop\n      jump\t// out\n        /* \"contracts/Evaluator.sol\":1895:1988  function readWings(address studentAddress)... */\n    tag_117:\n        /* \"contracts/Evaluator.sol\":1961:1965  bool */\n      0x00\n        /* \"contracts/Evaluator.sol\":1895:1988  function readWings(address studentAddress)... */\n      swap2\n      swap1\n      pop\n      jump\t// out\n        /* \"contracts/Evaluator.sol\":141:181  mapping(address => bool) public teachers */\n    tag_122:\n      mstore(0x20, 0x00)\n      dup1\n      0x00\n      mstore\n      keccak256(0x00, 0x40)\n      0x00\n      swap2\n      pop\n      sload\n      swap1\n      0x0100\n      exp\n      swap1\n      div\n      0xff\n      and\n      dup2\n      jump\t// out\n        /* \"contracts/Evaluator.sol\":351:396  mapping(address => bool) public hasBeenPaired */\n    tag_127:\n      mstore(0x20, 0x04)\n      dup1\n      0x00\n      mstore\n      keccak256(0x00, 0x40)\n      0x00\n      swap2\n      pop\n      sload\n      swap1\n      0x0100\n      exp\n      swap1\n      div\n      0xff\n      and\n      dup2\n      jump\t// out\n        /* \"#utility.yul\":7:82   */\n    tag_153:\n        /* \"#utility.yul\":40:46   */\n      0x00\n        /* \"#utility.yul\":73:75   */\n      0x40\n        /* \"#utility.yul\":67:76   */\n      mload\n        /* \"#utility.yul\":57:76   */\n      swap1\n      pop\n        /* \"#utility.yul\":7:82   */\n      swap1\n      jump\t// out\n        /* \"#utility.yul\":88:205   */\n    tag_154:\n        /* \"#utility.yul\":197:198   */\n      0x00\n        /* \"#utility.yul\":194:195   */\n      dup1\n        /* \"#utility.yul\":187:199   */\n      revert\n        /* \"#utility.yul\":211:328   */\n    tag_155:\n        /* \"#utility.yul\":320:321   */\n      0x00\n        /* \"#utility.yul\":317:318   */\n      dup1\n        /* \"#utility.yul\":310:322   */\n      revert\n        /* \"#utility.yul\":334:460   */\n    tag_156:\n        /* \"#utility.yul\":371:378   */\n      0x00\n        /* \"#utility.yul\":411:453   */\n      0xffffffffffffffffffffffffffffffffffffffff\n        /* \"#utility.yul\":404:409   */\n      dup3\n        /* \"#utility.yul\":400:454   */\n      and\n        /* \"#utility.yul\":389:454   */\n      swap1\n      pop\n        /* \"#utility.yul\":334:460   */\n      swap2\n      swap1\n      pop\n      jump\t// out\n        /* \"#utility.yul\":466:562   */\n    tag_157:\n        /* \"#utility.yul\":503:510   */\n      0x00\n        /* \"#utility.yul\":532:556   */\n      tag_211\n        /* \"#utility.yul\":550:555   */\n      dup3\n        /* \"#utility.yul\":532:556   */\n      tag_156\n      jump\t// in\n    tag_211:\n        /* \"#utility.yul\":521:556   */\n      swap1\n      pop\n        /* \"#utility.yul\":466:562   */\n      swap2\n      swap1\n      pop\n      jump\t// out\n        /* \"#utility.yul\":568:690   */\n    tag_158:\n        /* \"#utility.yul\":641:665   */\n      tag_213\n        /* \"#utility.yul\":659:664   */\n      dup2\n        /* \"#utility.yul\":641:665   */\n      tag_157\n      jump\t// in\n    tag_213:\n        /* \"#utility.yul\":634:639   */\n      dup2\n        /* \"#utility.yul\":631:666   */\n      eq\n        /* \"#utility.yul\":621:684   */\n      tag_214\n      jumpi\n        /* \"#utility.yul\":680:681   */\n      0x00\n        /* \"#utility.yul\":677:678   */\n      dup1\n        /* \"#utility.yul\":670:682   */\n      revert\n        /* \"#utility.yul\":621:684   */\n    tag_214:\n        /* \"#utility.yul\":568:690   */\n      pop\n      jump\t// out\n        /* \"#utility.yul\":696:835   */\n    tag_159:\n        /* \"#utility.yul\":742:747   */\n      0x00\n        /* \"#utility.yul\":780:786   */\n      dup2\n        /* \"#utility.yul\":767:787   */\n      calldataload\n        /* \"#utility.yul\":758:787   */\n      swap1\n      pop\n        /* \"#utility.yul\":796:829   */\n      tag_216\n        /* \"#utility.yul\":823:828   */\n      dup2\n        /* \"#utility.yul\":796:829   */\n      tag_158\n      jump\t// in\n    tag_216:\n        /* \"#utility.yul\":696:835   */\n      swap3\n      swap2\n      pop\n      pop\n      jump\t// out\n        /* \"#utility.yul\":841:1170   */\n    tag_34:\n        /* \"#utility.yul\":900:906   */\n      0x00\n        /* \"#utility.yul\":949:951   */\n      0x20\n        /* \"#utility.yul\":937:946   */\n      dup3\n        /* \"#utility.yul\":928:935   */\n      dup5\n        /* \"#utility.yul\":924:947   */\n      sub\n        /* \"#utility.yul\":920:952   */\n      slt\n        /* \"#utility.yul\":917:1036   */\n      iszero\n      tag_218\n      jumpi\n        /* \"#utility.yul\":955:1034   */\n      tag_219\n      tag_154\n      jump\t// in\n    tag_219:\n        /* \"#utility.yul\":917:1036   */\n    tag_218:\n        /* \"#utility.yul\":1075:1076   */\n      0x00\n        /* \"#utility.yul\":1100:1153   */\n      tag_220\n        /* \"#utility.yul\":1145:1152   */\n      dup5\n        /* \"#utility.yul\":1136:1142   */\n      dup3\n        /* \"#utility.yul\":1125:1134   */\n      dup6\n        /* \"#utility.yul\":1121:1143   */\n      add\n        /* \"#utility.yul\":1100:1153   */\n      tag_159\n      jump\t// in\n    tag_220:\n        /* \"#utility.yul\":1090:1153   */\n      swap2\n      pop\n        /* \"#utility.yul\":1046:1163   */\n      pop\n        /* \"#utility.yul\":841:1170   */\n      swap3\n      swap2\n      pop\n      pop\n      jump\t// out\n        /* \"#utility.yul\":1176:1236   */\n    tag_160:\n        /* \"#utility.yul\":1204:1207   */\n      0x00\n        /* \"#utility.yul\":1225:1230   */\n      dup2\n        /* \"#utility.yul\":1218:1230   */\n      swap1\n      pop\n        /* \"#utility.yul\":1176:1236   */\n      swap2\n      swap1\n      pop\n      jump\t// out\n        /* \"#utility.yul\":1242:1384   */\n    tag_161:\n        /* \"#utility.yul\":1292:1301   */\n      0x00\n        /* \"#utility.yul\":1325:1378   */\n      tag_223\n        /* \"#utility.yul\":1343:1377   */\n      tag_224\n        /* \"#utility.yul\":1352:1376   */\n      tag_225\n        /* \"#utility.yul\":1370:1375   */\n      dup5\n        /* \"#utility.yul\":1352:1376   */\n      tag_156\n      jump\t// in\n    tag_225:\n        /* \"#utility.yul\":1343:1377   */\n      tag_160\n      jump\t// in\n    tag_224:\n        /* \"#utility.yul\":1325:1378   */\n      tag_156\n      jump\t// in\n    tag_223:\n        /* \"#utility.yul\":1312:1378   */\n      swap1\n      pop\n        /* \"#utility.yul\":1242:1384   */\n      swap2\n      swap1\n      pop\n      jump\t// out\n        /* \"#utility.yul\":1390:1516   */\n    tag_162:\n        /* \"#utility.yul\":1440:1449   */\n      0x00\n        /* \"#utility.yul\":1473:1510   */\n      tag_227\n        /* \"#utility.yul\":1504:1509   */\n      dup3\n        /* \"#utility.yul\":1473:1510   */\n      tag_161\n      jump\t// in\n    tag_227:\n        /* \"#utility.yul\":1460:1510   */\n      swap1\n      pop\n        /* \"#utility.yul\":1390:1516   */\n      swap2\n      swap1\n      pop\n      jump\t// out\n        /* \"#utility.yul\":1522:1674   */\n    tag_163:\n        /* \"#utility.yul\":1598:1607   */\n      0x00\n        /* \"#utility.yul\":1631:1668   */\n      tag_229\n        /* \"#utility.yul\":1662:1667   */\n      dup3\n        /* \"#utility.yul\":1631:1668   */\n      tag_162\n      jump\t// in\n    tag_229:\n        /* \"#utility.yul\":1618:1668   */\n      swap1\n      pop\n        /* \"#utility.yul\":1522:1674   */\n      swap2\n      swap1\n      pop\n      jump\t// out\n        /* \"#utility.yul\":1680:1863   */\n    tag_164:\n        /* \"#utility.yul\":1793:1856   */\n      tag_231\n        /* \"#utility.yul\":1850:1855   */\n      dup2\n        /* \"#utility.yul\":1793:1856   */\n      tag_163\n      jump\t// in\n    tag_231:\n        /* \"#utility.yul\":1788:1791   */\n      dup3\n        /* \"#utility.yul\":1781:1857   */\n      mstore\n        /* \"#utility.yul\":1680:1863   */\n      pop\n      pop\n      jump\t// out\n        /* \"#utility.yul\":1869:2143   */\n    tag_37:\n        /* \"#utility.yul\":1988:1992   */\n      0x00\n        /* \"#utility.yul\":2026:2028   */\n      0x20\n        /* \"#utility.yul\":2015:2024   */\n      dup3\n        /* \"#utility.yul\":2011:2029   */\n      add\n        /* \"#utility.yul\":2003:2029   */\n      swap1\n      pop\n        /* \"#utility.yul\":2039:2136   */\n      tag_233\n        /* \"#utility.yul\":2133:2134   */\n      0x00\n        /* \"#utility.yul\":2122:2131   */\n      dup4\n        /* \"#utility.yul\":2118:2135   */\n      add\n        /* \"#utility.yul\":2109:2115   */\n      dup5\n        /* \"#utility.yul\":2039:2136   */\n      tag_164\n      jump\t// in\n    tag_233:\n        /* \"#utility.yul\":1869:2143   */\n      swap3\n      swap2\n      pop\n      pop\n      jump\t// out\n        /* \"#utility.yul\":2149:2226   */\n    tag_165:\n        /* \"#utility.yul\":2186:2193   */\n      0x00\n        /* \"#utility.yul\":2215:2220   */\n      dup2\n        /* \"#utility.yul\":2204:2220   */\n      swap1\n      pop\n        /* \"#utility.yul\":2149:2226   */\n      swap2\n      swap1\n      pop\n      jump\t// out\n        /* \"#utility.yul\":2232:2354   */\n    tag_166:\n        /* \"#utility.yul\":2305:2329   */\n      tag_236\n        /* \"#utility.yul\":2323:2328   */\n      dup2\n        /* \"#utility.yul\":2305:2329   */\n      tag_165\n      jump\t// in\n    tag_236:\n        /* \"#utility.yul\":2298:2303   */\n      dup2\n        /* \"#utility.yul\":2295:2330   */\n      eq\n        /* \"#utility.yul\":2285:2348   */\n      tag_237\n      jumpi\n        /* \"#utility.yul\":2344:2345   */\n      0x00\n        /* \"#utility.yul\":2341:2342   */\n      dup1\n        /* \"#utility.yul\":2334:2346   */\n      revert\n        /* \"#utility.yul\":2285:2348   */\n    tag_237:\n        /* \"#utility.yul\":2232:2354   */\n      pop\n      jump\t// out\n        /* \"#utility.yul\":2360:2499   */\n    tag_167:\n        /* \"#utility.yul\":2406:2411   */\n      0x00\n        /* \"#utility.yul\":2444:2450   */\n      dup2\n        /* \"#utility.yul\":2431:2451   */\n      calldataload\n        /* \"#utility.yul\":2422:2451   */\n      swap1\n      pop\n        /* \"#utility.yul\":2460:2493   */\n      tag_239\n        /* \"#utility.yul\":2487:2492   */\n      dup2\n        /* \"#utility.yul\":2460:2493   */\n      tag_166\n      jump\t// in\n    tag_239:\n        /* \"#utility.yul\":2360:2499   */\n      swap3\n      swap2\n      pop\n      pop\n      jump\t// out\n        /* \"#utility.yul\":2505:2834   */\n    tag_41:\n        /* \"#utility.yul\":2564:2570   */\n      0x00\n        /* \"#utility.yul\":2613:2615   */\n      0x20\n        /* \"#utility.yul\":2601:2610   */\n      dup3\n        /* \"#utility.yul\":2592:2599   */\n      dup5\n        /* \"#utility.yul\":2588:2611   */\n      sub\n        /* \"#utility.yul\":2584:2616   */\n      slt\n        /* \"#utility.yul\":2581:2700   */\n      iszero\n      tag_241\n      jumpi\n        /* \"#utility.yul\":2619:2698   */\n      tag_242\n      tag_154\n      jump\t// in\n    tag_242:\n        /* \"#utility.yul\":2581:2700   */\n    tag_241:\n        /* \"#utility.yul\":2739:2740   */\n      0x00\n        /* \"#utility.yul\":2764:2817   */\n      tag_243\n        /* \"#utility.yul\":2809:2816   */\n      dup5\n        /* \"#utility.yul\":2800:2806   */\n      dup3\n        /* \"#utility.yul\":2789:2798   */\n      dup6\n        /* \"#utility.yul\":2785:2807   */\n      add\n        /* \"#utility.yul\":2764:2817   */\n      tag_167\n      jump\t// in\n    tag_243:\n        /* \"#utility.yul\":2754:2817   */\n      swap2\n      pop\n        /* \"#utility.yul\":2710:2827   */\n      pop\n        /* \"#utility.yul\":2505:2834   */\n      swap3\n      swap2\n      pop\n      pop\n      jump\t// out\n        /* \"#utility.yul\":2840:2962   */\n    tag_168:\n        /* \"#utility.yul\":2903:2910   */\n      0x00\n        /* \"#utility.yul\":2932:2956   */\n      tag_245\n        /* \"#utility.yul\":2950:2955   */\n      dup3\n        /* \"#utility.yul\":2932:2956   */\n      tag_157\n      jump\t// in\n    tag_245:\n        /* \"#utility.yul\":2921:2956   */\n      swap1\n      pop\n        /* \"#utility.yul\":2840:2962   */\n      swap2\n      swap1\n      pop\n      jump\t// out\n        /* \"#utility.yul\":2968:3142   */\n    tag_169:\n        /* \"#utility.yul\":3067:3117   */\n      tag_247\n        /* \"#utility.yul\":3111:3116   */\n      dup2\n        /* \"#utility.yul\":3067:3117   */\n      tag_168\n      jump\t// in\n    tag_247:\n        /* \"#utility.yul\":3060:3065   */\n      dup2\n        /* \"#utility.yul\":3057:3118   */\n      eq\n        /* \"#utility.yul\":3047:3136   */\n      tag_248\n      jumpi\n        /* \"#utility.yul\":3132:3133   */\n      0x00\n        /* \"#utility.yul\":3129:3130   */\n      dup1\n        /* \"#utility.yul\":3122:3134   */\n      revert\n        /* \"#utility.yul\":3047:3136   */\n    tag_248:\n        /* \"#utility.yul\":2968:3142   */\n      pop\n      jump\t// out\n        /* \"#utility.yul\":3148:3339   */\n    tag_170:\n        /* \"#utility.yul\":3220:3225   */\n      0x00\n        /* \"#utility.yul\":3258:3264   */\n      dup2\n        /* \"#utility.yul\":3245:3265   */\n      calldataload\n        /* \"#utility.yul\":3236:3265   */\n      swap1\n      pop\n        /* \"#utility.yul\":3274:3333   */\n      tag_250\n        /* \"#utility.yul\":3327:3332   */\n      dup2\n        /* \"#utility.yul\":3274:3333   */\n      tag_169\n      jump\t// in\n    tag_250:\n        /* \"#utility.yul\":3148:3339   */\n      swap3\n      swap2\n      pop\n      pop\n      jump\t// out\n        /* \"#utility.yul\":3345:3726   */\n    tag_46:\n        /* \"#utility.yul\":3430:3436   */\n      0x00\n        /* \"#utility.yul\":3479:3481   */\n      0x20\n        /* \"#utility.yul\":3467:3476   */\n      dup3\n        /* \"#utility.yul\":3458:3465   */\n      dup5\n        /* \"#utility.yul\":3454:3477   */\n      sub\n        /* \"#utility.yul\":3450:3482   */\n      slt\n        /* \"#utility.yul\":3447:3566   */\n      iszero\n      tag_252\n      jumpi\n        /* \"#utility.yul\":3485:3564   */\n      tag_253\n      tag_154\n      jump\t// in\n    tag_253:\n        /* \"#utility.yul\":3447:3566   */\n    tag_252:\n        /* \"#utility.yul\":3605:3606   */\n      0x00\n        /* \"#utility.yul\":3630:3709   */\n      tag_254\n        /* \"#utility.yul\":3701:3708   */\n      dup5\n        /* \"#utility.yul\":3692:3698   */\n      dup3\n        /* \"#utility.yul\":3681:3690   */\n      dup6\n        /* \"#utility.yul\":3677:3699   */\n      add\n        /* \"#utility.yul\":3630:3709   */\n      tag_170\n      jump\t// in\n    tag_254:\n        /* \"#utility.yul\":3620:3709   */\n      swap2\n      pop\n        /* \"#utility.yul\":3576:3719   */\n      pop\n        /* \"#utility.yul\":3345:3726   */\n      swap3\n      swap2\n      pop\n      pop\n      jump\t// out\n        /* \"#utility.yul\":3732:4206   */\n    tag_51:\n        /* \"#utility.yul\":3800:3806   */\n      0x00\n        /* \"#utility.yul\":3808:3814   */\n      dup1\n        /* \"#utility.yul\":3857:3859   */\n      0x40\n        /* \"#utility.yul\":3845:3854   */\n      dup4\n        /* \"#utility.yul\":3836:3843   */\n      dup6\n        /* \"#utility.yul\":3832:3855   */\n      sub\n        /* \"#utility.yul\":3828:3860   */\n      slt\n        /* \"#utility.yul\":3825:3944   */\n      iszero\n      tag_256\n      jumpi\n        /* \"#utility.yul\":3863:3942   */\n      tag_257\n      tag_154\n      jump\t// in\n    tag_257:\n        /* \"#utility.yul\":3825:3944   */\n    tag_256:\n        /* \"#utility.yul\":3983:3984   */\n      0x00\n        /* \"#utility.yul\":4008:4061   */\n      tag_258\n        /* \"#utility.yul\":4053:4060   */\n      dup6\n        /* \"#utility.yul\":4044:4050   */\n      dup3\n        /* \"#utility.yul\":4033:4042   */\n      dup7\n        /* \"#utility.yul\":4029:4051   */\n      add\n        /* \"#utility.yul\":4008:4061   */\n      tag_159\n      jump\t// in\n    tag_258:\n        /* \"#utility.yul\":3998:4061   */\n      swap3\n      pop\n        /* \"#utility.yul\":3954:4071   */\n      pop\n        /* \"#utility.yul\":4110:4112   */\n      0x20\n        /* \"#utility.yul\":4136:4189   */\n      tag_259\n        /* \"#utility.yul\":4181:4188   */\n      dup6\n        /* \"#utility.yul\":4172:4178   */\n      dup3\n        /* \"#utility.yul\":4161:4170   */\n      dup7\n        /* \"#utility.yul\":4157:4179   */\n      add\n        /* \"#utility.yul\":4136:4189   */\n      tag_167\n      jump\t// in\n    tag_259:\n        /* \"#utility.yul\":4126:4189   */\n      swap2\n      pop\n        /* \"#utility.yul\":4081:4199   */\n      pop\n        /* \"#utility.yul\":3732:4206   */\n      swap3\n      pop\n      swap3\n      swap1\n      pop\n      jump\t// out\n        /* \"#utility.yul\":4212:4302   */\n    tag_171:\n        /* \"#utility.yul\":4246:4253   */\n      0x00\n        /* \"#utility.yul\":4289:4294   */\n      dup2\n        /* \"#utility.yul\":4282:4295   */\n      iszero\n        /* \"#utility.yul\":4275:4296   */\n      iszero\n        /* \"#utility.yul\":4264:4296   */\n      swap1\n      pop\n        /* \"#utility.yul\":4212:4302   */\n      swap2\n      swap1\n      pop\n      jump\t// out\n        /* \"#utility.yul\":4308:4417   */\n    tag_172:\n        /* \"#utility.yul\":4389:4410   */\n      tag_262\n        /* \"#utility.yul\":4404:4409   */\n      dup2\n        /* \"#utility.yul\":4389:4410   */\n      tag_171\n      jump\t// in\n    tag_262:\n        /* \"#utility.yul\":4384:4387   */\n      dup3\n        /* \"#utility.yul\":4377:4411   */\n      mstore\n        /* \"#utility.yul\":4308:4417   */\n      pop\n      pop\n      jump\t// out\n        /* \"#utility.yul\":4423:4633   */\n    tag_54:\n        /* \"#utility.yul\":4510:4514   */\n      0x00\n        /* \"#utility.yul\":4548:4550   */\n      0x20\n        /* \"#utility.yul\":4537:4546   */\n      dup3\n        /* \"#utility.yul\":4533:4551   */\n      add\n        /* \"#utility.yul\":4525:4551   */\n      swap1\n      pop\n        /* \"#utility.yul\":4561:4626   */\n      tag_264\n        /* \"#utility.yul\":4623:4624   */\n      0x00\n        /* \"#utility.yul\":4612:4621   */\n      dup4\n        /* \"#utility.yul\":4608:4625   */\n      add\n        /* \"#utility.yul\":4599:4605   */\n      dup5\n        /* \"#utility.yul\":4561:4626   */\n      tag_172\n      jump\t// in\n    tag_264:\n        /* \"#utility.yul\":4423:4633   */\n      swap3\n      swap2\n      pop\n      pop\n      jump\t// out\n        /* \"#utility.yul\":4639:4757   */\n    tag_173:\n        /* \"#utility.yul\":4726:4750   */\n      tag_266\n        /* \"#utility.yul\":4744:4749   */\n      dup2\n        /* \"#utility.yul\":4726:4750   */\n      tag_165\n      jump\t// in\n    tag_266:\n        /* \"#utility.yul\":4721:4724   */\n      dup3\n        /* \"#utility.yul\":4714:4751   */\n      mstore\n        /* \"#utility.yul\":4639:4757   */\n      pop\n      pop\n      jump\t// out\n        /* \"#utility.yul\":4763:4985   */\n    tag_62:\n        /* \"#utility.yul\":4856:4860   */\n      0x00\n        /* \"#utility.yul\":4894:4896   */\n      0x20\n        /* \"#utility.yul\":4883:4892   */\n      dup3\n        /* \"#utility.yul\":4879:4897   */\n      add\n        /* \"#utility.yul\":4871:4897   */\n      swap1\n      pop\n        /* \"#utility.yul\":4907:4978   */\n      tag_268\n        /* \"#utility.yul\":4975:4976   */\n      0x00\n        /* \"#utility.yul\":4964:4973   */\n      dup4\n        /* \"#utility.yul\":4960:4977   */\n      add\n        /* \"#utility.yul\":4951:4957   */\n      dup5\n        /* \"#utility.yul\":4907:4978   */\n      tag_173\n      jump\t// in\n    tag_268:\n        /* \"#utility.yul\":4763:4985   */\n      swap3\n      swap2\n      pop\n      pop\n      jump\t// out\n        /* \"#utility.yul\":4991:5108   */\n    tag_174:\n        /* \"#utility.yul\":5100:5101   */\n      0x00\n        /* \"#utility.yul\":5097:5098   */\n      dup1\n        /* \"#utility.yul\":5090:5102   */\n      revert\n        /* \"#utility.yul\":5114:5216   */\n    tag_175:\n        /* \"#utility.yul\":5155:5161   */\n      0x00\n        /* \"#utility.yul\":5206:5208   */\n      0x1f\n        /* \"#utility.yul\":5202:5209   */\n      not\n        /* \"#utility.yul\":5197:5199   */\n      0x1f\n        /* \"#utility.yul\":5190:5195   */\n      dup4\n        /* \"#utility.yul\":5186:5200   */\n      add\n        /* \"#utility.yul\":5182:5210   */\n      and\n        /* \"#utility.yul\":5172:5210   */\n      swap1\n      pop\n        /* \"#utility.yul\":5114:5216   */\n      swap2\n      swap1\n      pop\n      jump\t// out\n        /* \"#utility.yul\":5222:5402   */\n    tag_176:\n        /* \"#utility.yul\":5270:5347   */\n      0x4e487b7100000000000000000000000000000000000000000000000000000000\n        /* \"#utility.yul\":5267:5268   */\n      0x00\n        /* \"#utility.yul\":5260:5348   */\n      mstore\n        /* \"#utility.yul\":5367:5371   */\n      0x41\n        /* \"#utility.yul\":5364:5365   */\n      0x04\n        /* \"#utility.yul\":5357:5372   */\n      mstore\n        /* \"#utility.yul\":5391:5395   */\n      0x24\n        /* \"#utility.yul\":5388:5389   */\n      0x00\n        /* \"#utility.yul\":5381:5396   */\n      revert\n        /* \"#utility.yul\":5408:5689   */\n    tag_177:\n        /* \"#utility.yul\":5491:5518   */\n      tag_273\n        /* \"#utility.yul\":5513:5517   */\n      dup3\n        /* \"#utility.yul\":5491:5518   */\n      tag_175\n      jump\t// in\n    tag_273:\n        /* \"#utility.yul\":5483:5489   */\n      dup2\n        /* \"#utility.yul\":5479:5519   */\n      add\n        /* \"#utility.yul\":5621:5627   */\n      dup2\n        /* \"#utility.yul\":5609:5619   */\n      dup2\n        /* \"#utility.yul\":5606:5628   */\n      lt\n        /* \"#utility.yul\":5585:5603   */\n      0xffffffffffffffff\n        /* \"#utility.yul\":5573:5583   */\n      dup3\n        /* \"#utility.yul\":5570:5604   */\n      gt\n        /* \"#utility.yul\":5567:5629   */\n      or\n        /* \"#utility.yul\":5564:5652   */\n      iszero\n      tag_274\n      jumpi\n        /* \"#utility.yul\":5632:5650   */\n      tag_275\n      tag_176\n      jump\t// in\n    tag_275:\n        /* \"#utility.yul\":5564:5652   */\n    tag_274:\n        /* \"#utility.yul\":5672:5682   */\n      dup1\n        /* \"#utility.yul\":5668:5670   */\n      0x40\n        /* \"#utility.yul\":5661:5683   */\n      mstore\n        /* \"#utility.yul\":5451:5689   */\n      pop\n        /* \"#utility.yul\":5408:5689   */\n      pop\n      pop\n      jump\t// out\n        /* \"#utility.yul\":5695:5824   */\n    tag_178:\n        /* \"#utility.yul\":5729:5735   */\n      0x00\n        /* \"#utility.yul\":5756:5776   */\n      tag_277\n      tag_153\n      jump\t// in\n    tag_277:\n        /* \"#utility.yul\":5746:5776   */\n      swap1\n      pop\n        /* \"#utility.yul\":5785:5818   */\n      tag_278\n        /* \"#utility.yul\":5813:5817   */\n      dup3\n        /* \"#utility.yul\":5805:5811   */\n      dup3\n        /* \"#utility.yul\":5785:5818   */\n      tag_177\n      jump\t// in\n    tag_278:\n        /* \"#utility.yul\":5695:5824   */\n      swap2\n      swap1\n      pop\n      jump\t// out\n        /* \"#utility.yul\":5830:6090   */\n    tag_179:\n        /* \"#utility.yul\":5916:5920   */\n      0x00\n        /* \"#utility.yul\":6006:6024   */\n      0xffffffffffffffff\n        /* \"#utility.yul\":5998:6004   */\n      dup3\n        /* \"#utility.yul\":5995:6025   */\n      gt\n        /* \"#utility.yul\":5992:6048   */\n      iszero\n      tag_280\n      jumpi\n        /* \"#utility.yul\":6028:6046   */\n      tag_281\n      tag_176\n      jump\t// in\n    tag_281:\n        /* \"#utility.yul\":5992:6048   */\n    tag_280:\n        /* \"#utility.yul\":6078:6082   */\n      0x20\n        /* \"#utility.yul\":6070:6076   */\n      dup3\n        /* \"#utility.yul\":6066:6083   */\n      mul\n        /* \"#utility.yul\":6058:6083   */\n      swap1\n      pop\n        /* \"#utility.yul\":5830:6090   */\n      swap2\n      swap1\n      pop\n      jump\t// out\n        /* \"#utility.yul\":6096:6213   */\n    tag_180:\n        /* \"#utility.yul\":6205:6206   */\n      0x00\n        /* \"#utility.yul\":6202:6203   */\n      dup1\n        /* \"#utility.yul\":6195:6207   */\n      revert\n        /* \"#utility.yul\":6219:6336   */\n    tag_181:\n        /* \"#utility.yul\":6328:6329   */\n      0x00\n        /* \"#utility.yul\":6325:6326   */\n      dup1\n        /* \"#utility.yul\":6318:6330   */\n      revert\n        /* \"#utility.yul\":6342:6650   */\n    tag_182:\n        /* \"#utility.yul\":6404:6408   */\n      0x00\n        /* \"#utility.yul\":6494:6512   */\n      0xffffffffffffffff\n        /* \"#utility.yul\":6486:6492   */\n      dup3\n        /* \"#utility.yul\":6483:6513   */\n      gt\n        /* \"#utility.yul\":6480:6536   */\n      iszero\n      tag_285\n      jumpi\n        /* \"#utility.yul\":6516:6534   */\n      tag_286\n      tag_176\n      jump\t// in\n    tag_286:\n        /* \"#utility.yul\":6480:6536   */\n    tag_285:\n        /* \"#utility.yul\":6554:6583   */\n      tag_287\n        /* \"#utility.yul\":6576:6582   */\n      dup3\n        /* \"#utility.yul\":6554:6583   */\n      tag_175\n      jump\t// in\n    tag_287:\n        /* \"#utility.yul\":6546:6583   */\n      swap1\n      pop\n        /* \"#utility.yul\":6638:6642   */\n      0x20\n        /* \"#utility.yul\":6632:6636   */\n      dup2\n        /* \"#utility.yul\":6628:6643   */\n      add\n        /* \"#utility.yul\":6620:6643   */\n      swap1\n      pop\n        /* \"#utility.yul\":6342:6650   */\n      swap2\n      swap1\n      pop\n      jump\t// out\n        /* \"#utility.yul\":6656:6810   */\n    tag_183:\n        /* \"#utility.yul\":6740:6746   */\n      dup3\n        /* \"#utility.yul\":6735:6738   */\n      dup2\n        /* \"#utility.yul\":6730:6733   */\n      dup4\n        /* \"#utility.yul\":6717:6747   */\n      calldatacopy\n        /* \"#utility.yul\":6802:6803   */\n      0x00\n        /* \"#utility.yul\":6793:6799   */\n      dup4\n        /* \"#utility.yul\":6788:6791   */\n      dup4\n        /* \"#utility.yul\":6784:6800   */\n      add\n        /* \"#utility.yul\":6777:6804   */\n      mstore\n        /* \"#utility.yul\":6656:6810   */\n      pop\n      pop\n      pop\n      jump\t// out\n        /* \"#utility.yul\":6816:7228   */\n    tag_184:\n        /* \"#utility.yul\":6894:6899   */\n      0x00\n        /* \"#utility.yul\":6919:6985   */\n      tag_290\n        /* \"#utility.yul\":6935:6984   */\n      tag_291\n        /* \"#utility.yul\":6977:6983   */\n      dup5\n        /* \"#utility.yul\":6935:6984   */\n      tag_182\n      jump\t// in\n    tag_291:\n        /* \"#utility.yul\":6919:6985   */\n      tag_178\n      jump\t// in\n    tag_290:\n        /* \"#utility.yul\":6910:6985   */\n      swap1\n      pop\n        /* \"#utility.yul\":7008:7014   */\n      dup3\n        /* \"#utility.yul\":7001:7006   */\n      dup2\n        /* \"#utility.yul\":6994:7015   */\n      mstore\n        /* \"#utility.yul\":7046:7050   */\n      0x20\n        /* \"#utility.yul\":7039:7044   */\n      dup2\n        /* \"#utility.yul\":7035:7051   */\n      add\n        /* \"#utility.yul\":7084:7087   */\n      dup5\n        /* \"#utility.yul\":7075:7081   */\n      dup5\n        /* \"#utility.yul\":7070:7073   */\n      dup5\n        /* \"#utility.yul\":7066:7082   */\n      add\n        /* \"#utility.yul\":7063:7088   */\n      gt\n        /* \"#utility.yul\":7060:7172   */\n      iszero\n      tag_292\n      jumpi\n        /* \"#utility.yul\":7091:7170   */\n      tag_293\n      tag_181\n      jump\t// in\n    tag_293:\n        /* \"#utility.yul\":7060:7172   */\n    tag_292:\n        /* \"#utility.yul\":7181:7222   */\n      tag_294\n        /* \"#utility.yul\":7215:7221   */\n      dup5\n        /* \"#utility.yul\":7210:7213   */\n      dup3\n        /* \"#utility.yul\":7205:7208   */\n      dup6\n        /* \"#utility.yul\":7181:7222   */\n      tag_183\n      jump\t// in\n    tag_294:\n        /* \"#utility.yul\":6900:7228   */\n      pop\n        /* \"#utility.yul\":6816:7228   */\n      swap4\n      swap3\n      pop\n      pop\n      pop\n      jump\t// out\n        /* \"#utility.yul\":7248:7588   */\n    tag_185:\n        /* \"#utility.yul\":7304:7309   */\n      0x00\n        /* \"#utility.yul\":7353:7356   */\n      dup3\n        /* \"#utility.yul\":7346:7350   */\n      0x1f\n        /* \"#utility.yul\":7338:7344   */\n      dup4\n        /* \"#utility.yul\":7334:7351   */\n      add\n        /* \"#utility.yul\":7330:7357   */\n      slt\n        /* \"#utility.yul\":7320:7442   */\n      tag_296\n      jumpi\n        /* \"#utility.yul\":7361:7440   */\n      tag_297\n      tag_174\n      jump\t// in\n    tag_297:\n        /* \"#utility.yul\":7320:7442   */\n    tag_296:\n        /* \"#utility.yul\":7478:7484   */\n      dup2\n        /* \"#utility.yul\":7465:7485   */\n      calldataload\n        /* \"#utility.yul\":7503:7582   */\n      tag_298\n        /* \"#utility.yul\":7578:7581   */\n      dup5\n        /* \"#utility.yul\":7570:7576   */\n      dup3\n        /* \"#utility.yul\":7563:7567   */\n      0x20\n        /* \"#utility.yul\":7555:7561   */\n      dup7\n        /* \"#utility.yul\":7551:7568   */\n      add\n        /* \"#utility.yul\":7503:7582   */\n      tag_184\n      jump\t// in\n    tag_298:\n        /* \"#utility.yul\":7494:7582   */\n      swap2\n      pop\n        /* \"#utility.yul\":7310:7588   */\n      pop\n        /* \"#utility.yul\":7248:7588   */\n      swap3\n      swap2\n      pop\n      pop\n      jump\t// out\n        /* \"#utility.yul\":7612:8492   */\n    tag_186:\n        /* \"#utility.yul\":7717:7722   */\n      0x00\n        /* \"#utility.yul\":7742:7832   */\n      tag_300\n        /* \"#utility.yul\":7758:7831   */\n      tag_301\n        /* \"#utility.yul\":7824:7830   */\n      dup5\n        /* \"#utility.yul\":7758:7831   */\n      tag_179\n      jump\t// in\n    tag_301:\n        /* \"#utility.yul\":7742:7832   */\n      tag_178\n      jump\t// in\n    tag_300:\n        /* \"#utility.yul\":7733:7832   */\n      swap1\n      pop\n        /* \"#utility.yul\":7852:7857   */\n      dup1\n        /* \"#utility.yul\":7905:7909   */\n      0x20\n        /* \"#utility.yul\":7897:7903   */\n      dup5\n        /* \"#utility.yul\":7893:7910   */\n      mul\n        /* \"#utility.yul\":7885:7891   */\n      dup4\n        /* \"#utility.yul\":7881:7911   */\n      add\n        /* \"#utility.yul\":7934:7937   */\n      dup6\n        /* \"#utility.yul\":7926:7932   */\n      dup2\n        /* \"#utility.yul\":7923:7938   */\n      gt\n        /* \"#utility.yul\":7920:8042   */\n      iszero\n      tag_302\n      jumpi\n        /* \"#utility.yul\":7953:8032   */\n      tag_303\n      tag_180\n      jump\t// in\n    tag_303:\n        /* \"#utility.yul\":7920:8042   */\n    tag_302:\n        /* \"#utility.yul\":8068:8074   */\n      dup4\n        /* \"#utility.yul\":8051:8486   */\n    tag_304:\n        /* \"#utility.yul\":8085:8091   */\n      dup2\n        /* \"#utility.yul\":8080:8083   */\n      dup2\n        /* \"#utility.yul\":8077:8092   */\n      lt\n        /* \"#utility.yul\":8051:8486   */\n      iszero\n      tag_306\n      jumpi\n        /* \"#utility.yul\":8174:8177   */\n      dup1\n        /* \"#utility.yul\":8161:8178   */\n      calldataload\n        /* \"#utility.yul\":8210:8228   */\n      0xffffffffffffffff\n        /* \"#utility.yul\":8197:8208   */\n      dup2\n        /* \"#utility.yul\":8194:8229   */\n      gt\n        /* \"#utility.yul\":8191:8313   */\n      iszero\n      tag_307\n      jumpi\n        /* \"#utility.yul\":8232:8311   */\n      tag_308\n      tag_174\n      jump\t// in\n    tag_308:\n        /* \"#utility.yul\":8191:8313   */\n    tag_307:\n        /* \"#utility.yul\":8356:8367   */\n      dup1\n        /* \"#utility.yul\":8348:8354   */\n      dup7\n        /* \"#utility.yul\":8344:8368   */\n      add\n        /* \"#utility.yul\":8394:8441   */\n      tag_309\n        /* \"#utility.yul\":8437:8440   */\n      dup10\n        /* \"#utility.yul\":8425:8435   */\n      dup3\n        /* \"#utility.yul\":8394:8441   */\n      tag_185\n      jump\t// in\n    tag_309:\n        /* \"#utility.yul\":8389:8392   */\n      dup6\n        /* \"#utility.yul\":8382:8442   */\n      mstore\n        /* \"#utility.yul\":8471:8475   */\n      0x20\n        /* \"#utility.yul\":8466:8469   */\n      dup6\n        /* \"#utility.yul\":8462:8476   */\n      add\n        /* \"#utility.yul\":8455:8476   */\n      swap5\n      pop\n        /* \"#utility.yul\":8127:8486   */\n      pop\n      pop\n        /* \"#utility.yul\":8111:8115   */\n      0x20\n        /* \"#utility.yul\":8106:8109   */\n      dup2\n        /* \"#utility.yul\":8102:8116   */\n      add\n        /* \"#utility.yul\":8095:8116   */\n      swap1\n      pop\n        /* \"#utility.yul\":8051:8486   */\n      jump(tag_304)\n    tag_306:\n        /* \"#utility.yul\":8055:8076   */\n      pop\n        /* \"#utility.yul\":7723:8492   */\n      pop\n      pop\n        /* \"#utility.yul\":7612:8492   */\n      swap4\n      swap3\n      pop\n      pop\n      pop\n      jump\t// out\n        /* \"#utility.yul\":8516:8877   */\n    tag_187:\n        /* \"#utility.yul\":8596:8601   */\n      0x00\n        /* \"#utility.yul\":8645:8648   */\n      dup3\n        /* \"#utility.yul\":8638:8642   */\n      0x1f\n        /* \"#utility.yul\":8630:8636   */\n      dup4\n        /* \"#utility.yul\":8626:8643   */\n      add\n        /* \"#utility.yul\":8622:8649   */\n      slt\n        /* \"#utility.yul\":8612:8734   */\n      tag_311\n      jumpi\n        /* \"#utility.yul\":8653:8732   */\n      tag_312\n      tag_174\n      jump\t// in\n    tag_312:\n        /* \"#utility.yul\":8612:8734   */\n    tag_311:\n        /* \"#utility.yul\":8757:8761   */\n      0x14\n        /* \"#utility.yul\":8779:8871   */\n      tag_313\n        /* \"#utility.yul\":8867:8870   */\n      dup5\n        /* \"#utility.yul\":8859:8865   */\n      dup3\n        /* \"#utility.yul\":8851:8857   */\n      dup6\n        /* \"#utility.yul\":8779:8871   */\n      tag_186\n      jump\t// in\n    tag_313:\n        /* \"#utility.yul\":8770:8871   */\n      swap2\n      pop\n        /* \"#utility.yul\":8602:8877   */\n      pop\n        /* \"#utility.yul\":8516:8877   */\n      swap3\n      swap2\n      pop\n      pop\n      jump\t// out\n        /* \"#utility.yul\":8883:9133   */\n    tag_188:\n        /* \"#utility.yul\":8959:8963   */\n      0x00\n        /* \"#utility.yul\":9049:9067   */\n      0xffffffffffffffff\n        /* \"#utility.yul\":9041:9047   */\n      dup3\n        /* \"#utility.yul\":9038:9068   */\n      gt\n        /* \"#utility.yul\":9035:9091   */\n      iszero\n      tag_315\n      jumpi\n        /* \"#utility.yul\":9071:9089   */\n      tag_316\n      tag_176\n      jump\t// in\n    tag_316:\n        /* \"#utility.yul\":9035:9091   */\n    tag_315:\n        /* \"#utility.yul\":9121:9125   */\n      0x20\n        /* \"#utility.yul\":9113:9119   */\n      dup3\n        /* \"#utility.yul\":9109:9126   */\n      mul\n        /* \"#utility.yul\":9101:9126   */\n      swap1\n      pop\n        /* \"#utility.yul\":8883:9133   */\n      swap2\n      swap1\n      pop\n      jump\t// out\n        /* \"#utility.yul\":9158:9803   */\n    tag_189:\n        /* \"#utility.yul\":9253:9258   */\n      0x00\n        /* \"#utility.yul\":9278:9358   */\n      tag_318\n        /* \"#utility.yul\":9294:9357   */\n      tag_319\n        /* \"#utility.yul\":9350:9356   */\n      dup5\n        /* \"#utility.yul\":9294:9357   */\n      tag_188\n      jump\t// in\n    tag_319:\n        /* \"#utility.yul\":9278:9358   */\n      tag_178\n      jump\t// in\n    tag_318:\n        /* \"#utility.yul\":9269:9358   */\n      swap1\n      pop\n        /* \"#utility.yul\":9378:9383   */\n      dup1\n        /* \"#utility.yul\":9431:9435   */\n      0x20\n        /* \"#utility.yul\":9423:9429   */\n      dup5\n        /* \"#utility.yul\":9419:9436   */\n      mul\n        /* \"#utility.yul\":9411:9417   */\n      dup4\n        /* \"#utility.yul\":9407:9437   */\n      add\n        /* \"#utility.yul\":9460:9463   */\n      dup6\n        /* \"#utility.yul\":9452:9458   */\n      dup2\n        /* \"#utility.yul\":9449:9464   */\n      gt\n        /* \"#utility.yul\":9446:9568   */\n      iszero\n      tag_320\n      jumpi\n        /* \"#utility.yul\":9479:9558   */\n      tag_321\n      tag_180\n      jump\t// in\n    tag_321:\n        /* \"#utility.yul\":9446:9568   */\n    tag_320:\n        /* \"#utility.yul\":9594:9600   */\n      dup4\n        /* \"#utility.yul\":9577:9797   */\n    tag_322:\n        /* \"#utility.yul\":9611:9617   */\n      dup2\n        /* \"#utility.yul\":9606:9609   */\n      dup2\n        /* \"#utility.yul\":9603:9618   */\n      lt\n        /* \"#utility.yul\":9577:9797   */\n      iszero\n      tag_324\n      jumpi\n        /* \"#utility.yul\":9686:9689   */\n      dup1\n        /* \"#utility.yul\":9715:9752   */\n      tag_325\n        /* \"#utility.yul\":9748:9751   */\n      dup9\n        /* \"#utility.yul\":9736:9746   */\n      dup3\n        /* \"#utility.yul\":9715:9752   */\n      tag_167\n      jump\t// in\n    tag_325:\n        /* \"#utility.yul\":9710:9713   */\n      dup5\n        /* \"#utility.yul\":9703:9753   */\n      mstore\n        /* \"#utility.yul\":9782:9786   */\n      0x20\n        /* \"#utility.yul\":9777:9780   */\n      dup5\n        /* \"#utility.yul\":9773:9787   */\n      add\n        /* \"#utility.yul\":9766:9787   */\n      swap4\n      pop\n        /* \"#utility.yul\":9653:9797   */\n      pop\n        /* \"#utility.yul\":9637:9641   */\n      0x20\n        /* \"#utility.yul\":9632:9635   */\n      dup2\n        /* \"#utility.yul\":9628:9642   */\n      add\n        /* \"#utility.yul\":9621:9642   */\n      swap1\n      pop\n        /* \"#utility.yul\":9577:9797   */\n      jump(tag_322)\n    tag_324:\n        /* \"#utility.yul\":9581:9602   */\n      pop\n        /* \"#utility.yul\":9259:9803   */\n      pop\n      pop\n        /* \"#utility.yul\":9158:9803   */\n      swap4\n      swap3\n      pop\n      pop\n      pop\n      jump\t// out\n        /* \"#utility.yul\":9828:10169   */\n    tag_190:\n        /* \"#utility.yul\":9898:9903   */\n      0x00\n        /* \"#utility.yul\":9947:9950   */\n      dup3\n        /* \"#utility.yul\":9940:9944   */\n      0x1f\n        /* \"#utility.yul\":9932:9938   */\n      dup4\n        /* \"#utility.yul\":9928:9945   */\n      add\n        /* \"#utility.yul\":9924:9951   */\n      slt\n        /* \"#utility.yul\":9914:10036   */\n      tag_327\n      jumpi\n        /* \"#utility.yul\":9955:10034   */\n      tag_328\n      tag_174\n      jump\t// in\n    tag_328:\n        /* \"#utility.yul\":9914:10036   */\n    tag_327:\n        /* \"#utility.yul\":10059:10063   */\n      0x14\n        /* \"#utility.yul\":10081:10163   */\n      tag_329\n        /* \"#utility.yul\":10159:10162   */\n      dup5\n        /* \"#utility.yul\":10151:10157   */\n      dup3\n        /* \"#utility.yul\":10143:10149   */\n      dup6\n        /* \"#utility.yul\":10081:10163   */\n      tag_189\n      jump\t// in\n    tag_329:\n        /* \"#utility.yul\":10072:10163   */\n      swap2\n      pop\n        /* \"#utility.yul\":9904:10169   */\n      pop\n        /* \"#utility.yul\":9828:10169   */\n      swap3\n      swap2\n      pop\n      pop\n      jump\t// out\n        /* \"#utility.yul\":10175:10422   */\n    tag_191:\n        /* \"#utility.yul\":10248:10252   */\n      0x00\n        /* \"#utility.yul\":10338:10356   */\n      0xffffffffffffffff\n        /* \"#utility.yul\":10330:10336   */\n      dup3\n        /* \"#utility.yul\":10327:10357   */\n      gt\n        /* \"#utility.yul\":10324:10380   */\n      iszero\n      tag_331\n      jumpi\n        /* \"#utility.yul\":10360:10378   */\n      tag_332\n      tag_176\n      jump\t// in\n    tag_332:\n        /* \"#utility.yul\":10324:10380   */\n    tag_331:\n        /* \"#utility.yul\":10410:10414   */\n      0x20\n        /* \"#utility.yul\":10402:10408   */\n      dup3\n        /* \"#utility.yul\":10398:10415   */\n      mul\n        /* \"#utility.yul\":10390:10415   */\n      swap1\n      pop\n        /* \"#utility.yul\":10175:10422   */\n      swap2\n      swap1\n      pop\n      jump\t// out\n        /* \"#utility.yul\":10428:10544   */\n    tag_192:\n        /* \"#utility.yul\":10498:10519   */\n      tag_334\n        /* \"#utility.yul\":10513:10518   */\n      dup2\n        /* \"#utility.yul\":10498:10519   */\n      tag_171\n      jump\t// in\n    tag_334:\n        /* \"#utility.yul\":10491:10496   */\n      dup2\n        /* \"#utility.yul\":10488:10520   */\n      eq\n        /* \"#utility.yul\":10478:10538   */\n      tag_335\n      jumpi\n        /* \"#utility.yul\":10534:10535   */\n      0x00\n        /* \"#utility.yul\":10531:10532   */\n      dup1\n        /* \"#utility.yul\":10524:10536   */\n      revert\n        /* \"#utility.yul\":10478:10538   */\n    tag_335:\n        /* \"#utility.yul\":10428:10544   */\n      pop\n      jump\t// out\n        /* \"#utility.yul\":10550:10683   */\n    tag_193:\n        /* \"#utility.yul\":10593:10598   */\n      0x00\n        /* \"#utility.yul\":10631:10637   */\n      dup2\n        /* \"#utility.yul\":10618:10638   */\n      calldataload\n        /* \"#utility.yul\":10609:10638   */\n      swap1\n      pop\n        /* \"#utility.yul\":10647:10677   */\n      tag_337\n        /* \"#utility.yul\":10671:10676   */\n      dup2\n        /* \"#utility.yul\":10647:10677   */\n      tag_192\n      jump\t// in\n    tag_337:\n        /* \"#utility.yul\":10550:10683   */\n      swap3\n      swap2\n      pop\n      pop\n      jump\t// out\n        /* \"#utility.yul\":10705:11341   */\n    tag_194:\n        /* \"#utility.yul\":10797:10802   */\n      0x00\n        /* \"#utility.yul\":10822:10899   */\n      tag_339\n        /* \"#utility.yul\":10838:10898   */\n      tag_340\n        /* \"#utility.yul\":10891:10897   */\n      dup5\n        /* \"#utility.yul\":10838:10898   */\n      tag_191\n      jump\t// in\n    tag_340:\n        /* \"#utility.yul\":10822:10899   */\n      tag_178\n      jump\t// in\n    tag_339:\n        /* \"#utility.yul\":10813:10899   */\n      swap1\n      pop\n        /* \"#utility.yul\":10919:10924   */\n      dup1\n        /* \"#utility.yul\":10972:10976   */\n      0x20\n        /* \"#utility.yul\":10964:10970   */\n      dup5\n        /* \"#utility.yul\":10960:10977   */\n      mul\n        /* \"#utility.yul\":10952:10958   */\n      dup4\n        /* \"#utility.yul\":10948:10978   */\n      add\n        /* \"#utility.yul\":11001:11004   */\n      dup6\n        /* \"#utility.yul\":10993:10999   */\n      dup2\n        /* \"#utility.yul\":10990:11005   */\n      gt\n        /* \"#utility.yul\":10987:11109   */\n      iszero\n      tag_341\n      jumpi\n        /* \"#utility.yul\":11020:11099   */\n      tag_342\n      tag_180\n      jump\t// in\n    tag_342:\n        /* \"#utility.yul\":10987:11109   */\n    tag_341:\n        /* \"#utility.yul\":11135:11141   */\n      dup4\n        /* \"#utility.yul\":11118:11335   */\n    tag_343:\n        /* \"#utility.yul\":11152:11158   */\n      dup2\n        /* \"#utility.yul\":11147:11150   */\n      dup2\n        /* \"#utility.yul\":11144:11159   */\n      lt\n        /* \"#utility.yul\":11118:11335   */\n      iszero\n      tag_345\n      jumpi\n        /* \"#utility.yul\":11227:11230   */\n      dup1\n        /* \"#utility.yul\":11256:11290   */\n      tag_346\n        /* \"#utility.yul\":11286:11289   */\n      dup9\n        /* \"#utility.yul\":11274:11284   */\n      dup3\n        /* \"#utility.yul\":11256:11290   */\n      tag_193\n      jump\t// in\n    tag_346:\n        /* \"#utility.yul\":11251:11254   */\n      dup5\n        /* \"#utility.yul\":11244:11291   */\n      mstore\n        /* \"#utility.yul\":11320:11324   */\n      0x20\n        /* \"#utility.yul\":11315:11318   */\n      dup5\n        /* \"#utility.yul\":11311:11325   */\n      add\n        /* \"#utility.yul\":11304:11325   */\n      swap4\n      pop\n        /* \"#utility.yul\":11194:11335   */\n      pop\n        /* \"#utility.yul\":11178:11182   */\n      0x20\n        /* \"#utility.yul\":11173:11176   */\n      dup2\n        /* \"#utility.yul\":11169:11183   */\n      add\n        /* \"#utility.yul\":11162:11183   */\n      swap1\n      pop\n        /* \"#utility.yul\":11118:11335   */\n      jump(tag_343)\n    tag_345:\n        /* \"#utility.yul\":11122:11143   */\n      pop\n        /* \"#utility.yul\":10803:11341   */\n      pop\n      pop\n        /* \"#utility.yul\":10705:11341   */\n      swap4\n      swap3\n      pop\n      pop\n      pop\n      jump\t// out\n        /* \"#utility.yul\":11363:11698   */\n    tag_195:\n        /* \"#utility.yul\":11430:11435   */\n      0x00\n        /* \"#utility.yul\":11479:11482   */\n      dup3\n        /* \"#utility.yul\":11472:11476   */\n      0x1f\n        /* \"#utility.yul\":11464:11470   */\n      dup4\n        /* \"#utility.yul\":11460:11477   */\n      add\n        /* \"#utility.yul\":11456:11483   */\n      slt\n        /* \"#utility.yul\":11446:11568   */\n      tag_348\n      jumpi\n        /* \"#utility.yul\":11487:11566   */\n      tag_349\n      tag_174\n      jump\t// in\n    tag_349:\n        /* \"#utility.yul\":11446:11568   */\n    tag_348:\n        /* \"#utility.yul\":11591:11595   */\n      0x14\n        /* \"#utility.yul\":11613:11692   */\n      tag_350\n        /* \"#utility.yul\":11688:11691   */\n      dup5\n        /* \"#utility.yul\":11680:11686   */\n      dup3\n        /* \"#utility.yul\":11672:11678   */\n      dup6\n        /* \"#utility.yul\":11613:11692   */\n      tag_194\n      jump\t// in\n    tag_350:\n        /* \"#utility.yul\":11604:11692   */\n      swap2\n      pop\n        /* \"#utility.yul\":11436:11698   */\n      pop\n        /* \"#utility.yul\":11363:11698   */\n      swap3\n      swap2\n      pop\n      pop\n      jump\t// out\n        /* \"#utility.yul\":11704:12839   */\n    tag_79:\n        /* \"#utility.yul\":11893:11899   */\n      0x00\n        /* \"#utility.yul\":11901:11907   */\n      dup1\n        /* \"#utility.yul\":11909:11915   */\n      0x00\n        /* \"#utility.yul\":11917:11923   */\n      dup1\n        /* \"#utility.yul\":11966:11970   */\n      0x07a0\n        /* \"#utility.yul\":11954:11963   */\n      dup6\n        /* \"#utility.yul\":11945:11952   */\n      dup8\n        /* \"#utility.yul\":11941:11964   */\n      sub\n        /* \"#utility.yul\":11937:11971   */\n      slt\n        /* \"#utility.yul\":11934:12055   */\n      iszero\n      tag_352\n      jumpi\n        /* \"#utility.yul\":11974:12053   */\n      tag_353\n      tag_154\n      jump\t// in\n    tag_353:\n        /* \"#utility.yul\":11934:12055   */\n    tag_352:\n        /* \"#utility.yul\":12122:12123   */\n      0x00\n        /* \"#utility.yul\":12111:12120   */\n      dup6\n        /* \"#utility.yul\":12107:12124   */\n      add\n        /* \"#utility.yul\":12094:12125   */\n      calldataload\n        /* \"#utility.yul\":12152:12170   */\n      0xffffffffffffffff\n        /* \"#utility.yul\":12144:12150   */\n      dup2\n        /* \"#utility.yul\":12141:12171   */\n      gt\n        /* \"#utility.yul\":12138:12255   */\n      iszero\n      tag_354\n      jumpi\n        /* \"#utility.yul\":12174:12253   */\n      tag_355\n      tag_155\n      jump\t// in\n    tag_355:\n        /* \"#utility.yul\":12138:12255   */\n    tag_354:\n        /* \"#utility.yul\":12279:12366   */\n      tag_356\n        /* \"#utility.yul\":12358:12365   */\n      dup8\n        /* \"#utility.yul\":12349:12355   */\n      dup3\n        /* \"#utility.yul\":12338:12347   */\n      dup9\n        /* \"#utility.yul\":12334:12356   */\n      add\n        /* \"#utility.yul\":12279:12366   */\n      tag_187\n      jump\t// in\n    tag_356:\n        /* \"#utility.yul\":12269:12366   */\n      swap5\n      pop\n        /* \"#utility.yul\":12065:12376   */\n      pop\n        /* \"#utility.yul\":12415:12417   */\n      0x20\n        /* \"#utility.yul\":12441:12518   */\n      tag_357\n        /* \"#utility.yul\":12510:12517   */\n      dup8\n        /* \"#utility.yul\":12501:12507   */\n      dup3\n        /* \"#utility.yul\":12490:12499   */\n      dup9\n        /* \"#utility.yul\":12486:12508   */\n      add\n        /* \"#utility.yul\":12441:12518   */\n      tag_190\n      jump\t// in\n    tag_357:\n        /* \"#utility.yul\":12431:12518   */\n      swap4\n      pop\n        /* \"#utility.yul\":12386:12528   */\n      pop\n        /* \"#utility.yul\":12567:12570   */\n      0x02a0\n        /* \"#utility.yul\":12594:12671   */\n      tag_358\n        /* \"#utility.yul\":12663:12670   */\n      dup8\n        /* \"#utility.yul\":12654:12660   */\n      dup3\n        /* \"#utility.yul\":12643:12652   */\n      dup9\n        /* \"#utility.yul\":12639:12661   */\n      add\n        /* \"#utility.yul\":12594:12671   */\n      tag_190\n      jump\t// in\n    tag_358:\n        /* \"#utility.yul\":12584:12671   */\n      swap3\n      pop\n        /* \"#utility.yul\":12538:12681   */\n      pop\n        /* \"#utility.yul\":12720:12724   */\n      0x0520\n        /* \"#utility.yul\":12748:12822   */\n      tag_359\n        /* \"#utility.yul\":12814:12821   */\n      dup8\n        /* \"#utility.yul\":12805:12811   */\n      dup3\n        /* \"#utility.yul\":12794:12803   */\n      dup9\n        /* \"#utility.yul\":12790:12812   */\n      add\n        /* \"#utility.yul\":12748:12822   */\n      tag_195\n      jump\t// in\n    tag_359:\n        /* \"#utility.yul\":12738:12822   */\n      swap2\n      pop\n        /* \"#utility.yul\":12691:12832   */\n      pop\n        /* \"#utility.yul\":11704:12839   */\n      swap3\n      swap6\n      swap2\n      swap5\n      pop\n      swap3\n      pop\n      jump\t// out\n        /* \"#utility.yul\":12845:12944   */\n    tag_196:\n        /* \"#utility.yul\":12897:12903   */\n      0x00\n        /* \"#utility.yul\":12931:12936   */\n      dup2\n        /* \"#utility.yul\":12925:12937   */\n      mload\n        /* \"#utility.yul\":12915:12937   */\n      swap1\n      pop\n        /* \"#utility.yul\":12845:12944   */\n      swap2\n      swap1\n      pop\n      jump\t// out\n        /* \"#utility.yul\":12950:13119   */\n    tag_197:\n        /* \"#utility.yul\":13034:13045   */\n      0x00\n        /* \"#utility.yul\":13068:13074   */\n      dup3\n        /* \"#utility.yul\":13063:13066   */\n      dup3\n        /* \"#utility.yul\":13056:13075   */\n      mstore\n        /* \"#utility.yul\":13108:13112   */\n      0x20\n        /* \"#utility.yul\":13103:13106   */\n      dup3\n        /* \"#utility.yul\":13099:13113   */\n      add\n        /* \"#utility.yul\":13084:13113   */\n      swap1\n      pop\n        /* \"#utility.yul\":12950:13119   */\n      swap3\n      swap2\n      pop\n      pop\n      jump\t// out\n        /* \"#utility.yul\":13125:13432   */\n    tag_198:\n        /* \"#utility.yul\":13193:13194   */\n      0x00\n        /* \"#utility.yul\":13203:13316   */\n    tag_363:\n        /* \"#utility.yul\":13217:13223   */\n      dup4\n        /* \"#utility.yul\":13214:13215   */\n      dup2\n        /* \"#utility.yul\":13211:13224   */\n      lt\n        /* \"#utility.yul\":13203:13316   */\n      iszero\n      tag_365\n      jumpi\n        /* \"#utility.yul\":13302:13303   */\n      dup1\n        /* \"#utility.yul\":13297:13300   */\n      dup3\n        /* \"#utility.yul\":13293:13304   */\n      add\n        /* \"#utility.yul\":13287:13305   */\n      mload\n        /* \"#utility.yul\":13283:13284   */\n      dup2\n        /* \"#utility.yul\":13278:13281   */\n      dup5\n        /* \"#utility.yul\":13274:13285   */\n      add\n        /* \"#utility.yul\":13267:13306   */\n      mstore\n        /* \"#utility.yul\":13239:13241   */\n      0x20\n        /* \"#utility.yul\":13236:13237   */\n      dup2\n        /* \"#utility.yul\":13232:13242   */\n      add\n        /* \"#utility.yul\":13227:13242   */\n      swap1\n      pop\n        /* \"#utility.yul\":13203:13316   */\n      jump(tag_363)\n    tag_365:\n        /* \"#utility.yul\":13334:13340   */\n      dup4\n        /* \"#utility.yul\":13331:13332   */\n      dup2\n        /* \"#utility.yul\":13328:13341   */\n      gt\n        /* \"#utility.yul\":13325:13426   */\n      iszero\n      tag_366\n      jumpi\n        /* \"#utility.yul\":13414:13415   */\n      0x00\n        /* \"#utility.yul\":13405:13411   */\n      dup5\n        /* \"#utility.yul\":13400:13403   */\n      dup5\n        /* \"#utility.yul\":13396:13412   */\n      add\n        /* \"#utility.yul\":13389:13416   */\n      mstore\n        /* \"#utility.yul\":13325:13426   */\n    tag_366:\n        /* \"#utility.yul\":13174:13432   */\n      pop\n        /* \"#utility.yul\":13125:13432   */\n      pop\n      pop\n      pop\n      jump\t// out\n        /* \"#utility.yul\":13438:13802   */\n    tag_199:\n        /* \"#utility.yul\":13526:13529   */\n      0x00\n        /* \"#utility.yul\":13554:13593   */\n      tag_368\n        /* \"#utility.yul\":13587:13592   */\n      dup3\n        /* \"#utility.yul\":13554:13593   */\n      tag_196\n      jump\t// in\n    tag_368:\n        /* \"#utility.yul\":13609:13680   */\n      tag_369\n        /* \"#utility.yul\":13673:13679   */\n      dup2\n        /* \"#utility.yul\":13668:13671   */\n      dup6\n        /* \"#utility.yul\":13609:13680   */\n      tag_197\n      jump\t// in\n    tag_369:\n        /* \"#utility.yul\":13602:13680   */\n      swap4\n      pop\n        /* \"#utility.yul\":13689:13741   */\n      tag_370\n        /* \"#utility.yul\":13734:13740   */\n      dup2\n        /* \"#utility.yul\":13729:13732   */\n      dup6\n        /* \"#utility.yul\":13722:13726   */\n      0x20\n        /* \"#utility.yul\":13715:13720   */\n      dup7\n        /* \"#utility.yul\":13711:13727   */\n      add\n        /* \"#utility.yul\":13689:13741   */\n      tag_198\n      jump\t// in\n    tag_370:\n        /* \"#utility.yul\":13766:13795   */\n      tag_371\n        /* \"#utility.yul\":13788:13794   */\n      dup2\n        /* \"#utility.yul\":13766:13795   */\n      tag_175\n      jump\t// in\n    tag_371:\n        /* \"#utility.yul\":13761:13764   */\n      dup5\n        /* \"#utility.yul\":13757:13796   */\n      add\n        /* \"#utility.yul\":13750:13796   */\n      swap2\n      pop\n        /* \"#utility.yul\":13530:13802   */\n      pop\n        /* \"#utility.yul\":13438:13802   */\n      swap3\n      swap2\n      pop\n      pop\n      jump\t// out\n        /* \"#utility.yul\":13808:14121   */\n    tag_89:\n        /* \"#utility.yul\":13921:13925   */\n      0x00\n        /* \"#utility.yul\":13959:13961   */\n      0x20\n        /* \"#utility.yul\":13948:13957   */\n      dup3\n        /* \"#utility.yul\":13944:13962   */\n      add\n        /* \"#utility.yul\":13936:13962   */\n      swap1\n      pop\n        /* \"#utility.yul\":14008:14017   */\n      dup2\n        /* \"#utility.yul\":14002:14006   */\n      dup2\n        /* \"#utility.yul\":13998:14018   */\n      sub\n        /* \"#utility.yul\":13994:13995   */\n      0x00\n        /* \"#utility.yul\":13983:13992   */\n      dup4\n        /* \"#utility.yul\":13979:13996   */\n      add\n        /* \"#utility.yul\":13972:14019   */\n      mstore\n        /* \"#utility.yul\":14036:14114   */\n      tag_373\n        /* \"#utility.yul\":14109:14113   */\n      dup2\n        /* \"#utility.yul\":14100:14106   */\n      dup5\n        /* \"#utility.yul\":14036:14114   */\n      tag_199\n      jump\t// in\n    tag_373:\n        /* \"#utility.yul\":14028:14114   */\n      swap1\n      pop\n        /* \"#utility.yul\":13808:14121   */\n      swap3\n      swap2\n      pop\n      pop\n      jump\t// out\n        /* \"#utility.yul\":14127:14204   */\n    tag_200:\n        /* \"#utility.yul\":14164:14171   */\n      0x00\n        /* \"#utility.yul\":14193:14198   */\n      dup2\n        /* \"#utility.yul\":14182:14198   */\n      swap1\n      pop\n        /* \"#utility.yul\":14127:14204   */\n      swap2\n      swap1\n      pop\n      jump\t// out\n        /* \"#utility.yul\":14210:14332   */\n    tag_201:\n        /* \"#utility.yul\":14283:14307   */\n      tag_376\n        /* \"#utility.yul\":14301:14306   */\n      dup2\n        /* \"#utility.yul\":14283:14307   */\n      tag_200\n      jump\t// in\n    tag_376:\n        /* \"#utility.yul\":14276:14281   */\n      dup2\n        /* \"#utility.yul\":14273:14308   */\n      eq\n        /* \"#utility.yul\":14263:14326   */\n      tag_377\n      jumpi\n        /* \"#utility.yul\":14322:14323   */\n      0x00\n        /* \"#utility.yul\":14319:14320   */\n      dup1\n        /* \"#utility.yul\":14312:14324   */\n      revert\n        /* \"#utility.yul\":14263:14326   */\n    tag_377:\n        /* \"#utility.yul\":14210:14332   */\n      pop\n      jump\t// out\n        /* \"#utility.yul\":14338:14477   */\n    tag_202:\n        /* \"#utility.yul\":14384:14389   */\n      0x00\n        /* \"#utility.yul\":14422:14428   */\n      dup2\n        /* \"#utility.yul\":14409:14429   */\n      calldataload\n        /* \"#utility.yul\":14400:14429   */\n      swap1\n      pop\n        /* \"#utility.yul\":14438:14471   */\n      tag_379\n        /* \"#utility.yul\":14465:14470   */\n      dup2\n        /* \"#utility.yul\":14438:14471   */\n      tag_201\n      jump\t// in\n    tag_379:\n        /* \"#utility.yul\":14338:14477   */\n      swap3\n      swap2\n      pop\n      pop\n      jump\t// out\n        /* \"#utility.yul\":14483:14812   */\n    tag_93:\n        /* \"#utility.yul\":14542:14548   */\n      0x00\n        /* \"#utility.yul\":14591:14593   */\n      0x20\n        /* \"#utility.yul\":14579:14588   */\n      dup3\n        /* \"#utility.yul\":14570:14577   */\n      dup5\n        /* \"#utility.yul\":14566:14589   */\n      sub\n        /* \"#utility.yul\":14562:14594   */\n      slt\n        /* \"#utility.yul\":14559:14678   */\n      iszero\n      tag_381\n      jumpi\n        /* \"#utility.yul\":14597:14676   */\n      tag_382\n      tag_154\n      jump\t// in\n    tag_382:\n        /* \"#utility.yul\":14559:14678   */\n    tag_381:\n        /* \"#utility.yul\":14717:14718   */\n      0x00\n        /* \"#utility.yul\":14742:14795   */\n      tag_383\n        /* \"#utility.yul\":14787:14794   */\n      dup5\n        /* \"#utility.yul\":14778:14784   */\n      dup3\n        /* \"#utility.yul\":14767:14776   */\n      dup6\n        /* \"#utility.yul\":14763:14785   */\n      add\n        /* \"#utility.yul\":14742:14795   */\n      tag_202\n      jump\t// in\n    tag_383:\n        /* \"#utility.yul\":14732:14795   */\n      swap2\n      pop\n        /* \"#utility.yul\":14688:14805   */\n      pop\n        /* \"#utility.yul\":14483:14812   */\n      swap3\n      swap2\n      pop\n      pop\n      jump\t// out\n        /* \"#utility.yul\":14818:14936   */\n    tag_203:\n        /* \"#utility.yul\":14905:14929   */\n      tag_385\n        /* \"#utility.yul\":14923:14928   */\n      dup2\n        /* \"#utility.yul\":14905:14929   */\n      tag_157\n      jump\t// in\n    tag_385:\n        /* \"#utility.yul\":14900:14903   */\n      dup3\n        /* \"#utility.yul\":14893:14930   */\n      mstore\n        /* \"#utility.yul\":14818:14936   */\n      pop\n      pop\n      jump\t// out\n        /* \"#utility.yul\":14942:15164   */\n    tag_136:\n        /* \"#utility.yul\":15035:15039   */\n      0x00\n        /* \"#utility.yul\":15073:15075   */\n      0x20\n        /* \"#utility.yul\":15062:15071   */\n      dup3\n        /* \"#utility.yul\":15058:15076   */\n      add\n        /* \"#utility.yul\":15050:15076   */\n      swap1\n      pop\n        /* \"#utility.yul\":15086:15157   */\n      tag_387\n        /* \"#utility.yul\":15154:15155   */\n      0x00\n        /* \"#utility.yul\":15143:15152   */\n      dup4\n        /* \"#utility.yul\":15139:15156   */\n      add\n        /* \"#utility.yul\":15130:15136   */\n      dup5\n        /* \"#utility.yul\":15086:15157   */\n      tag_203\n      jump\t// in\n    tag_387:\n        /* \"#utility.yul\":14942:15164   */\n      swap3\n      swap2\n      pop\n      pop\n      jump\t// out\n        /* \"#utility.yul\":15170:15307   */\n    tag_204:\n        /* \"#utility.yul\":15224:15229   */\n      0x00\n        /* \"#utility.yul\":15255:15261   */\n      dup2\n        /* \"#utility.yul\":15249:15262   */\n      mload\n        /* \"#utility.yul\":15240:15262   */\n      swap1\n      pop\n        /* \"#utility.yul\":15271:15301   */\n      tag_389\n        /* \"#utility.yul\":15295:15300   */\n      dup2\n        /* \"#utility.yul\":15271:15301   */\n      tag_192\n      jump\t// in\n    tag_389:\n        /* \"#utility.yul\":15170:15307   */\n      swap3\n      swap2\n      pop\n      pop\n      jump\t// out\n        /* \"#utility.yul\":15313:15658   */\n    tag_141:\n        /* \"#utility.yul\":15380:15386   */\n      0x00\n        /* \"#utility.yul\":15429:15431   */\n      0x20\n        /* \"#utility.yul\":15417:15426   */\n      dup3\n        /* \"#utility.yul\":15408:15415   */\n      dup5\n        /* \"#utility.yul\":15404:15427   */\n      sub\n        /* \"#utility.yul\":15400:15432   */\n      slt\n        /* \"#utility.yul\":15397:15516   */\n      iszero\n      tag_391\n      jumpi\n        /* \"#utility.yul\":15435:15514   */\n      tag_392\n      tag_154\n      jump\t// in\n    tag_392:\n        /* \"#utility.yul\":15397:15516   */\n    tag_391:\n        /* \"#utility.yul\":15555:15556   */\n      0x00\n        /* \"#utility.yul\":15580:15641   */\n      tag_393\n        /* \"#utility.yul\":15633:15640   */\n      dup5\n        /* \"#utility.yul\":15624:15630   */\n      dup3\n        /* \"#utility.yul\":15613:15622   */\n      dup6\n        /* \"#utility.yul\":15609:15631   */\n      add\n        /* \"#utility.yul\":15580:15641   */\n      tag_204\n      jump\t// in\n    tag_393:\n        /* \"#utility.yul\":15570:15641   */\n      swap2\n      pop\n        /* \"#utility.yul\":15526:15651   */\n      pop\n        /* \"#utility.yul\":15313:15658   */\n      swap3\n      swap2\n      pop\n      pop\n      jump\t// out\n\n    auxdata: 0xa26469706673582212200c99ef4db589c8aa313c360a3d866cc5b3d72b82e671cfd7f3976ea47bc4a30064736f6c63430008090033\n}\n",
				"bytecode": {
					"linkReferences": {},
					"object": "60806040523480156200001157600080fd5b506040516200102a3803806200102a8339818101604052810190620000379190620000bc565b50620000ee565b600080fd5b600073ffffffffffffffffffffffffffffffffffffffff82169050919050565b6000620000708262000043565b9050919050565b6000620000848262000063565b9050919050565b620000968162000077565b8114620000a257600080fd5b50565b600081519050620000b6816200008b565b92915050565b600060208284031215620000d557620000d46200003e565b5b6000620000e584828501620000a5565b91505092915050565b610f2c80620000fe6000396000f3fe60806040526004361061012e5760003560e01c806374db455e116100ab578063df67f59d1161006f578063df67f59d146103be578063e2a51e64146103fb578063e7b8ef2414610412578063e9847a751461043b578063f0a47f7814610478578063f4fdbb88146104b557610135565b806374db455e146102ff578063806df959146103165780639201de55146103535780639aa99dd614610390578063dede624c146103a757610135565b806339119dce116100f257806339119dce1461021a5780634466f62d14610245578063469d2a83146102825780634cb6ad03146102bf578063614933ba146102d657610135565b80630b9612541461013757806314555c7a146101745780632236d3531461019d5780632e64c500146101c65780633842083a1461020357610135565b3661013557005b005b34801561014357600080fd5b5061015e6004803603810190610159919061073a565b6104f2565b60405161016b91906107c6565b60405180910390f35b34801561018057600080fd5b5061019b60048036038101906101969190610817565b610525565b005b3480156101a957600080fd5b506101c460048036038101906101bf9190610882565b610528565b005b3480156101d257600080fd5b506101ed60048036038101906101e891906108af565b61052b565b6040516101fa919061090a565b60405180910390f35b34801561020f57600080fd5b5061021861055a565b005b34801561022657600080fd5b5061022f61055c565b60405161023c9190610934565b60405180910390f35b34801561025157600080fd5b5061026c6004803603810190610267919061073a565b610562565b6040516102799190610934565b60405180910390f35b34801561028e57600080fd5b506102a960048036038101906102a4919061073a565b61057a565b6040516102b69190610934565b60405180910390f35b3480156102cb57600080fd5b506102d4610581565b005b3480156102e257600080fd5b506102fd60048036038101906102f89190610cf7565b610583565b005b34801561030b57600080fd5b5061031461063d565b005b34801561032257600080fd5b5061033d6004803603810190610338919061073a565b61063f565b60405161034a9190610e05565b60405180910390f35b34801561035f57600080fd5b5061037a60048036038101906103759190610e5d565b610658565b6040516103879190610e05565b60405180910390f35b34801561039c57600080fd5b506103a5610671565b005b3480156103b357600080fd5b506103bc610673565b005b3480156103ca57600080fd5b506103e560048036038101906103e0919061073a565b610675565b6040516103f29190610934565b60405180910390f35b34801561040757600080fd5b5061041061067c565b005b34801561041e57600080fd5b5061043960048036038101906104349190610817565b61067e565b005b34801561044757600080fd5b50610462600480360381019061045d919061073a565b610681565b60405161046f919061090a565b60405180910390f35b34801561048457600080fd5b5061049f600480360381019061049a919061073a565b610688565b6040516104ac919061090a565b60405180910390f35b3480156104c157600080fd5b506104dc60048036038101906104d7919061073a565b6106a8565b6040516104e9919061090a565b60405180910390f35b60036020528060005260406000206000915054906101000a900473ffffffffffffffffffffffffffffffffffffffff1681565b50565b50565b60026020528160005260406000206020528060005260406000206000915091509054906101000a900460ff1681565b565b60065481565b60056020528060005260406000206000915090505481565b6000919050565b565b600160009054906101000a900473ffffffffffffffffffffffffffffffffffffffff1673ffffffffffffffffffffffffffffffffffffffff1663f0a47f78336040518263ffffffff1660e01b81526004016105de9190610e99565b60206040518083038186803b1580156105f657600080fd5b505afa15801561060a573d6000803e3d6000fd5b505050506040513d601f19601f8201168201806040525081019061062e9190610ec9565b61063757600080fd5b50505050565b565b6060604051806020016040528060008152509050919050565b6060604051806020016040528060008152509050919050565b565b565b6000919050565b565b50565b6000919050565b60006020528060005260406000206000915054906101000a900460ff1681565b60046020528060005260406000206000915054906101000a900460ff1681565b6000604051905090565b600080fd5b600080fd5b600073ffffffffffffffffffffffffffffffffffffffff82169050919050565b6000610707826106dc565b9050919050565b610717816106fc565b811461072257600080fd5b50565b6000813590506107348161070e565b92915050565b6000602082840312156107505761074f6106d2565b5b600061075e84828501610725565b91505092915050565b6000819050919050565b600061078c610787610782846106dc565b610767565b6106dc565b9050919050565b600061079e82610771565b9050919050565b60006107b082610793565b9050919050565b6107c0816107a5565b82525050565b60006020820190506107db60008301846107b7565b92915050565b6000819050919050565b6107f4816107e1565b81146107ff57600080fd5b50565b600081359050610811816107eb565b92915050565b60006020828403121561082d5761082c6106d2565b5b600061083b84828501610802565b91505092915050565b600061084f826106fc565b9050919050565b61085f81610844565b811461086a57600080fd5b50565b60008135905061087c81610856565b92915050565b600060208284031215610898576108976106d2565b5b60006108a68482850161086d565b91505092915050565b600080604083850312156108c6576108c56106d2565b5b60006108d485828601610725565b92505060206108e585828601610802565b9150509250929050565b60008115159050919050565b610904816108ef565b82525050565b600060208201905061091f60008301846108fb565b92915050565b61092e816107e1565b82525050565b60006020820190506109496000830184610925565b92915050565b600080fd5b6000601f19601f8301169050919050565b7f4e487b7100000000000000000000000000000000000000000000000000000000600052604160045260246000fd5b61099d82610954565b810181811067ffffffffffffffff821117156109bc576109bb610965565b5b80604052505050565b60006109cf6106c8565b90506109db8282610994565b919050565b600067ffffffffffffffff8211156109fb576109fa610965565b5b602082029050919050565b600080fd5b600080fd5b600067ffffffffffffffff821115610a2b57610a2a610965565b5b610a3482610954565b9050602081019050919050565b82818337600083830152505050565b6000610a63610a5e84610a10565b6109c5565b905082815260208101848484011115610a7f57610a7e610a0b565b5b610a8a848285610a41565b509392505050565b600082601f830112610aa757610aa661094f565b5b8135610ab7848260208601610a50565b91505092915050565b6000610ad3610ace846109e0565b6109c5565b90508060208402830185811115610aed57610aec610a06565b5b835b81811015610b3457803567ffffffffffffffff811115610b1257610b1161094f565b5b808601610b1f8982610a92565b85526020850194505050602081019050610aef565b5050509392505050565b600082601f830112610b5357610b5261094f565b5b6014610b60848285610ac0565b91505092915050565b600067ffffffffffffffff821115610b8457610b83610965565b5b602082029050919050565b6000610ba2610b9d84610b69565b6109c5565b90508060208402830185811115610bbc57610bbb610a06565b5b835b81811015610be55780610bd18882610802565b845260208401935050602081019050610bbe565b5050509392505050565b600082601f830112610c0457610c0361094f565b5b6014610c11848285610b8f565b91505092915050565b600067ffffffffffffffff821115610c3557610c34610965565b5b602082029050919050565b610c49816108ef565b8114610c5457600080fd5b50565b600081359050610c6681610c40565b92915050565b6000610c7f610c7a84610c1a565b6109c5565b90508060208402830185811115610c9957610c98610a06565b5b835b81811015610cc25780610cae8882610c57565b845260208401935050602081019050610c9b565b5050509392505050565b600082601f830112610ce157610ce061094f565b5b6014610cee848285610c6c565b91505092915050565b6000806000806107a08587031215610d1257610d116106d2565b5b600085013567ffffffffffffffff811115610d3057610d2f6106d7565b5b610d3c87828801610b3e565b9450506020610d4d87828801610bef565b9350506102a0610d5f87828801610bef565b925050610520610d7187828801610ccc565b91505092959194509250565b600081519050919050565b600082825260208201905092915050565b60005b83811015610db7578082015181840152602081019050610d9c565b83811115610dc6576000848401525b50505050565b6000610dd782610d7d565b610de18185610d88565b9350610df1818560208601610d99565b610dfa81610954565b840191505092915050565b60006020820190508181036000830152610e1f8184610dcc565b905092915050565b6000819050919050565b610e3a81610e27565b8114610e4557600080fd5b50565b600081359050610e5781610e31565b92915050565b600060208284031215610e7357610e726106d2565b5b6000610e8184828501610e48565b91505092915050565b610e93816106fc565b82525050565b6000602082019050610eae6000830184610e8a565b92915050565b600081519050610ec381610c40565b92915050565b600060208284031215610edf57610ede6106d2565b5b6000610eed84828501610eb4565b9150509291505056fea26469706673582212200c99ef4db589c8aa313c360a3d866cc5b3d72b82e671cfd7f3976ea47bc4a30064736f6c63430008090033",
					"opcodes": "PUSH1 0x80 PUSH1 0x40 MSTORE CALLVALUE DUP1 ISZERO PUSH3 0x11 JUMPI PUSH1 0x0 DUP1 REVERT JUMPDEST POP PUSH1 0x40 MLOAD PUSH3 0x102A CODESIZE SUB DUP1 PUSH3 0x102A DUP4 CODECOPY DUP2 DUP2 ADD PUSH1 0x40 MSTORE DUP2 ADD SWAP1 PUSH3 0x37 SWAP2 SWAP1 PUSH3 0xBC JUMP JUMPDEST POP PUSH3 0xEE JUMP JUMPDEST PUSH1 0x0 DUP1 REVERT JUMPDEST PUSH1 0x0 PUSH20 0xFFFFFFFFFFFFFFFFFFFFFFFFFFFFFFFFFFFFFFFF DUP3 AND SWAP1 POP SWAP2 SWAP1 POP JUMP JUMPDEST PUSH1 0x0 PUSH3 0x70 DUP3 PUSH3 0x43 JUMP JUMPDEST SWAP1 POP SWAP2 SWAP1 POP JUMP JUMPDEST PUSH1 0x0 PUSH3 0x84 DUP3 PUSH3 0x63 JUMP JUMPDEST SWAP1 POP SWAP2 SWAP1 POP JUMP JUMPDEST PUSH3 0x96 DUP2 PUSH3 0x77 JUMP JUMPDEST DUP2 EQ PUSH3 0xA2 JUMPI PUSH1 0x0 DUP1 REVERT JUMPDEST POP JUMP JUMPDEST PUSH1 0x0 DUP2 MLOAD SWAP1 POP PUSH3 0xB6 DUP2 PUSH3 0x8B JUMP JUMPDEST SWAP3 SWAP2 POP POP JUMP JUMPDEST PUSH1 0x0 PUSH1 0x20 DUP3 DUP5 SUB SLT ISZERO PUSH3 0xD5 JUMPI PUSH3 0xD4 PUSH3 0x3E JUMP JUMPDEST JUMPDEST PUSH1 0x0 PUSH3 0xE5 DUP5 DUP3 DUP6 ADD PUSH3 0xA5 JUMP JUMPDEST SWAP2 POP POP SWAP3 SWAP2 POP POP JUMP JUMPDEST PUSH2 0xF2C DUP1 PUSH3 0xFE PUSH1 0x0 CODECOPY PUSH1 0x0 RETURN INVALID PUSH1 0x80 PUSH1 0x40 MSTORE PUSH1 0x4 CALLDATASIZE LT PUSH2 0x12E JUMPI PUSH1 0x0 CALLDATALOAD PUSH1 0xE0 SHR DUP1 PUSH4 0x74DB455E GT PUSH2 0xAB JUMPI DUP1 PUSH4 0xDF67F59D GT PUSH2 0x6F JUMPI DUP1 PUSH4 0xDF67F59D EQ PUSH2 0x3BE JUMPI DUP1 PUSH4 0xE2A51E64 EQ PUSH2 0x3FB JUMPI DUP1 PUSH4 0xE7B8EF24 EQ PUSH2 0x412 JUMPI DUP1 PUSH4 0xE9847A75 EQ PUSH2 0x43B JUMPI DUP1 PUSH4 0xF0A47F78 EQ PUSH2 0x478 JUMPI DUP1 PUSH4 0xF4FDBB88 EQ PUSH2 0x4B5 JUMPI PUSH2 0x135 JUMP JUMPDEST DUP1 PUSH4 0x74DB455E EQ PUSH2 0x2FF JUMPI DUP1 PUSH4 0x806DF959 EQ PUSH2 0x316 JUMPI DUP1 PUSH4 0x9201DE55 EQ PUSH2 0x353 JUMPI DUP1 PUSH4 0x9AA99DD6 EQ PUSH2 0x390 JUMPI DUP1 PUSH4 0xDEDE624C EQ PUSH2 0x3A7 JUMPI PUSH2 0x135 JUMP JUMPDEST DUP1 PUSH4 0x39119DCE GT PUSH2 0xF2 JUMPI DUP1 PUSH4 0x39119DCE EQ PUSH2 0x21A JUMPI DUP1 PUSH4 0x4466F62D EQ PUSH2 0x245 JUMPI DUP1 PUSH4 0x469D2A83 EQ PUSH2 0x282 JUMPI DUP1 PUSH4 0x4CB6AD03 EQ PUSH2 0x2BF JUMPI DUP1 PUSH4 0x614933BA EQ PUSH2 0x2D6 JUMPI PUSH2 0x135 JUMP JUMPDEST DUP1 PUSH4 0xB961254 EQ PUSH2 0x137 JUMPI DUP1 PUSH4 0x14555C7A EQ PUSH2 0x174 JUMPI DUP1 PUSH4 0x2236D353 EQ PUSH2 0x19D JUMPI DUP1 PUSH4 0x2E64C500 EQ PUSH2 0x1C6 JUMPI DUP1 PUSH4 0x3842083A EQ PUSH2 0x203 JUMPI PUSH2 0x135 JUMP JUMPDEST CALLDATASIZE PUSH2 0x135 JUMPI STOP JUMPDEST STOP JUMPDEST CALLVALUE DUP1 ISZERO PUSH2 0x143 JUMPI PUSH1 0x0 DUP1 REVERT JUMPDEST POP PUSH2 0x15E PUSH1 0x4 DUP1 CALLDATASIZE SUB DUP2 ADD SWAP1 PUSH2 0x159 SWAP2 SWAP1 PUSH2 0x73A JUMP JUMPDEST PUSH2 0x4F2 JUMP JUMPDEST PUSH1 0x40 MLOAD PUSH2 0x16B SWAP2 SWAP1 PUSH2 0x7C6 JUMP JUMPDEST PUSH1 0x40 MLOAD DUP1 SWAP2 SUB SWAP1 RETURN JUMPDEST CALLVALUE DUP1 ISZERO PUSH2 0x180 JUMPI PUSH1 0x0 DUP1 REVERT JUMPDEST POP PUSH2 0x19B PUSH1 0x4 DUP1 CALLDATASIZE SUB DUP2 ADD SWAP1 PUSH2 0x196 SWAP2 SWAP1 PUSH2 0x817 JUMP JUMPDEST PUSH2 0x525 JUMP JUMPDEST STOP JUMPDEST CALLVALUE DUP1 ISZERO PUSH2 0x1A9 JUMPI PUSH1 0x0 DUP1 REVERT JUMPDEST POP PUSH2 0x1C4 PUSH1 0x4 DUP1 CALLDATASIZE SUB DUP2 ADD SWAP1 PUSH2 0x1BF SWAP2 SWAP1 PUSH2 0x882 JUMP JUMPDEST PUSH2 0x528 JUMP JUMPDEST STOP JUMPDEST CALLVALUE DUP1 ISZERO PUSH2 0x1D2 JUMPI PUSH1 0x0 DUP1 REVERT JUMPDEST POP PUSH2 0x1ED PUSH1 0x4 DUP1 CALLDATASIZE SUB DUP2 ADD SWAP1 PUSH2 0x1E8 SWAP2 SWAP1 PUSH2 0x8AF JUMP JUMPDEST PUSH2 0x52B JUMP JUMPDEST PUSH1 0x40 MLOAD PUSH2 0x1FA SWAP2 SWAP1 PUSH2 0x90A JUMP JUMPDEST PUSH1 0x40 MLOAD DUP1 SWAP2 SUB SWAP1 RETURN JUMPDEST CALLVALUE DUP1 ISZERO PUSH2 0x20F JUMPI PUSH1 0x0 DUP1 REVERT JUMPDEST POP PUSH2 0x218 PUSH2 0x55A JUMP JUMPDEST STOP JUMPDEST CALLVALUE DUP1 ISZERO PUSH2 0x226 JUMPI PUSH1 0x0 DUP1 REVERT JUMPDEST POP PUSH2 0x22F PUSH2 0x55C JUMP JUMPDEST PUSH1 0x40 MLOAD PUSH2 0x23C SWAP2 SWAP1 PUSH2 0x934 JUMP JUMPDEST PUSH1 0x40 MLOAD DUP1 SWAP2 SUB SWAP1 RETURN JUMPDEST CALLVALUE DUP1 ISZERO PUSH2 0x251 JUMPI PUSH1 0x0 DUP1 REVERT JUMPDEST POP PUSH2 0x26C PUSH1 0x4 DUP1 CALLDATASIZE SUB DUP2 ADD SWAP1 PUSH2 0x267 SWAP2 SWAP1 PUSH2 0x73A JUMP JUMPDEST PUSH2 0x562 JUMP JUMPDEST PUSH1 0x40 MLOAD PUSH2 0x279 SWAP2 SWAP1 PUSH2 0x934 JUMP JUMPDEST PUSH1 0x40 MLOAD DUP1 SWAP2 SUB SWAP1 RETURN JUMPDEST CALLVALUE DUP1 ISZERO PUSH2 0x28E JUMPI PUSH1 0x0 DUP1 REVERT JUMPDEST POP PUSH2 0x2A9 PUSH1 0x4 DUP1 CALLDATASIZE SUB DUP2 ADD SWAP1 PUSH2 0x2A4 SWAP2 SWAP1 PUSH2 0x73A JUMP JUMPDEST PUSH2 0x57A JUMP JUMPDEST PUSH1 0x40 MLOAD PUSH2 0x2B6 SWAP2 SWAP1 PUSH2 0x934 JUMP JUMPDEST PUSH1 0x40 MLOAD DUP1 SWAP2 SUB SWAP1 RETURN JUMPDEST CALLVALUE DUP1 ISZERO PUSH2 0x2CB JUMPI PUSH1 0x0 DUP1 REVERT JUMPDEST POP PUSH2 0x2D4 PUSH2 0x581 JUMP JUMPDEST STOP JUMPDEST CALLVALUE DUP1 ISZERO PUSH2 0x2E2 JUMPI PUSH1 0x0 DUP1 REVERT JUMPDEST POP PUSH2 0x2FD PUSH1 0x4 DUP1 CALLDATASIZE SUB DUP2 ADD SWAP1 PUSH2 0x2F8 SWAP2 SWAP1 PUSH2 0xCF7 JUMP JUMPDEST PUSH2 0x583 JUMP JUMPDEST STOP JUMPDEST CALLVALUE DUP1 ISZERO PUSH2 0x30B JUMPI PUSH1 0x0 DUP1 REVERT JUMPDEST POP PUSH2 0x314 PUSH2 0x63D JUMP JUMPDEST STOP JUMPDEST CALLVALUE DUP1 ISZERO PUSH2 0x322 JUMPI PUSH1 0x0 DUP1 REVERT JUMPDEST POP PUSH2 0x33D PUSH1 0x4 DUP1 CALLDATASIZE SUB DUP2 ADD SWAP1 PUSH2 0x338 SWAP2 SWAP1 PUSH2 0x73A JUMP JUMPDEST PUSH2 0x63F JUMP JUMPDEST PUSH1 0x40 MLOAD PUSH2 0x34A SWAP2 SWAP1 PUSH2 0xE05 JUMP JUMPDEST PUSH1 0x40 MLOAD DUP1 SWAP2 SUB SWAP1 RETURN JUMPDEST CALLVALUE DUP1 ISZERO PUSH2 0x35F JUMPI PUSH1 0x0 DUP1 REVERT JUMPDEST POP PUSH2 0x37A PUSH1 0x4 DUP1 CALLDATASIZE SUB DUP2 ADD SWAP1 PUSH2 0x375 SWAP2 SWAP1 PUSH2 0xE5D JUMP JUMPDEST PUSH2 0x658 JUMP JUMPDEST PUSH1 0x40 MLOAD PUSH2 0x387 SWAP2 SWAP1 PUSH2 0xE05 JUMP JUMPDEST PUSH1 0x40 MLOAD DUP1 SWAP2 SUB SWAP1 RETURN JUMPDEST CALLVALUE DUP1 ISZERO PUSH2 0x39C JUMPI PUSH1 0x0 DUP1 REVERT JUMPDEST POP PUSH2 0x3A5 PUSH2 0x671 JUMP JUMPDEST STOP JUMPDEST CALLVALUE DUP1 ISZERO PUSH2 0x3B3 JUMPI PUSH1 0x0 DUP1 REVERT JUMPDEST POP PUSH2 0x3BC PUSH2 0x673 JUMP JUMPDEST STOP JUMPDEST CALLVALUE DUP1 ISZERO PUSH2 0x3CA JUMPI PUSH1 0x0 DUP1 REVERT JUMPDEST POP PUSH2 0x3E5 PUSH1 0x4 DUP1 CALLDATASIZE SUB DUP2 ADD SWAP1 PUSH2 0x3E0 SWAP2 SWAP1 PUSH2 0x73A JUMP JUMPDEST PUSH2 0x675 JUMP JUMPDEST PUSH1 0x40 MLOAD PUSH2 0x3F2 SWAP2 SWAP1 PUSH2 0x934 JUMP JUMPDEST PUSH1 0x40 MLOAD DUP1 SWAP2 SUB SWAP1 RETURN JUMPDEST CALLVALUE DUP1 ISZERO PUSH2 0x407 JUMPI PUSH1 0x0 DUP1 REVERT JUMPDEST POP PUSH2 0x410 PUSH2 0x67C JUMP JUMPDEST STOP JUMPDEST CALLVALUE DUP1 ISZERO PUSH2 0x41E JUMPI PUSH1 0x0 DUP1 REVERT JUMPDEST POP PUSH2 0x439 PUSH1 0x4 DUP1 CALLDATASIZE SUB DUP2 ADD SWAP1 PUSH2 0x434 SWAP2 SWAP1 PUSH2 0x817 JUMP JUMPDEST PUSH2 0x67E JUMP JUMPDEST STOP JUMPDEST CALLVALUE DUP1 ISZERO PUSH2 0x447 JUMPI PUSH1 0x0 DUP1 REVERT JUMPDEST POP PUSH2 0x462 PUSH1 0x4 DUP1 CALLDATASIZE SUB DUP2 ADD SWAP1 PUSH2 0x45D SWAP2 SWAP1 PUSH2 0x73A JUMP JUMPDEST PUSH2 0x681 JUMP JUMPDEST PUSH1 0x40 MLOAD PUSH2 0x46F SWAP2 SWAP1 PUSH2 0x90A JUMP JUMPDEST PUSH1 0x40 MLOAD DUP1 SWAP2 SUB SWAP1 RETURN JUMPDEST CALLVALUE DUP1 ISZERO PUSH2 0x484 JUMPI PUSH1 0x0 DUP1 REVERT JUMPDEST POP PUSH2 0x49F PUSH1 0x4 DUP1 CALLDATASIZE SUB DUP2 ADD SWAP1 PUSH2 0x49A SWAP2 SWAP1 PUSH2 0x73A JUMP JUMPDEST PUSH2 0x688 JUMP JUMPDEST PUSH1 0x40 MLOAD PUSH2 0x4AC SWAP2 SWAP1 PUSH2 0x90A JUMP JUMPDEST PUSH1 0x40 MLOAD DUP1 SWAP2 SUB SWAP1 RETURN JUMPDEST CALLVALUE DUP1 ISZERO PUSH2 0x4C1 JUMPI PUSH1 0x0 DUP1 REVERT JUMPDEST POP PUSH2 0x4DC PUSH1 0x4 DUP1 CALLDATASIZE SUB DUP2 ADD SWAP1 PUSH2 0x4D7 SWAP2 SWAP1 PUSH2 0x73A JUMP JUMPDEST PUSH2 0x6A8 JUMP JUMPDEST PUSH1 0x40 MLOAD PUSH2 0x4E9 SWAP2 SWAP1 PUSH2 0x90A JUMP JUMPDEST PUSH1 0x40 MLOAD DUP1 SWAP2 SUB SWAP1 RETURN JUMPDEST PUSH1 0x3 PUSH1 0x20 MSTORE DUP1 PUSH1 0x0 MSTORE PUSH1 0x40 PUSH1 0x0 KECCAK256 PUSH1 0x0 SWAP2 POP SLOAD SWAP1 PUSH2 0x100 EXP SWAP1 DIV PUSH20 0xFFFFFFFFFFFFFFFFFFFFFFFFFFFFFFFFFFFFFFFF AND DUP2 JUMP JUMPDEST POP JUMP JUMPDEST POP JUMP JUMPDEST PUSH1 0x2 PUSH1 0x20 MSTORE DUP2 PUSH1 0x0 MSTORE PUSH1 0x40 PUSH1 0x0 KECCAK256 PUSH1 0x20 MSTORE DUP1 PUSH1 0x0 MSTORE PUSH1 0x40 PUSH1 0x0 KECCAK256 PUSH1 0x0 SWAP2 POP SWAP2 POP SWAP1 SLOAD SWAP1 PUSH2 0x100 EXP SWAP1 DIV PUSH1 0xFF AND DUP2 JUMP JUMPDEST JUMP JUMPDEST PUSH1 0x6 SLOAD DUP2 JUMP JUMPDEST PUSH1 0x5 PUSH1 0x20 MSTORE DUP1 PUSH1 0x0 MSTORE PUSH1 0x40 PUSH1 0x0 KECCAK256 PUSH1 0x0 SWAP2 POP SWAP1 POP SLOAD DUP2 JUMP JUMPDEST PUSH1 0x0 SWAP2 SWAP1 POP JUMP JUMPDEST JUMP JUMPDEST PUSH1 0x1 PUSH1 0x0 SWAP1 SLOAD SWAP1 PUSH2 0x100 EXP SWAP1 DIV PUSH20 0xFFFFFFFFFFFFFFFFFFFFFFFFFFFFFFFFFFFFFFFF AND PUSH20 0xFFFFFFFFFFFFFFFFFFFFFFFFFFFFFFFFFFFFFFFF AND PUSH4 0xF0A47F78 CALLER PUSH1 0x40 MLOAD DUP3 PUSH4 0xFFFFFFFF AND PUSH1 0xE0 SHL DUP2 MSTORE PUSH1 0x4 ADD PUSH2 0x5DE SWAP2 SWAP1 PUSH2 0xE99 JUMP JUMPDEST PUSH1 0x20 PUSH1 0x40 MLOAD DUP1 DUP4 SUB DUP2 DUP7 DUP1 EXTCODESIZE ISZERO DUP1 ISZERO PUSH2 0x5F6 JUMPI PUSH1 0x0 DUP1 REVERT JUMPDEST POP GAS STATICCALL ISZERO DUP1 ISZERO PUSH2 0x60A JUMPI RETURNDATASIZE PUSH1 0x0 DUP1 RETURNDATACOPY RETURNDATASIZE PUSH1 0x0 REVERT JUMPDEST POP POP POP POP PUSH1 0x40 MLOAD RETURNDATASIZE PUSH1 0x1F NOT PUSH1 0x1F DUP3 ADD AND DUP3 ADD DUP1 PUSH1 0x40 MSTORE POP DUP2 ADD SWAP1 PUSH2 0x62E SWAP2 SWAP1 PUSH2 0xEC9 JUMP JUMPDEST PUSH2 0x637 JUMPI PUSH1 0x0 DUP1 REVERT JUMPDEST POP POP POP POP JUMP JUMPDEST JUMP JUMPDEST PUSH1 0x60 PUSH1 0x40 MLOAD DUP1 PUSH1 0x20 ADD PUSH1 0x40 MSTORE DUP1 PUSH1 0x0 DUP2 MSTORE POP SWAP1 POP SWAP2 SWAP1 POP JUMP JUMPDEST PUSH1 0x60 PUSH1 0x40 MLOAD DUP1 PUSH1 0x20 ADD PUSH1 0x40 MSTORE DUP1 PUSH1 0x0 DUP2 MSTORE POP SWAP1 POP SWAP2 SWAP1 POP JUMP JUMPDEST JUMP JUMPDEST JUMP JUMPDEST PUSH1 0x0 SWAP2 SWAP1 POP JUMP JUMPDEST JUMP JUMPDEST POP JUMP JUMPDEST PUSH1 0x0 SWAP2 SWAP1 POP JUMP JUMPDEST PUSH1 0x0 PUSH1 0x20 MSTORE DUP1 PUSH1 0x0 MSTORE PUSH1 0x40 PUSH1 0x0 KECCAK256 PUSH1 0x0 SWAP2 POP SLOAD SWAP1 PUSH2 0x100 EXP SWAP1 DIV PUSH1 0xFF AND DUP2 JUMP JUMPDEST PUSH1 0x4 PUSH1 0x20 MSTORE DUP1 PUSH1 0x0 MSTORE PUSH1 0x40 PUSH1 0x0 KECCAK256 PUSH1 0x0 SWAP2 POP SLOAD SWAP1 PUSH2 0x100 EXP SWAP1 DIV PUSH1 0xFF AND DUP2 JUMP JUMPDEST PUSH1 0x0 PUSH1 0x40 MLOAD SWAP1 POP SWAP1 JUMP JUMPDEST PUSH1 0x0 DUP1 REVERT JUMPDEST PUSH1 0x0 DUP1 REVERT JUMPDEST PUSH1 0x0 PUSH20 0xFFFFFFFFFFFFFFFFFFFFFFFFFFFFFFFFFFFFFFFF DUP3 AND SWAP1 POP SWAP2 SWAP1 POP JUMP JUMPDEST PUSH1 0x0 PUSH2 0x707 DUP3 PUSH2 0x6DC JUMP JUMPDEST SWAP1 POP SWAP2 SWAP1 POP JUMP JUMPDEST PUSH2 0x717 DUP2 PUSH2 0x6FC JUMP JUMPDEST DUP2 EQ PUSH2 0x722 JUMPI PUSH1 0x0 DUP1 REVERT JUMPDEST POP JUMP JUMPDEST PUSH1 0x0 DUP2 CALLDATALOAD SWAP1 POP PUSH2 0x734 DUP2 PUSH2 0x70E JUMP JUMPDEST SWAP3 SWAP2 POP POP JUMP JUMPDEST PUSH1 0x0 PUSH1 0x20 DUP3 DUP5 SUB SLT ISZERO PUSH2 0x750 JUMPI PUSH2 0x74F PUSH2 0x6D2 JUMP JUMPDEST JUMPDEST PUSH1 0x0 PUSH2 0x75E DUP5 DUP3 DUP6 ADD PUSH2 0x725 JUMP JUMPDEST SWAP2 POP POP SWAP3 SWAP2 POP POP JUMP JUMPDEST PUSH1 0x0 DUP2 SWAP1 POP SWAP2 SWAP1 POP JUMP JUMPDEST PUSH1 0x0 PUSH2 0x78C PUSH2 0x787 PUSH2 0x782 DUP5 PUSH2 0x6DC JUMP JUMPDEST PUSH2 0x767 JUMP JUMPDEST PUSH2 0x6DC JUMP JUMPDEST SWAP1 POP SWAP2 SWAP1 POP JUMP JUMPDEST PUSH1 0x0 PUSH2 0x79E DUP3 PUSH2 0x771 JUMP JUMPDEST SWAP1 POP SWAP2 SWAP1 POP JUMP JUMPDEST PUSH1 0x0 PUSH2 0x7B0 DUP3 PUSH2 0x793 JUMP JUMPDEST SWAP1 POP SWAP2 SWAP1 POP JUMP JUMPDEST PUSH2 0x7C0 DUP2 PUSH2 0x7A5 JUMP JUMPDEST DUP3 MSTORE POP POP JUMP JUMPDEST PUSH1 0x0 PUSH1 0x20 DUP3 ADD SWAP1 POP PUSH2 0x7DB PUSH1 0x0 DUP4 ADD DUP5 PUSH2 0x7B7 JUMP JUMPDEST SWAP3 SWAP2 POP POP JUMP JUMPDEST PUSH1 0x0 DUP2 SWAP1 POP SWAP2 SWAP1 POP JUMP JUMPDEST PUSH2 0x7F4 DUP2 PUSH2 0x7E1 JUMP JUMPDEST DUP2 EQ PUSH2 0x7FF JUMPI PUSH1 0x0 DUP1 REVERT JUMPDEST POP JUMP JUMPDEST PUSH1 0x0 DUP2 CALLDATALOAD SWAP1 POP PUSH2 0x811 DUP2 PUSH2 0x7EB JUMP JUMPDEST SWAP3 SWAP2 POP POP JUMP JUMPDEST PUSH1 0x0 PUSH1 0x20 DUP3 DUP5 SUB SLT ISZERO PUSH2 0x82D JUMPI PUSH2 0x82C PUSH2 0x6D2 JUMP JUMPDEST JUMPDEST PUSH1 0x0 PUSH2 0x83B DUP5 DUP3 DUP6 ADD PUSH2 0x802 JUMP JUMPDEST SWAP2 POP POP SWAP3 SWAP2 POP POP JUMP JUMPDEST PUSH1 0x0 PUSH2 0x84F DUP3 PUSH2 0x6FC JUMP JUMPDEST SWAP1 POP SWAP2 SWAP1 POP JUMP JUMPDEST PUSH2 0x85F DUP2 PUSH2 0x844 JUMP JUMPDEST DUP2 EQ PUSH2 0x86A JUMPI PUSH1 0x0 DUP1 REVERT JUMPDEST POP JUMP JUMPDEST PUSH1 0x0 DUP2 CALLDATALOAD SWAP1 POP PUSH2 0x87C DUP2 PUSH2 0x856 JUMP JUMPDEST SWAP3 SWAP2 POP POP JUMP JUMPDEST PUSH1 0x0 PUSH1 0x20 DUP3 DUP5 SUB SLT ISZERO PUSH2 0x898 JUMPI PUSH2 0x897 PUSH2 0x6D2 JUMP JUMPDEST JUMPDEST PUSH1 0x0 PUSH2 0x8A6 DUP5 DUP3 DUP6 ADD PUSH2 0x86D JUMP JUMPDEST SWAP2 POP POP SWAP3 SWAP2 POP POP JUMP JUMPDEST PUSH1 0x0 DUP1 PUSH1 0x40 DUP4 DUP6 SUB SLT ISZERO PUSH2 0x8C6 JUMPI PUSH2 0x8C5 PUSH2 0x6D2 JUMP JUMPDEST JUMPDEST PUSH1 0x0 PUSH2 0x8D4 DUP6 DUP3 DUP7 ADD PUSH2 0x725 JUMP JUMPDEST SWAP3 POP POP PUSH1 0x20 PUSH2 0x8E5 DUP6 DUP3 DUP7 ADD PUSH2 0x802 JUMP JUMPDEST SWAP2 POP POP SWAP3 POP SWAP3 SWAP1 POP JUMP JUMPDEST PUSH1 0x0 DUP2 ISZERO ISZERO SWAP1 POP SWAP2 SWAP1 POP JUMP JUMPDEST PUSH2 0x904 DUP2 PUSH2 0x8EF JUMP JUMPDEST DUP3 MSTORE POP POP JUMP JUMPDEST PUSH1 0x0 PUSH1 0x20 DUP3 ADD SWAP1 POP PUSH2 0x91F PUSH1 0x0 DUP4 ADD DUP5 PUSH2 0x8FB JUMP JUMPDEST SWAP3 SWAP2 POP POP JUMP JUMPDEST PUSH2 0x92E DUP2 PUSH2 0x7E1 JUMP JUMPDEST DUP3 MSTORE POP POP JUMP JUMPDEST PUSH1 0x0 PUSH1 0x20 DUP3 ADD SWAP1 POP PUSH2 0x949 PUSH1 0x0 DUP4 ADD DUP5 PUSH2 0x925 JUMP JUMPDEST SWAP3 SWAP2 POP POP JUMP JUMPDEST PUSH1 0x0 DUP1 REVERT JUMPDEST PUSH1 0x0 PUSH1 0x1F NOT PUSH1 0x1F DUP4 ADD AND SWAP1 POP SWAP2 SWAP1 POP JUMP JUMPDEST PUSH32 0x4E487B7100000000000000000000000000000000000000000000000000000000 PUSH1 0x0 MSTORE PUSH1 0x41 PUSH1 0x4 MSTORE PUSH1 0x24 PUSH1 0x0 REVERT JUMPDEST PUSH2 0x99D DUP3 PUSH2 0x954 JUMP JUMPDEST DUP2 ADD DUP2 DUP2 LT PUSH8 0xFFFFFFFFFFFFFFFF DUP3 GT OR ISZERO PUSH2 0x9BC JUMPI PUSH2 0x9BB PUSH2 0x965 JUMP JUMPDEST JUMPDEST DUP1 PUSH1 0x40 MSTORE POP POP POP JUMP JUMPDEST PUSH1 0x0 PUSH2 0x9CF PUSH2 0x6C8 JUMP JUMPDEST SWAP1 POP PUSH2 0x9DB DUP3 DUP3 PUSH2 0x994 JUMP JUMPDEST SWAP2 SWAP1 POP JUMP JUMPDEST PUSH1 0x0 PUSH8 0xFFFFFFFFFFFFFFFF DUP3 GT ISZERO PUSH2 0x9FB JUMPI PUSH2 0x9FA PUSH2 0x965 JUMP JUMPDEST JUMPDEST PUSH1 0x20 DUP3 MUL SWAP1 POP SWAP2 SWAP1 POP JUMP JUMPDEST PUSH1 0x0 DUP1 REVERT JUMPDEST PUSH1 0x0 DUP1 REVERT JUMPDEST PUSH1 0x0 PUSH8 0xFFFFFFFFFFFFFFFF DUP3 GT ISZERO PUSH2 0xA2B JUMPI PUSH2 0xA2A PUSH2 0x965 JUMP JUMPDEST JUMPDEST PUSH2 0xA34 DUP3 PUSH2 0x954 JUMP JUMPDEST SWAP1 POP PUSH1 0x20 DUP2 ADD SWAP1 POP SWAP2 SWAP1 POP JUMP JUMPDEST DUP3 DUP2 DUP4 CALLDATACOPY PUSH1 0x0 DUP4 DUP4 ADD MSTORE POP POP POP JUMP JUMPDEST PUSH1 0x0 PUSH2 0xA63 PUSH2 0xA5E DUP5 PUSH2 0xA10 JUMP JUMPDEST PUSH2 0x9C5 JUMP JUMPDEST SWAP1 POP DUP3 DUP2 MSTORE PUSH1 0x20 DUP2 ADD DUP5 DUP5 DUP5 ADD GT ISZERO PUSH2 0xA7F JUMPI PUSH2 0xA7E PUSH2 0xA0B JUMP JUMPDEST JUMPDEST PUSH2 0xA8A DUP5 DUP3 DUP6 PUSH2 0xA41 JUMP JUMPDEST POP SWAP4 SWAP3 POP POP POP JUMP JUMPDEST PUSH1 0x0 DUP3 PUSH1 0x1F DUP4 ADD SLT PUSH2 0xAA7 JUMPI PUSH2 0xAA6 PUSH2 0x94F JUMP JUMPDEST JUMPDEST DUP2 CALLDATALOAD PUSH2 0xAB7 DUP5 DUP3 PUSH1 0x20 DUP7 ADD PUSH2 0xA50 JUMP JUMPDEST SWAP2 POP POP SWAP3 SWAP2 POP POP JUMP JUMPDEST PUSH1 0x0 PUSH2 0xAD3 PUSH2 0xACE DUP5 PUSH2 0x9E0 JUMP JUMPDEST PUSH2 0x9C5 JUMP JUMPDEST SWAP1 POP DUP1 PUSH1 0x20 DUP5 MUL DUP4 ADD DUP6 DUP2 GT ISZERO PUSH2 0xAED JUMPI PUSH2 0xAEC PUSH2 0xA06 JUMP JUMPDEST JUMPDEST DUP4 JUMPDEST DUP2 DUP2 LT ISZERO PUSH2 0xB34 JUMPI DUP1 CALLDATALOAD PUSH8 0xFFFFFFFFFFFFFFFF DUP2 GT ISZERO PUSH2 0xB12 JUMPI PUSH2 0xB11 PUSH2 0x94F JUMP JUMPDEST JUMPDEST DUP1 DUP7 ADD PUSH2 0xB1F DUP10 DUP3 PUSH2 0xA92 JUMP JUMPDEST DUP6 MSTORE PUSH1 0x20 DUP6 ADD SWAP5 POP POP POP PUSH1 0x20 DUP2 ADD SWAP1 POP PUSH2 0xAEF JUMP JUMPDEST POP POP POP SWAP4 SWAP3 POP POP POP JUMP JUMPDEST PUSH1 0x0 DUP3 PUSH1 0x1F DUP4 ADD SLT PUSH2 0xB53 JUMPI PUSH2 0xB52 PUSH2 0x94F JUMP JUMPDEST JUMPDEST PUSH1 0x14 PUSH2 0xB60 DUP5 DUP3 DUP6 PUSH2 0xAC0 JUMP JUMPDEST SWAP2 POP POP SWAP3 SWAP2 POP POP JUMP JUMPDEST PUSH1 0x0 PUSH8 0xFFFFFFFFFFFFFFFF DUP3 GT ISZERO PUSH2 0xB84 JUMPI PUSH2 0xB83 PUSH2 0x965 JUMP JUMPDEST JUMPDEST PUSH1 0x20 DUP3 MUL SWAP1 POP SWAP2 SWAP1 POP JUMP JUMPDEST PUSH1 0x0 PUSH2 0xBA2 PUSH2 0xB9D DUP5 PUSH2 0xB69 JUMP JUMPDEST PUSH2 0x9C5 JUMP JUMPDEST SWAP1 POP DUP1 PUSH1 0x20 DUP5 MUL DUP4 ADD DUP6 DUP2 GT ISZERO PUSH2 0xBBC JUMPI PUSH2 0xBBB PUSH2 0xA06 JUMP JUMPDEST JUMPDEST DUP4 JUMPDEST DUP2 DUP2 LT ISZERO PUSH2 0xBE5 JUMPI DUP1 PUSH2 0xBD1 DUP9 DUP3 PUSH2 0x802 JUMP JUMPDEST DUP5 MSTORE PUSH1 0x20 DUP5 ADD SWAP4 POP POP PUSH1 0x20 DUP2 ADD SWAP1 POP PUSH2 0xBBE JUMP JUMPDEST POP POP POP SWAP4 SWAP3 POP POP POP JUMP JUMPDEST PUSH1 0x0 DUP3 PUSH1 0x1F DUP4 ADD SLT PUSH2 0xC04 JUMPI PUSH2 0xC03 PUSH2 0x94F JUMP JUMPDEST JUMPDEST PUSH1 0x14 PUSH2 0xC11 DUP5 DUP3 DUP6 PUSH2 0xB8F JUMP JUMPDEST SWAP2 POP POP SWAP3 SWAP2 POP POP JUMP JUMPDEST PUSH1 0x0 PUSH8 0xFFFFFFFFFFFFFFFF DUP3 GT ISZERO PUSH2 0xC35 JUMPI PUSH2 0xC34 PUSH2 0x965 JUMP JUMPDEST JUMPDEST PUSH1 0x20 DUP3 MUL SWAP1 POP SWAP2 SWAP1 POP JUMP JUMPDEST PUSH2 0xC49 DUP2 PUSH2 0x8EF JUMP JUMPDEST DUP2 EQ PUSH2 0xC54 JUMPI PUSH1 0x0 DUP1 REVERT JUMPDEST POP JUMP JUMPDEST PUSH1 0x0 DUP2 CALLDATALOAD SWAP1 POP PUSH2 0xC66 DUP2 PUSH2 0xC40 JUMP JUMPDEST SWAP3 SWAP2 POP POP JUMP JUMPDEST PUSH1 0x0 PUSH2 0xC7F PUSH2 0xC7A DUP5 PUSH2 0xC1A JUMP JUMPDEST PUSH2 0x9C5 JUMP JUMPDEST SWAP1 POP DUP1 PUSH1 0x20 DUP5 MUL DUP4 ADD DUP6 DUP2 GT ISZERO PUSH2 0xC99 JUMPI PUSH2 0xC98 PUSH2 0xA06 JUMP JUMPDEST JUMPDEST DUP4 JUMPDEST DUP2 DUP2 LT ISZERO PUSH2 0xCC2 JUMPI DUP1 PUSH2 0xCAE DUP9 DUP3 PUSH2 0xC57 JUMP JUMPDEST DUP5 MSTORE PUSH1 0x20 DUP5 ADD SWAP4 POP POP PUSH1 0x20 DUP2 ADD SWAP1 POP PUSH2 0xC9B JUMP JUMPDEST POP POP POP SWAP4 SWAP3 POP POP POP JUMP JUMPDEST PUSH1 0x0 DUP3 PUSH1 0x1F DUP4 ADD SLT PUSH2 0xCE1 JUMPI PUSH2 0xCE0 PUSH2 0x94F JUMP JUMPDEST JUMPDEST PUSH1 0x14 PUSH2 0xCEE DUP5 DUP3 DUP6 PUSH2 0xC6C JUMP JUMPDEST SWAP2 POP POP SWAP3 SWAP2 POP POP JUMP JUMPDEST PUSH1 0x0 DUP1 PUSH1 0x0 DUP1 PUSH2 0x7A0 DUP6 DUP8 SUB SLT ISZERO PUSH2 0xD12 JUMPI PUSH2 0xD11 PUSH2 0x6D2 JUMP JUMPDEST JUMPDEST PUSH1 0x0 DUP6 ADD CALLDATALOAD PUSH8 0xFFFFFFFFFFFFFFFF DUP2 GT ISZERO PUSH2 0xD30 JUMPI PUSH2 0xD2F PUSH2 0x6D7 JUMP JUMPDEST JUMPDEST PUSH2 0xD3C DUP8 DUP3 DUP9 ADD PUSH2 0xB3E JUMP JUMPDEST SWAP5 POP POP PUSH1 0x20 PUSH2 0xD4D DUP8 DUP3 DUP9 ADD PUSH2 0xBEF JUMP JUMPDEST SWAP4 POP POP PUSH2 0x2A0 PUSH2 0xD5F DUP8 DUP3 DUP9 ADD PUSH2 0xBEF JUMP JUMPDEST SWAP3 POP POP PUSH2 0x520 PUSH2 0xD71 DUP8 DUP3 DUP9 ADD PUSH2 0xCCC JUMP JUMPDEST SWAP2 POP POP SWAP3 SWAP6 SWAP2 SWAP5 POP SWAP3 POP JUMP JUMPDEST PUSH1 0x0 DUP2 MLOAD SWAP1 POP SWAP2 SWAP1 POP JUMP JUMPDEST PUSH1 0x0 DUP3 DUP3 MSTORE PUSH1 0x20 DUP3 ADD SWAP1 POP SWAP3 SWAP2 POP POP JUMP JUMPDEST PUSH1 0x0 JUMPDEST DUP4 DUP2 LT ISZERO PUSH2 0xDB7 JUMPI DUP1 DUP3 ADD MLOAD DUP2 DUP5 ADD MSTORE PUSH1 0x20 DUP2 ADD SWAP1 POP PUSH2 0xD9C JUMP JUMPDEST DUP4 DUP2 GT ISZERO PUSH2 0xDC6 JUMPI PUSH1 0x0 DUP5 DUP5 ADD MSTORE JUMPDEST POP POP POP POP JUMP JUMPDEST PUSH1 0x0 PUSH2 0xDD7 DUP3 PUSH2 0xD7D JUMP JUMPDEST PUSH2 0xDE1 DUP2 DUP6 PUSH2 0xD88 JUMP JUMPDEST SWAP4 POP PUSH2 0xDF1 DUP2 DUP6 PUSH1 0x20 DUP7 ADD PUSH2 0xD99 JUMP JUMPDEST PUSH2 0xDFA DUP2 PUSH2 0x954 JUMP JUMPDEST DUP5 ADD SWAP2 POP POP SWAP3 SWAP2 POP POP JUMP JUMPDEST PUSH1 0x0 PUSH1 0x20 DUP3 ADD SWAP1 POP DUP2 DUP2 SUB PUSH1 0x0 DUP4 ADD MSTORE PUSH2 0xE1F DUP2 DUP5 PUSH2 0xDCC JUMP JUMPDEST SWAP1 POP SWAP3 SWAP2 POP POP JUMP JUMPDEST PUSH1 0x0 DUP2 SWAP1 POP SWAP2 SWAP1 POP JUMP JUMPDEST PUSH2 0xE3A DUP2 PUSH2 0xE27 JUMP JUMPDEST DUP2 EQ PUSH2 0xE45 JUMPI PUSH1 0x0 DUP1 REVERT JUMPDEST POP JUMP JUMPDEST PUSH1 0x0 DUP2 CALLDATALOAD SWAP1 POP PUSH2 0xE57 DUP2 PUSH2 0xE31 JUMP JUMPDEST SWAP3 SWAP2 POP POP JUMP JUMPDEST PUSH1 0x0 PUSH1 0x20 DUP3 DUP5 SUB SLT ISZERO PUSH2 0xE73 JUMPI PUSH2 0xE72 PUSH2 0x6D2 JUMP JUMPDEST JUMPDEST PUSH1 0x0 PUSH2 0xE81 DUP5 DUP3 DUP6 ADD PUSH2 0xE48 JUMP JUMPDEST SWAP2 POP POP SWAP3 SWAP2 POP POP JUMP JUMPDEST PUSH2 0xE93 DUP2 PUSH2 0x6FC JUMP JUMPDEST DUP3 MSTORE POP POP JUMP JUMPDEST PUSH1 0x0 PUSH1 0x20 DUP3 ADD SWAP1 POP PUSH2 0xEAE PUSH1 0x0 DUP4 ADD DUP5 PUSH2 0xE8A JUMP JUMPDEST SWAP3 SWAP2 POP POP JUMP JUMPDEST PUSH1 0x0 DUP2 MLOAD SWAP1 POP PUSH2 0xEC3 DUP2 PUSH2 0xC40 JUMP JUMPDEST SWAP3 SWAP2 POP POP JUMP JUMPDEST PUSH1 0x0 PUSH1 0x20 DUP3 DUP5 SUB SLT ISZERO PUSH2 0xEDF JUMPI PUSH2 0xEDE PUSH2 0x6D2 JUMP JUMPDEST JUMPDEST PUSH1 0x0 PUSH2 0xEED DUP5 DUP3 DUP6 ADD PUSH2 0xEB4 JUMP JUMPDEST SWAP2 POP POP SWAP3 SWAP2 POP POP JUMP INVALID LOG2 PUSH5 0x6970667358 0x22 SLT KECCAK256 0xC SWAP10 0xEF 0x4D 0xB5 DUP10 0xC8 0xAA BALANCE EXTCODECOPY CALLDATASIZE EXP RETURNDATASIZE DUP7 PUSH13 0xC5B3D72B82E671CFD7F3976EA4 PUSH28 0xC4A30064736F6C634300080900330000000000000000000000000000 "
				},
				"gasEstimates": {
					"creation": {
						"codeDepositCost": "776800",
						"executionCost": "infinite",
						"totalCost": "infinite"
					},
					"external": {
						"": "219",
						"assignedRank(address)": "2859",
						"bytes32ToString(bytes32)": "981",
						"ex1_testERC721()": "255",
						"ex2a_getAnimalToCreateAttributes()": "233",
						"ex2b_testDeclaredAnimal(uint256)": "452",
						"ex3_testRegisterBreeder()": "256",
						"ex4_testDeclareAnimal()": "167",
						"ex5_declareDeadAnimal()": "233",
						"ex6a_auctionAnimal_offer()": "188",
						"ex6b_auctionAnimal_buy(uint256)": "472",
						"exerciceProgression(address,uint256)": "3177",
						"hasBeenPaired(address)": "2977",
						"nextValueStoreRank()": "2452",
						"readLegs(address)": "710",
						"readName(address)": "1008",
						"readSex(address)": "665",
						"readWings(address)": "737",
						"setRandomValuesStore(string[20],uint256[20],uint256[20],bool[20])": "infinite",
						"studentExerciceSolution(address)": "infinite",
						"submitExercice(address)": "566",
						"teachers(address)": "2955"
					},
					"internal": {
						"_compareStrings(string memory,string memory)": "infinite"
					}
				},
				"methodIdentifiers": {
					"assignedRank(address)": "4466f62d",
					"bytes32ToString(bytes32)": "9201de55",
					"ex1_testERC721()": "dede624c",
					"ex2a_getAnimalToCreateAttributes()": "9aa99dd6",
					"ex2b_testDeclaredAnimal(uint256)": "14555c7a",
					"ex3_testRegisterBreeder()": "3842083a",
					"ex4_testDeclareAnimal()": "74db455e",
					"ex5_declareDeadAnimal()": "4cb6ad03",
					"ex6a_auctionAnimal_offer()": "e2a51e64",
					"ex6b_auctionAnimal_buy(uint256)": "e7b8ef24",
					"exerciceProgression(address,uint256)": "2e64c500",
					"hasBeenPaired(address)": "f4fdbb88",
					"nextValueStoreRank()": "39119dce",
					"readLegs(address)": "469d2a83",
					"readName(address)": "806df959",
					"readSex(address)": "df67f59d",
					"readWings(address)": "e9847a75",
					"setRandomValuesStore(string[20],uint256[20],uint256[20],bool[20])": "614933ba",
					"studentExerciceSolution(address)": "0b961254",
					"submitExercice(address)": "2236d353",
					"teachers(address)": "f0a47f78"
				}
			},
			"storageLayout": {
				"storage": [
					{
						"astId": 936,
						"contract": "contracts/Evaluator.sol:Evaluator",
						"label": "teachers",
						"offset": 0,
						"slot": "0",
						"type": "t_mapping(t_address,t_bool)"
					},
					{
						"astId": 939,
						"contract": "contracts/Evaluator.sol:Evaluator",
						"label": "TDERC20",
						"offset": 0,
						"slot": "1",
						"type": "t_contract(ERC20TD)927"
					},
					{
						"astId": 945,
						"contract": "contracts/Evaluator.sol:Evaluator",
						"label": "exerciceProgression",
						"offset": 0,
						"slot": "2",
						"type": "t_mapping(t_address,t_mapping(t_uint256,t_bool))"
					},
					{
						"astId": 950,
						"contract": "contracts/Evaluator.sol:Evaluator",
						"label": "studentExerciceSolution",
						"offset": 0,
						"slot": "3",
						"type": "t_mapping(t_address,t_contract(IExerciceSolution)1277)"
					},
					{
						"astId": 954,
						"contract": "contracts/Evaluator.sol:Evaluator",
						"label": "hasBeenPaired",
						"offset": 0,
						"slot": "4",
						"type": "t_mapping(t_address,t_bool)"
					},
					{
						"astId": 958,
						"contract": "contracts/Evaluator.sol:Evaluator",
						"label": "assignedRank",
						"offset": 0,
						"slot": "5",
						"type": "t_mapping(t_address,t_uint256)"
					},
					{
						"astId": 960,
						"contract": "contracts/Evaluator.sol:Evaluator",
						"label": "nextValueStoreRank",
						"offset": 0,
						"slot": "6",
						"type": "t_uint256"
					}
				],
				"types": {
					"t_address": {
						"encoding": "inplace",
						"label": "address",
						"numberOfBytes": "20"
					},
					"t_bool": {
						"encoding": "inplace",
						"label": "bool",
						"numberOfBytes": "1"
					},
					"t_contract(ERC20TD)927": {
						"encoding": "inplace",
						"label": "contract ERC20TD",
						"numberOfBytes": "20"
					},
					"t_contract(IExerciceSolution)1277": {
						"encoding": "inplace",
						"label": "contract IExerciceSolution",
						"numberOfBytes": "20"
					},
					"t_mapping(t_address,t_bool)": {
						"encoding": "mapping",
						"key": "t_address",
						"label": "mapping(address => bool)",
						"numberOfBytes": "32",
						"value": "t_bool"
					},
					"t_mapping(t_address,t_contract(IExerciceSolution)1277)": {
						"encoding": "mapping",
						"key": "t_address",
						"label": "mapping(address => contract IExerciceSolution)",
						"numberOfBytes": "32",
						"value": "t_contract(IExerciceSolution)1277"
					},
					"t_mapping(t_address,t_mapping(t_uint256,t_bool))": {
						"encoding": "mapping",
						"key": "t_address",
						"label": "mapping(address => mapping(uint256 => bool))",
						"numberOfBytes": "32",
						"value": "t_mapping(t_uint256,t_bool)"
					},
					"t_mapping(t_address,t_uint256)": {
						"encoding": "mapping",
						"key": "t_address",
						"label": "mapping(address => uint256)",
						"numberOfBytes": "32",
						"value": "t_uint256"
					},
					"t_mapping(t_uint256,t_bool)": {
						"encoding": "mapping",
						"key": "t_uint256",
						"label": "mapping(uint256 => bool)",
						"numberOfBytes": "32",
						"value": "t_bool"
					},
					"t_uint256": {
						"encoding": "inplace",
						"label": "uint256",
						"numberOfBytes": "32"
					}
				}
			},
			"userdoc": {
				"kind": "user",
				"methods": {},
				"version": 1
			}
		}
	}
}