{
	"data": {
		"bytecode": {
			"linkReferences": {},
			"object": "608060405234801561001057600080fd5b507340adc5976f6ae451dbf9a390d31c7ffb5366b2296000806101000a81548173ffffffffffffffffffffffffffffffffffffffff021916908373ffffffffffffffffffffffffffffffffffffffff160217905550614b21806100746000396000f3fe60806040523480156200001157600080fd5b50600436106200003a5760003560e01c8063150b7a02146200003f5780638cf760b81462000075575b600080fd5b6200005d600480360381019062000057919062000a89565b62000081565b6040516200006c919062000b57565b60405180910390f35b6200007f62000095565b005b600063150b7a0260e01b9050949350505050565b6000604051620000a59062000865565b604051809103906000f080158015620000c2573d6000803e3d6000fd5b50905060008054906101000a900473ffffffffffffffffffffffffffffffffffffffff1673ffffffffffffffffffffffffffffffffffffffff16632236d353826040518263ffffffff1660e01b815260040162000120919062000bdf565b600060405180830381600087803b1580156200013b57600080fd5b505af115801562000150573d6000803e3d6000fd5b505050508073ffffffffffffffffffffffffffffffffffffffff16636a62784260008054906101000a900473ffffffffffffffffffffffffffffffffffffffff166040518263ffffffff1660e01b8152600401620001af919062000c0d565b600060405180830381600087803b158015620001ca57600080fd5b505af1158015620001df573d6000803e3d6000fd5b5050505060008054906101000a900473ffffffffffffffffffffffffffffffffffffffff1673ffffffffffffffffffffffffffffffffffffffff1663dede624c6040518163ffffffff1660e01b8152600401600060405180830381600087803b1580156200024c57600080fd5b505af115801562000261573d6000803e3d6000fd5b5050505060008054906101000a900473ffffffffffffffffffffffffffffffffffffffff1673ffffffffffffffffffffffffffffffffffffffff16639aa99dd66040518163ffffffff1660e01b8152600401600060405180830381600087803b158015620002ce57600080fd5b505af1158015620002e3573d6000803e3d6000fd5b5050505060008060009054906101000a900473ffffffffffffffffffffffffffffffffffffffff1673ffffffffffffffffffffffffffffffffffffffff1663df67f59d306040518263ffffffff1660e01b815260040162000345919062000c0d565b60206040518083038186803b1580156200035e57600080fd5b505afa15801562000373573d6000803e3d6000fd5b505050506040513d601f19601f8201168201806040525081019062000399919062000c41565b905060008060009054906101000a900473ffffffffffffffffffffffffffffffffffffffff1673ffffffffffffffffffffffffffffffffffffffff1663469d2a83306040518263ffffffff1660e01b8152600401620003f9919062000c0d565b60206040518083038186803b1580156200041257600080fd5b505afa15801562000427573d6000803e3d6000fd5b505050506040513d601f19601f820116820180604052508101906200044d919062000c41565b905060008060009054906101000a900473ffffffffffffffffffffffffffffffffffffffff1673ffffffffffffffffffffffffffffffffffffffff1663e9847a75306040518263ffffffff1660e01b8152600401620004ad919062000c0d565b60206040518083038186803b158015620004c657600080fd5b505afa158015620004db573d6000803e3d6000fd5b505050506040513d601f19601f8201168201806040525081019062000501919062000cb0565b905060008060009054906101000a900473ffffffffffffffffffffffffffffffffffffffff1673ffffffffffffffffffffffffffffffffffffffff1663806df959306040518263ffffffff1660e01b815260040162000561919062000c0d565b60006040518083038186803b1580156200057a57600080fd5b505afa1580156200058f573d6000803e3d6000fd5b505050506040513d6000823e3d601f19601f82011682018060405250810190620005ba919062000dcc565b905060008573ffffffffffffffffffffffffffffffffffffffff166332b0f376868686866040518563ffffffff1660e01b8152600401620005ff949392919062000e9c565b602060405180830381600087803b1580156200061a57600080fd5b505af11580156200062f573d6000803e3d6000fd5b505050506040513d601f19601f8201168201806040525081019062000655919062000c41565b90508573ffffffffffffffffffffffffffffffffffffffff166323b872dd3060008054906101000a900473ffffffffffffffffffffffffffffffffffffffff16846040518463ffffffff1660e01b8152600401620006b69392919062000ef0565b600060405180830381600087803b158015620006d157600080fd5b505af1158015620006e6573d6000803e3d6000fd5b5050505060008054906101000a900473ffffffffffffffffffffffffffffffffffffffff1673ffffffffffffffffffffffffffffffffffffffff166314555c7a826040518263ffffffff1660e01b815260040162000745919062000f2d565b600060405180830381600087803b1580156200076057600080fd5b505af115801562000775573d6000803e3d6000fd5b505050508573ffffffffffffffffffffffffffffffffffffffff1663483d6f766040518163ffffffff1660e01b8152600401600060405180830381600087803b158015620007c257600080fd5b505af1158015620007d7573d6000803e3d6000fd5b5050505060008054906101000a900473ffffffffffffffffffffffffffffffffffffffff1673ffffffffffffffffffffffffffffffffffffffff16633842083a6040518163ffffffff1660e01b8152600401600060405180830381600087803b1580156200084457600080fd5b505af115801562000859573d6000803e3d6000fd5b50505050505050505050565b613ba18062000f4b83390190565b6000604051905090565b600080fd5b600080fd5b600073ffffffffffffffffffffffffffffffffffffffff82169050919050565b6000620008b48262000887565b9050919050565b620008c681620008a7565b8114620008d257600080fd5b50565b600081359050620008e681620008bb565b92915050565b6000819050919050565b6200090181620008ec565b81146200090d57600080fd5b50565b6000813590506200092181620008f6565b92915050565b600080fd5b600080fd5b6000601f19601f8301169050919050565b7f4e487b7100000000000000000000000000000000000000000000000000000000600052604160045260246000fd5b6200097c8262000931565b810181811067ffffffffffffffff821117156200099e576200099d62000942565b5b80604052505050565b6000620009b362000873565b9050620009c1828262000971565b919050565b600067ffffffffffffffff821115620009e457620009e362000942565b5b620009ef8262000931565b9050602081019050919050565b82818337600083830152505050565b600062000a2262000a1c84620009c6565b620009a7565b90508281526020810184848401111562000a415762000a406200092c565b5b62000a4e848285620009fc565b509392505050565b600082601f83011262000a6e5762000a6d62000927565b5b813562000a8084826020860162000a0b565b91505092915050565b6000806000806080858703121562000aa65762000aa56200087d565b5b600062000ab687828801620008d5565b945050602062000ac987828801620008d5565b935050604062000adc8782880162000910565b925050606085013567ffffffffffffffff81111562000b005762000aff62000882565b5b62000b0e8782880162000a56565b91505092959194509250565b60007fffffffff0000000000000000000000000000000000000000000000000000000082169050919050565b62000b518162000b1a565b82525050565b600060208201905062000b6e600083018462000b46565b92915050565b6000819050919050565b600062000b9f62000b9962000b938462000887565b62000b74565b62000887565b9050919050565b600062000bb38262000b7e565b9050919050565b600062000bc78262000ba6565b9050919050565b62000bd98162000bba565b82525050565b600060208201905062000bf6600083018462000bce565b92915050565b62000c0781620008a7565b82525050565b600060208201905062000c24600083018462000bfc565b92915050565b60008151905062000c3b81620008f6565b92915050565b60006020828403121562000c5a5762000c596200087d565b5b600062000c6a8482850162000c2a565b91505092915050565b60008115159050919050565b62000c8a8162000c73565b811462000c9657600080fd5b50565b60008151905062000caa8162000c7f565b92915050565b60006020828403121562000cc95762000cc86200087d565b5b600062000cd98482850162000c99565b91505092915050565b600067ffffffffffffffff82111562000d005762000cff62000942565b5b62000d0b8262000931565b9050602081019050919050565b60005b8381101562000d3857808201518184015260208101905062000d1b565b8381111562000d48576000848401525b50505050565b600062000d6562000d5f8462000ce2565b620009a7565b90508281526020810184848401111562000d845762000d836200092c565b5b62000d9184828562000d18565b509392505050565b600082601f83011262000db15762000db062000927565b5b815162000dc384826020860162000d4e565b91505092915050565b60006020828403121562000de55762000de46200087d565b5b600082015167ffffffffffffffff81111562000e065762000e0562000882565b5b62000e148482850162000d99565b91505092915050565b62000e2881620008ec565b82525050565b62000e398162000c73565b82525050565b600081519050919050565b600082825260208201905092915050565b600062000e688262000e3f565b62000e74818562000e4a565b935062000e8681856020860162000d18565b62000e918162000931565b840191505092915050565b600060808201905062000eb3600083018762000e1d565b62000ec2602083018662000e1d565b62000ed1604083018562000e2e565b818103606083015262000ee5818462000e5b565b905095945050505050565b600060608201905062000f07600083018662000bfc565b62000f16602083018562000bfc565b62000f25604083018462000e1d565b949350505050565b600060208201905062000f44600083018462000e1d565b9291505056fe60806040523480156200001157600080fd5b506040518060400160405280600a81526020017f626c61626c615f373231000000000000000000000000000000000000000000008152506040518060400160405280600681526020017f424c41424c410000000000000000000000000000000000000000000000000000815250816000908051906020019062000096929190620001d3565b508060019080519060200190620000af929190620001d3565b505050620000d2620000c6620000ef60201b60201c565b620000f760201b60201c565b620000e96007620001bd60201b620015181760201c565b620002e8565b600033905090565b6000600660009054906101000a900473ffffffffffffffffffffffffffffffffffffffff16905081600660006101000a81548173ffffffffffffffffffffffffffffffffffffffff021916908373ffffffffffffffffffffffffffffffffffffffff1602179055508173ffffffffffffffffffffffffffffffffffffffff168173ffffffffffffffffffffffffffffffffffffffff167f8be0079c531659141344cd1fd0a4f28419497f9722a3daafe3b4186f6b6457e060405160405180910390a35050565b6001816000016000828254019250508190555050565b828054620001e190620002b2565b90600052602060002090601f01602090048101928262000205576000855562000251565b82601f106200022057805160ff191683800117855562000251565b8280016001018555821562000251579182015b828111156200025057825182559160200191906001019062000233565b5b50905062000260919062000264565b5090565b5b808211156200027f57600081600090555060010162000265565b5090565b7f4e487b7100000000000000000000000000000000000000000000000000000000600052602260045260246000fd5b60006002820490506001821680620002cb57607f821691505b60208210811415620002e257620002e162000283565b5b50919050565b6138a980620002f86000396000f3fe60806040526004361061021a5760003560e01c80636352211e11610123578063a22cb465116100ab578063c87b56dd1161006f578063c87b56dd1461083b578063e985e9c514610878578063ec897772146108b5578063f2fde38b146108de578063ff36ed98146109075761021a565b8063a22cb4651461072f578063b75e075014610758578063b88d4fde14610798578063c5f51f73146107c1578063c7b9cb0b146107fe5761021a565b806377386df3116100f257806377386df3146106365780638da5cb5b1461065f578063929c13e31461068a57806395d89b41146106c7578063a0c32c8f146106f25761021a565b80636352211e1461057c5780636a627842146105b957806370a08231146105e2578063715018a61461061f5761021a565b80632a4672b2116101a657806340d097c31161017557806340d097c3146104cc57806341d30bae146104f557806342842e0e146104ff578063483d6f76146105285780634abda8c81461053f5761021a565b80632a4672b2146103d85780632f745c591461041557806332b0f376146104525780633573dbd11461048f5761021a565b80631a14e94a116101ed5780631a14e94a146102ed578063216586581461030957806323b872dd14610334578063242a00871461035d57806327aa8f311461039b5761021a565b806301ffc9a71461021f57806306fdde031461025c578063081812fc14610287578063095ea7b3146102c4575b600080fd5b34801561022b57600080fd5b506102466004803603810190610241919061269a565b610923565b60405161025391906126e2565b60405180910390f35b34801561026857600080fd5b50610271610a05565b60405161027e9190612796565b60405180910390f35b34801561029357600080fd5b506102ae60048036038101906102a991906127ee565b610a97565b6040516102bb919061285c565b60405180910390f35b3480156102d057600080fd5b506102eb60048036038101906102e691906128a3565b610add565b005b610307600480360381019061030291906127ee565b610bf5565b005b34801561031557600080fd5b5061031e610bf8565b60405161032b91906128f2565b60405180910390f35b34801561034057600080fd5b5061035b6004803603810190610356919061290d565b610c02565b005b34801561036957600080fd5b50610384600480360381019061037f91906127ee565b610c62565b604051610392929190612960565b60405180910390f35b3480156103a757600080fd5b506103c260048036038101906103bd91906127ee565b610c71565b6040516103cf919061285c565b60405180910390f35b3480156103e457600080fd5b506103ff60048036038101906103fa91906127ee565b610c7b565b60405161040c91906128f2565b60405180910390f35b34801561042157600080fd5b5061043c600480360381019061043791906128a3565b610c82565b60405161044991906128f2565b60405180910390f35b34801561045e57600080fd5b5061047960048036038101906104749190612a1a565b610c8a565b60405161048691906128f2565b60405180910390f35b34801561049b57600080fd5b506104b660048036038101906104b191906127ee565b610e2f565b6040516104c391906128f2565b60405180910390f35b3480156104d857600080fd5b506104f360048036038101906104ee9190612aa2565b610e36565b005b6104fd610e64565b005b34801561050b57600080fd5b506105266004803603810190610521919061290d565b610f02565b005b34801561053457600080fd5b5061053d610f22565b005b34801561054b57600080fd5b50610566600480360381019061056191906127ee565b610f56565b60405161057391906126e2565b60405180910390f35b34801561058857600080fd5b506105a3600480360381019061059e91906127ee565b610f5d565b6040516105b0919061285c565b60405180910390f35b3480156105c557600080fd5b506105e060048036038101906105db9190612aa2565b610fe4565b005b3480156105ee57600080fd5b5061060960048036038101906106049190612aa2565b611012565b60405161061691906128f2565b60405180910390f35b34801561062b57600080fd5b506106346110ca565b005b34801561064257600080fd5b5061065d60048036038101906106589190612acf565b6110de565b005b34801561066b57600080fd5b506106746110e2565b604051610681919061285c565b60405180910390f35b34801561069657600080fd5b506106b160048036038101906106ac9190612b0f565b61110c565b6040516106be91906128f2565b60405180910390f35b3480156106d357600080fd5b506106dc611119565b6040516106e99190612796565b60405180910390f35b3480156106fe57600080fd5b5061071960048036038101906107149190612acf565b6111ab565b60405161072691906128f2565b60405180910390f35b34801561073b57600080fd5b5061075660048036038101906107519190612bbe565b6111b3565b005b34801561076457600080fd5b5061077f600480360381019061077a91906127ee565b6111c9565b60405161078f9493929190612bfe565b60405180910390f35b3480156107a457600080fd5b506107bf60048036038101906107ba9190612d7a565b6112d3565b005b3480156107cd57600080fd5b506107e860048036038101906107e391906127ee565b611335565b6040516107f591906126e2565b60405180910390f35b34801561080a57600080fd5b5061082560048036038101906108209190612aa2565b61133c565b60405161083291906126e2565b60405180910390f35b34801561084757600080fd5b50610862600480360381019061085d91906127ee565b611392565b60405161086f9190612796565b60405180910390f35b34801561088457600080fd5b5061089f600480360381019061089a9190612dfd565b6113fa565b6040516108ac91906126e2565b60405180910390f35b3480156108c157600080fd5b506108dc60048036038101906108d791906127ee565b61148e565b005b3480156108ea57600080fd5b5061090560048036038101906109009190612aa2565b611491565b005b610921600480360381019061091c91906127ee565b611515565b005b60007f80ac58cd000000000000000000000000000000000000000000000000000000007bffffffffffffffffffffffffffffffffffffffffffffffffffffffff1916827bffffffffffffffffffffffffffffffffffffffffffffffffffffffff191614806109ee57507f5b5e139f000000000000000000000000000000000000000000000000000000007bffffffffffffffffffffffffffffffffffffffffffffffffffffffff1916827bffffffffffffffffffffffffffffffffffffffffffffffffffffffff1916145b806109fe57506109fd8261152e565b5b9050919050565b606060008054610a1490612e6c565b80601f0160208091040260200160405190810160405280929190818152602001828054610a4090612e6c565b8015610a8d5780601f10610a6257610100808354040283529160200191610a8d565b820191906000526020600020905b815481529060010190602001808311610a7057829003601f168201915b5050505050905090565b6000610aa282611598565b6004600083815260200190815260200160002060009054906101000a900473ffffffffffffffffffffffffffffffffffffffff169050919050565b6000610ae882610f5d565b90508073ffffffffffffffffffffffffffffffffffffffff168373ffffffffffffffffffffffffffffffffffffffff161415610b59576040517f08c379a0000000000000000000000000000000000000000000000000000000008152600401610b5090612f10565b60405180910390fd5b8073ffffffffffffffffffffffffffffffffffffffff16610b786115e3565b73ffffffffffffffffffffffffffffffffffffffff161480610ba75750610ba681610ba16115e3565b6113fa565b5b610be6576040517f08c379a0000000000000000000000000000000000000000000000000000000008152600401610bdd90612fa2565b60405180910390fd5b610bf083836115eb565b505050565b50565b6000600b54905090565b610c13610c0d6115e3565b826116a4565b610c52576040517f08c379a0000000000000000000000000000000000000000000000000000000008152600401610c4990613034565b60405180910390fd5b610c5d838383611739565b505050565b60008060008091509150915091565b6000339050919050565b6000919050565b600092915050565b6000600960009054906101000a900460ff1615610d2e57600a60003373ffffffffffffffffffffffffffffffffffffffff1673ffffffffffffffffffffffffffffffffffffffff16815260200190815260200160002060009054906101000a900460ff16610d2d576040517f08c379a0000000000000000000000000000000000000000000000000000000008152600401610d24906130a0565b60405180910390fd5b5b6040518060800160405280878152602001868152602001851515815260200184848080601f016020809104026020016040519081016040528093929190818152602001838380828437600081840152601f19601f8201169050808301925050505050505081525060086000610da36007611a33565b8152602001908152602001600020600082015181600001556020820151816001015560408201518160020160006101000a81548160ff0219169083151502179055506060820151816003019080519060200190610e0192919061258b565b50905050610e0e33610fe4565b6001610e1a6007611a33565b610e2491906130ef565b905095945050505050565b6000919050565b610e3e611a41565b6000610e4a6007611a33565b9050610e566007611518565b610e608282611abf565b5050565b600b543414610ea8576040517f08c379a0000000000000000000000000000000000000000000000000000000008152600401610e9f90613195565b60405180910390fd5b6001600a60003373ffffffffffffffffffffffffffffffffffffffff1673ffffffffffffffffffffffffffffffffffffffff16815260200190815260200160002060006101000a81548160ff021916908315150217905550565b610f1d838383604051806020016040528060008152506112d3565b505050565b610f2a611a41565b600960009054906101000a900460ff1615600960006101000a81548160ff021916908315150217905550565b6000919050565b600080610f6983611add565b9050600073ffffffffffffffffffffffffffffffffffffffff168173ffffffffffffffffffffffffffffffffffffffff161415610fdb576040517f08c379a0000000000000000000000000000000000000000000000000000000008152600401610fd290613201565b60405180910390fd5b80915050919050565b610fec611a41565b6000610ff86007611a33565b90506110046007611518565b61100e8282611b1a565b5050565b60008073ffffffffffffffffffffffffffffffffffffffff168273ffffffffffffffffffffffffffffffffffffffff161415611083576040517f08c379a000000000000000000000000000000000000000000000000000000000815260040161107a90613293565b60405180910390fd5b600360008373ffffffffffffffffffffffffffffffffffffffff1673ffffffffffffffffffffffffffffffffffffffff168152602001908152602001600020549050919050565b6110d2611a41565b6110dc6000611d38565b565b5050565b6000600660009054906101000a900473ffffffffffffffffffffffffffffffffffffffff16905090565b6000979650505050505050565b60606001805461112890612e6c565b80601f016020809104026020016040519081016040528092919081815260200182805461115490612e6c565b80156111a15780601f10611176576101008083540402835291602001916111a1565b820191906000526020600020905b81548152906001019060200180831161118457829003601f168201915b5050505050905090565b600092915050565b6111c56111be6115e3565b8383611dfe565b5050565b60606000806000600860008681526020019081526020016000206003016008600087815260200190815260200160002060020160009054906101000a900460ff166008600088815260200190815260200160002060010154600860008981526020019081526020016000206000015483805461124490612e6c565b80601f016020809104026020016040519081016040528092919081815260200182805461127090612e6c565b80156112bd5780601f10611292576101008083540402835291602001916112bd565b820191906000526020600020905b8154815290600101906020018083116112a057829003601f168201915b5050505050935093509350935093509193509193565b6112e46112de6115e3565b836116a4565b611323576040517f08c379a000000000000000000000000000000000000000000000000000000000815260040161131a90613034565b60405180910390fd5b61132f84848484611f6b565b50505050565b6000919050565b6000600a60008373ffffffffffffffffffffffffffffffffffffffff1673ffffffffffffffffffffffffffffffffffffffff16815260200190815260200160002060009054906101000a900460ff169050919050565b606061139d82611598565b60006113a7611fc7565b905060008151116113c757604051806020016040528060008152506113f2565b806113d184611fde565b6040516020016113e29291906132ef565b6040516020818303038152906040525b915050919050565b6000600560008473ffffffffffffffffffffffffffffffffffffffff1673ffffffffffffffffffffffffffffffffffffffff16815260200190815260200160002060008373ffffffffffffffffffffffffffffffffffffffff1673ffffffffffffffffffffffffffffffffffffffff16815260200190815260200160002060009054906101000a900460ff16905092915050565b50565b611499611a41565b600073ffffffffffffffffffffffffffffffffffffffff168173ffffffffffffffffffffffffffffffffffffffff161415611509576040517f08c379a000000000000000000000000000000000000000000000000000000000815260040161150090613385565b60405180910390fd5b61151281611d38565b50565b50565b6001816000016000828254019250508190555050565b60007f01ffc9a7000000000000000000000000000000000000000000000000000000007bffffffffffffffffffffffffffffffffffffffffffffffffffffffff1916827bffffffffffffffffffffffffffffffffffffffffffffffffffffffff1916149050919050565b6115a1816120b6565b6115e0576040517f08c379a00000000000000000000000000000000000000000000000000000000081526004016115d790613201565b60405180910390fd5b50565b600033905090565b816004600083815260200190815260200160002060006101000a81548173ffffffffffffffffffffffffffffffffffffffff021916908373ffffffffffffffffffffffffffffffffffffffff160217905550808273ffffffffffffffffffffffffffffffffffffffff1661165e83610f5d565b73ffffffffffffffffffffffffffffffffffffffff167f8c5be1e5ebec7d5bd14f71427d1e84f3dd0314c0f7b2291e5b200ac8c7c3b92560405160405180910390a45050565b6000806116b083610f5d565b90508073ffffffffffffffffffffffffffffffffffffffff168473ffffffffffffffffffffffffffffffffffffffff1614806116f257506116f181856113fa565b5b8061173057508373ffffffffffffffffffffffffffffffffffffffff1661171884610a97565b73ffffffffffffffffffffffffffffffffffffffff16145b91505092915050565b8273ffffffffffffffffffffffffffffffffffffffff1661175982610f5d565b73ffffffffffffffffffffffffffffffffffffffff16146117af576040517f08c379a00000000000000000000000000000000000000000000000000000000081526004016117a690613417565b60405180910390fd5b600073ffffffffffffffffffffffffffffffffffffffff168273ffffffffffffffffffffffffffffffffffffffff16141561181f576040517f08c379a0000000000000000000000000000000000000000000000000000000008152600401611816906134a9565b60405180910390fd5b61182c83838360016120f7565b8273ffffffffffffffffffffffffffffffffffffffff1661184c82610f5d565b73ffffffffffffffffffffffffffffffffffffffff16146118a2576040517f08c379a000000000000000000000000000000000000000000000000000000000815260040161189990613417565b60405180910390fd5b6004600082815260200190815260200160002060006101000a81549073ffffffffffffffffffffffffffffffffffffffff02191690556001600360008573ffffffffffffffffffffffffffffffffffffffff1673ffffffffffffffffffffffffffffffffffffffff168152602001908152602001600020600082825403925050819055506001600360008473ffffffffffffffffffffffffffffffffffffffff1673ffffffffffffffffffffffffffffffffffffffff16815260200190815260200160002060008282540192505081905550816002600083815260200190815260200160002060006101000a81548173ffffffffffffffffffffffffffffffffffffffff021916908373ffffffffffffffffffffffffffffffffffffffff160217905550808273ffffffffffffffffffffffffffffffffffffffff168473ffffffffffffffffffffffffffffffffffffffff167fddf252ad1be2c89b69c2b068fc378daa952ba7f163c4a11628f55a4df523b3ef60405160405180910390a4611a2e838383600161221d565b505050565b600081600001549050919050565b611a496115e3565b73ffffffffffffffffffffffffffffffffffffffff16611a676110e2565b73ffffffffffffffffffffffffffffffffffffffff1614611abd576040517f08c379a0000000000000000000000000000000000000000000000000000000008152600401611ab490613515565b60405180910390fd5b565b611ad9828260405180602001604052806000815250612223565b5050565b60006002600083815260200190815260200160002060009054906101000a900473ffffffffffffffffffffffffffffffffffffffff169050919050565b600073ffffffffffffffffffffffffffffffffffffffff168273ffffffffffffffffffffffffffffffffffffffff161415611b8a576040517f08c379a0000000000000000000000000000000000000000000000000000000008152600401611b8190613581565b60405180910390fd5b611b93816120b6565b15611bd3576040517f08c379a0000000000000000000000000000000000000000000000000000000008152600401611bca906135ed565b60405180910390fd5b611be16000838360016120f7565b611bea816120b6565b15611c2a576040517f08c379a0000000000000000000000000000000000000000000000000000000008152600401611c21906135ed565b60405180910390fd5b6001600360008473ffffffffffffffffffffffffffffffffffffffff1673ffffffffffffffffffffffffffffffffffffffff16815260200190815260200160002060008282540192505081905550816002600083815260200190815260200160002060006101000a81548173ffffffffffffffffffffffffffffffffffffffff021916908373ffffffffffffffffffffffffffffffffffffffff160217905550808273ffffffffffffffffffffffffffffffffffffffff16600073ffffffffffffffffffffffffffffffffffffffff167fddf252ad1be2c89b69c2b068fc378daa952ba7f163c4a11628f55a4df523b3ef60405160405180910390a4611d3460008383600161221d565b5050565b6000600660009054906101000a900473ffffffffffffffffffffffffffffffffffffffff16905081600660006101000a81548173ffffffffffffffffffffffffffffffffffffffff021916908373ffffffffffffffffffffffffffffffffffffffff1602179055508173ffffffffffffffffffffffffffffffffffffffff168173ffffffffffffffffffffffffffffffffffffffff167f8be0079c531659141344cd1fd0a4f28419497f9722a3daafe3b4186f6b6457e060405160405180910390a35050565b8173ffffffffffffffffffffffffffffffffffffffff168373ffffffffffffffffffffffffffffffffffffffff161415611e6d576040517f08c379a0000000000000000000000000000000000000000000000000000000008152600401611e6490613659565b60405180910390fd5b80600560008573ffffffffffffffffffffffffffffffffffffffff1673ffffffffffffffffffffffffffffffffffffffff16815260200190815260200160002060008473ffffffffffffffffffffffffffffffffffffffff1673ffffffffffffffffffffffffffffffffffffffff16815260200190815260200160002060006101000a81548160ff0219169083151502179055508173ffffffffffffffffffffffffffffffffffffffff168373ffffffffffffffffffffffffffffffffffffffff167f17307eab39ab6107e8899845ad3d59bd9653f200f220920489ca2b5937696c3183604051611f5e91906126e2565b60405180910390a3505050565b611f76848484611739565b611f828484848461227e565b611fc1576040517f08c379a0000000000000000000000000000000000000000000000000000000008152600401611fb8906136eb565b60405180910390fd5b50505050565b606060405180602001604052806000815250905090565b606060006001611fed84612415565b01905060008167ffffffffffffffff81111561200c5761200b612c4f565b5b6040519080825280601f01601f19166020018201604052801561203e5781602001600182028036833780820191505090505b509050600082602001820190505b6001156120ab578080600190039150507f3031323334353637383961626364656600000000000000000000000000000000600a86061a8153600a85816120955761209461370b565b5b04945060008514156120a6576120ab565b61204c565b819350505050919050565b60008073ffffffffffffffffffffffffffffffffffffffff166120d883611add565b73ffffffffffffffffffffffffffffffffffffffff1614159050919050565b600181111561221757600073ffffffffffffffffffffffffffffffffffffffff168473ffffffffffffffffffffffffffffffffffffffff161461218b5780600360008673ffffffffffffffffffffffffffffffffffffffff1673ffffffffffffffffffffffffffffffffffffffff168152602001908152602001600020600082825461218391906130ef565b925050819055505b600073ffffffffffffffffffffffffffffffffffffffff168373ffffffffffffffffffffffffffffffffffffffff16146122165780600360008573ffffffffffffffffffffffffffffffffffffffff1673ffffffffffffffffffffffffffffffffffffffff168152602001908152602001600020600082825461220e919061373a565b925050819055505b5b50505050565b50505050565b61222d8383611b1a565b61223a600084848461227e565b612279576040517f08c379a0000000000000000000000000000000000000000000000000000000008152600401612270906136eb565b60405180910390fd5b505050565b600061229f8473ffffffffffffffffffffffffffffffffffffffff16612568565b15612408578373ffffffffffffffffffffffffffffffffffffffff1663150b7a026122c86115e3565b8786866040518563ffffffff1660e01b81526004016122ea94939291906137e5565b602060405180830381600087803b15801561230457600080fd5b505af192505050801561233557506040513d601f19601f820116820180604052508101906123329190613846565b60015b6123b8573d8060008114612365576040519150601f19603f3d011682016040523d82523d6000602084013e61236a565b606091505b506000815114156123b0576040517f08c379a00000000000000000000000000000000000000000000000000000000081526004016123a7906136eb565b60405180910390fd5b805181602001fd5b63150b7a0260e01b7bffffffffffffffffffffffffffffffffffffffffffffffffffffffff1916817bffffffffffffffffffffffffffffffffffffffffffffffffffffffff19161491505061240d565b600190505b949350505050565b600080600090507a184f03e93ff9f4daa797ed6e38ed64bf6a1f0100000000000000008310612473577a184f03e93ff9f4daa797ed6e38ed64bf6a1f01000000000000000083816124695761246861370b565b5b0492506040810190505b6d04ee2d6d415b85acef810000000083106124b0576d04ee2d6d415b85acef810000000083816124a6576124a561370b565b5b0492506020810190505b662386f26fc1000083106124df57662386f26fc1000083816124d5576124d461370b565b5b0492506010810190505b6305f5e1008310612508576305f5e10083816124fe576124fd61370b565b5b0492506008810190505b612710831061252d5761271083816125235761252261370b565b5b0492506004810190505b6064831061255057606483816125465761254561370b565b5b0492506002810190505b600a831061255f576001810190505b80915050919050565b6000808273ffffffffffffffffffffffffffffffffffffffff163b119050919050565b82805461259790612e6c565b90600052602060002090601f0160209004810192826125b95760008555612600565b82601f106125d257805160ff1916838001178555612600565b82800160010185558215612600579182015b828111156125ff5782518255916020019190600101906125e4565b5b50905061260d9190612611565b5090565b5b8082111561262a576000816000905550600101612612565b5090565b6000604051905090565b600080fd5b600080fd5b60007fffffffff0000000000000000000000000000000000000000000000000000000082169050919050565b61267781612642565b811461268257600080fd5b50565b6000813590506126948161266e565b92915050565b6000602082840312156126b0576126af612638565b5b60006126be84828501612685565b91505092915050565b60008115159050919050565b6126dc816126c7565b82525050565b60006020820190506126f760008301846126d3565b92915050565b600081519050919050565b600082825260208201905092915050565b60005b8381101561273757808201518184015260208101905061271c565b83811115612746576000848401525b50505050565b6000601f19601f8301169050919050565b6000612768826126fd565b6127728185612708565b9350612782818560208601612719565b61278b8161274c565b840191505092915050565b600060208201905081810360008301526127b0818461275d565b905092915050565b6000819050919050565b6127cb816127b8565b81146127d657600080fd5b50565b6000813590506127e8816127c2565b92915050565b60006020828403121561280457612803612638565b5b6000612812848285016127d9565b91505092915050565b600073ffffffffffffffffffffffffffffffffffffffff82169050919050565b60006128468261281b565b9050919050565b6128568161283b565b82525050565b6000602082019050612871600083018461284d565b92915050565b6128808161283b565b811461288b57600080fd5b50565b60008135905061289d81612877565b92915050565b600080604083850312156128ba576128b9612638565b5b60006128c88582860161288e565b92505060206128d9858286016127d9565b9150509250929050565b6128ec816127b8565b82525050565b600060208201905061290760008301846128e3565b92915050565b60008060006060848603121561292657612925612638565b5b60006129348682870161288e565b93505060206129458682870161288e565b9250506040612956868287016127d9565b9150509250925092565b600060408201905061297560008301856128e3565b61298260208301846128e3565b9392505050565b612992816126c7565b811461299d57600080fd5b50565b6000813590506129af81612989565b92915050565b600080fd5b600080fd5b600080fd5b60008083601f8401126129da576129d96129b5565b5b8235905067ffffffffffffffff8111156129f7576129f66129ba565b5b602083019150836001820283011115612a1357612a126129bf565b5b9250929050565b600080600080600060808688031215612a3657612a35612638565b5b6000612a44888289016127d9565b9550506020612a55888289016127d9565b9450506040612a66888289016129a0565b935050606086013567ffffffffffffffff811115612a8757612a8661263d565b5b612a93888289016129c4565b92509250509295509295909350565b600060208284031215612ab857612ab7612638565b5b6000612ac68482850161288e565b91505092915050565b60008060408385031215612ae657612ae5612638565b5b6000612af4858286016127d9565b9250506020612b05858286016127d9565b9150509250929050565b600080600080600080600060c0888a031215612b2e57612b2d612638565b5b6000612b3c8a828b016127d9565b9750506020612b4d8a828b016127d9565b9650506040612b5e8a828b016129a0565b955050606088013567ffffffffffffffff811115612b7f57612b7e61263d565b5b612b8b8a828b016129c4565b94509450506080612b9e8a828b016127d9565b92505060a0612baf8a828b016127d9565b91505092959891949750929550565b60008060408385031215612bd557612bd4612638565b5b6000612be38582860161288e565b9250506020612bf4858286016129a0565b9150509250929050565b60006080820190508181036000830152612c18818761275d565b9050612c2760208301866126d3565b612c3460408301856128e3565b612c4160608301846128e3565b95945050505050565b600080fd5b7f4e487b7100000000000000000000000000000000000000000000000000000000600052604160045260246000fd5b612c878261274c565b810181811067ffffffffffffffff82111715612ca657612ca5612c4f565b5b80604052505050565b6000612cb961262e565b9050612cc58282612c7e565b919050565b600067ffffffffffffffff821115612ce557612ce4612c4f565b5b612cee8261274c565b9050602081019050919050565b82818337600083830152505050565b6000612d1d612d1884612cca565b612caf565b905082815260208101848484011115612d3957612d38612c4a565b5b612d44848285612cfb565b509392505050565b600082601f830112612d6157612d606129b5565b5b8135612d71848260208601612d0a565b91505092915050565b60008060008060808587031215612d9457612d93612638565b5b6000612da28782880161288e565b9450506020612db38782880161288e565b9350506040612dc4878288016127d9565b925050606085013567ffffffffffffffff811115612de557612de461263d565b5b612df187828801612d4c565b91505092959194509250565b60008060408385031215612e1457612e13612638565b5b6000612e228582860161288e565b9250506020612e338582860161288e565b9150509250929050565b7f4e487b7100000000000000000000000000000000000000000000000000000000600052602260045260246000fd5b60006002820490506001821680612e8457607f821691505b60208210811415612e9857612e97612e3d565b5b50919050565b7f4552433732313a20617070726f76616c20746f2063757272656e74206f776e6560008201527f7200000000000000000000000000000000000000000000000000000000000000602082015250565b6000612efa602183612708565b9150612f0582612e9e565b604082019050919050565b60006020820190508181036000830152612f2981612eed565b9050919050565b7f4552433732313a20617070726f76652063616c6c6572206973206e6f7420746f60008201527f6b656e206f776e6572206f7220617070726f76656420666f7220616c6c000000602082015250565b6000612f8c603d83612708565b9150612f9782612f30565b604082019050919050565b60006020820190508181036000830152612fbb81612f7f565b9050919050565b7f4552433732313a2063616c6c6572206973206e6f7420746f6b656e206f776e6560008201527f72206f7220617070726f76656400000000000000000000000000000000000000602082015250565b600061301e602d83612708565b915061302982612fc2565b604082019050919050565b6000602082019050818103600083015261304d81613011565b9050919050565b7f4e6f742072656769737472656420617320627265656465722e00000000000000600082015250565b600061308a601983612708565b915061309582613054565b602082019050919050565b600060208201905081810360008301526130b98161307d565b9050919050565b7f4e487b7100000000000000000000000000000000000000000000000000000000600052601160045260246000fd5b60006130fa826127b8565b9150613105836127b8565b925082821015613118576131176130c0565b5b828203905092915050565b7f50617965642076616c7565206e6f7420657175616c20746f207265676973747260008201527f6174696f6e50726963652076616c75652e000000000000000000000000000000602082015250565b600061317f603183612708565b915061318a82613123565b604082019050919050565b600060208201905081810360008301526131ae81613172565b9050919050565b7f4552433732313a20696e76616c696420746f6b656e2049440000000000000000600082015250565b60006131eb601883612708565b91506131f6826131b5565b602082019050919050565b6000602082019050818103600083015261321a816131de565b9050919050565b7f4552433732313a2061646472657373207a65726f206973206e6f74206120766160008201527f6c6964206f776e65720000000000000000000000000000000000000000000000602082015250565b600061327d602983612708565b915061328882613221565b604082019050919050565b600060208201905081810360008301526132ac81613270565b9050919050565b600081905092915050565b60006132c9826126fd565b6132d381856132b3565b93506132e3818560208601612719565b80840191505092915050565b60006132fb82856132be565b915061330782846132be565b91508190509392505050565b7f4f776e61626c653a206e6577206f776e657220697320746865207a65726f206160008201527f6464726573730000000000000000000000000000000000000000000000000000602082015250565b600061336f602683612708565b915061337a82613313565b604082019050919050565b6000602082019050818103600083015261339e81613362565b9050919050565b7f4552433732313a207472616e736665722066726f6d20696e636f72726563742060008201527f6f776e6572000000000000000000000000000000000000000000000000000000602082015250565b6000613401602583612708565b915061340c826133a5565b604082019050919050565b60006020820190508181036000830152613430816133f4565b9050919050565b7f4552433732313a207472616e7366657220746f20746865207a65726f2061646460008201527f7265737300000000000000000000000000000000000000000000000000000000602082015250565b6000613493602483612708565b915061349e82613437565b604082019050919050565b600060208201905081810360008301526134c281613486565b9050919050565b7f4f776e61626c653a2063616c6c6572206973206e6f7420746865206f776e6572600082015250565b60006134ff602083612708565b915061350a826134c9565b602082019050919050565b6000602082019050818103600083015261352e816134f2565b9050919050565b7f4552433732313a206d696e7420746f20746865207a65726f2061646472657373600082015250565b600061356b602083612708565b915061357682613535565b602082019050919050565b6000602082019050818103600083015261359a8161355e565b9050919050565b7f4552433732313a20746f6b656e20616c7265616479206d696e74656400000000600082015250565b60006135d7601c83612708565b91506135e2826135a1565b602082019050919050565b60006020820190508181036000830152613606816135ca565b9050919050565b7f4552433732313a20617070726f766520746f2063616c6c657200000000000000600082015250565b6000613643601983612708565b915061364e8261360d565b602082019050919050565b6000602082019050818103600083015261367281613636565b9050919050565b7f4552433732313a207472616e7366657220746f206e6f6e20455243373231526560008201527f63656976657220696d706c656d656e7465720000000000000000000000000000602082015250565b60006136d5603283612708565b91506136e082613679565b604082019050919050565b60006020820190508181036000830152613704816136c8565b9050919050565b7f4e487b7100000000000000000000000000000000000000000000000000000000600052601260045260246000fd5b6000613745826127b8565b9150613750836127b8565b9250827fffffffffffffffffffffffffffffffffffffffffffffffffffffffffffffffff03821115613785576137846130c0565b5b828201905092915050565b600081519050919050565b600082825260208201905092915050565b60006137b782613790565b6137c1818561379b565b93506137d1818560208601612719565b6137da8161274c565b840191505092915050565b60006080820190506137fa600083018761284d565b613807602083018661284d565b61381460408301856128e3565b818103606083015261382681846137ac565b905095945050505050565b6000815190506138408161266e565b92915050565b60006020828403121561385c5761385b612638565b5b600061386a84828501613831565b9150509291505056fea26469706673582212208ddd49a5bab756fa3f128a506df4aeaec5d9782e4343443a24e32ee77e9bcfe264736f6c63430008090033a2646970667358221220449d6f449f6f608569f307fb9678fbf4d67b881791a1f34c44bf48a1a051b2ad64736f6c63430008090033",
			"opcodes": "PUSH1 0x80 PUSH1 0x40 MSTORE CALLVALUE DUP1 ISZERO PUSH2 0x10 JUMPI PUSH1 0x0 DUP1 REVERT JUMPDEST POP PUSH20 0x40ADC5976F6AE451DBF9A390D31C7FFB5366B229 PUSH1 0x0 DUP1 PUSH2 0x100 EXP DUP2 SLOAD DUP2 PUSH20 0xFFFFFFFFFFFFFFFFFFFFFFFFFFFFFFFFFFFFFFFF MUL NOT AND SWAP1 DUP4 PUSH20 0xFFFFFFFFFFFFFFFFFFFFFFFFFFFFFFFFFFFFFFFF AND MUL OR SWAP1 SSTORE POP PUSH2 0x4B21 DUP1 PUSH2 0x74 PUSH1 0x0 CODECOPY PUSH1 0x0 RETURN INVALID PUSH1 0x80 PUSH1 0x40 MSTORE CALLVALUE DUP1 ISZERO PUSH3 0x11 JUMPI PUSH1 0x0 DUP1 REVERT JUMPDEST POP PUSH1 0x4 CALLDATASIZE LT PUSH3 0x3A JUMPI PUSH1 0x0 CALLDATALOAD PUSH1 0xE0 SHR DUP1 PUSH4 0x150B7A02 EQ PUSH3 0x3F JUMPI DUP1 PUSH4 0x8CF760B8 EQ PUSH3 0x75 JUMPI JUMPDEST PUSH1 0x0 DUP1 REVERT JUMPDEST PUSH3 0x5D PUSH1 0x4 DUP1 CALLDATASIZE SUB DUP2 ADD SWAP1 PUSH3 0x57 SWAP2 SWAP1 PUSH3 0xA89 JUMP JUMPDEST PUSH3 0x81 JUMP JUMPDEST PUSH1 0x40 MLOAD PUSH3 0x6C SWAP2 SWAP1 PUSH3 0xB57 JUMP JUMPDEST PUSH1 0x40 MLOAD DUP1 SWAP2 SUB SWAP1 RETURN JUMPDEST PUSH3 0x7F PUSH3 0x95 JUMP JUMPDEST STOP JUMPDEST PUSH1 0x0 PUSH4 0x150B7A02 PUSH1 0xE0 SHL SWAP1 POP SWAP5 SWAP4 POP POP POP POP JUMP JUMPDEST PUSH1 0x0 PUSH1 0x40 MLOAD PUSH3 0xA5 SWAP1 PUSH3 0x865 JUMP JUMPDEST PUSH1 0x40 MLOAD DUP1 SWAP2 SUB SWAP1 PUSH1 0x0 CREATE DUP1 ISZERO DUP1 ISZERO PUSH3 0xC2 JUMPI RETURNDATASIZE PUSH1 0x0 DUP1 RETURNDATACOPY RETURNDATASIZE PUSH1 0x0 REVERT JUMPDEST POP SWAP1 POP PUSH1 0x0 DUP1 SLOAD SWAP1 PUSH2 0x100 EXP SWAP1 DIV PUSH20 0xFFFFFFFFFFFFFFFFFFFFFFFFFFFFFFFFFFFFFFFF AND PUSH20 0xFFFFFFFFFFFFFFFFFFFFFFFFFFFFFFFFFFFFFFFF AND PUSH4 0x2236D353 DUP3 PUSH1 0x40 MLOAD DUP3 PUSH4 0xFFFFFFFF AND PUSH1 0xE0 SHL DUP2 MSTORE PUSH1 0x4 ADD PUSH3 0x120 SWAP2 SWAP1 PUSH3 0xBDF JUMP JUMPDEST PUSH1 0x0 PUSH1 0x40 MLOAD DUP1 DUP4 SUB DUP2 PUSH1 0x0 DUP8 DUP1 EXTCODESIZE ISZERO DUP1 ISZERO PUSH3 0x13B JUMPI PUSH1 0x0 DUP1 REVERT JUMPDEST POP GAS CALL ISZERO DUP1 ISZERO PUSH3 0x150 JUMPI RETURNDATASIZE PUSH1 0x0 DUP1 RETURNDATACOPY RETURNDATASIZE PUSH1 0x0 REVERT JUMPDEST POP POP POP POP DUP1 PUSH20 0xFFFFFFFFFFFFFFFFFFFFFFFFFFFFFFFFFFFFFFFF AND PUSH4 0x6A627842 PUSH1 0x0 DUP1 SLOAD SWAP1 PUSH2 0x100 EXP SWAP1 DIV PUSH20 0xFFFFFFFFFFFFFFFFFFFFFFFFFFFFFFFFFFFFFFFF AND PUSH1 0x40 MLOAD DUP3 PUSH4 0xFFFFFFFF AND PUSH1 0xE0 SHL DUP2 MSTORE PUSH1 0x4 ADD PUSH3 0x1AF SWAP2 SWAP1 PUSH3 0xC0D JUMP JUMPDEST PUSH1 0x0 PUSH1 0x40 MLOAD DUP1 DUP4 SUB DUP2 PUSH1 0x0 DUP8 DUP1 EXTCODESIZE ISZERO DUP1 ISZERO PUSH3 0x1CA JUMPI PUSH1 0x0 DUP1 REVERT JUMPDEST POP GAS CALL ISZERO DUP1 ISZERO PUSH3 0x1DF JUMPI RETURNDATASIZE PUSH1 0x0 DUP1 RETURNDATACOPY RETURNDATASIZE PUSH1 0x0 REVERT JUMPDEST POP POP POP POP PUSH1 0x0 DUP1 SLOAD SWAP1 PUSH2 0x100 EXP SWAP1 DIV PUSH20 0xFFFFFFFFFFFFFFFFFFFFFFFFFFFFFFFFFFFFFFFF AND PUSH20 0xFFFFFFFFFFFFFFFFFFFFFFFFFFFFFFFFFFFFFFFF AND PUSH4 0xDEDE624C PUSH1 0x40 MLOAD DUP2 PUSH4 0xFFFFFFFF AND PUSH1 0xE0 SHL DUP2 MSTORE PUSH1 0x4 ADD PUSH1 0x0 PUSH1 0x40 MLOAD DUP1 DUP4 SUB DUP2 PUSH1 0x0 DUP8 DUP1 EXTCODESIZE ISZERO DUP1 ISZERO PUSH3 0x24C JUMPI PUSH1 0x0 DUP1 REVERT JUMPDEST POP GAS CALL ISZERO DUP1 ISZERO PUSH3 0x261 JUMPI RETURNDATASIZE PUSH1 0x0 DUP1 RETURNDATACOPY RETURNDATASIZE PUSH1 0x0 REVERT JUMPDEST POP POP POP POP PUSH1 0x0 DUP1 SLOAD SWAP1 PUSH2 0x100 EXP SWAP1 DIV PUSH20 0xFFFFFFFFFFFFFFFFFFFFFFFFFFFFFFFFFFFFFFFF AND PUSH20 0xFFFFFFFFFFFFFFFFFFFFFFFFFFFFFFFFFFFFFFFF AND PUSH4 0x9AA99DD6 PUSH1 0x40 MLOAD DUP2 PUSH4 0xFFFFFFFF AND PUSH1 0xE0 SHL DUP2 MSTORE PUSH1 0x4 ADD PUSH1 0x0 PUSH1 0x40 MLOAD DUP1 DUP4 SUB DUP2 PUSH1 0x0 DUP8 DUP1 EXTCODESIZE ISZERO DUP1 ISZERO PUSH3 0x2CE JUMPI PUSH1 0x0 DUP1 REVERT JUMPDEST POP GAS CALL ISZERO DUP1 ISZERO PUSH3 0x2E3 JUMPI RETURNDATASIZE PUSH1 0x0 DUP1 RETURNDATACOPY RETURNDATASIZE PUSH1 0x0 REVERT JUMPDEST POP POP POP POP PUSH1 0x0 DUP1 PUSH1 0x0 SWAP1 SLOAD SWAP1 PUSH2 0x100 EXP SWAP1 DIV PUSH20 0xFFFFFFFFFFFFFFFFFFFFFFFFFFFFFFFFFFFFFFFF AND PUSH20 0xFFFFFFFFFFFFFFFFFFFFFFFFFFFFFFFFFFFFFFFF AND PUSH4 0xDF67F59D ADDRESS PUSH1 0x40 MLOAD DUP3 PUSH4 0xFFFFFFFF AND PUSH1 0xE0 SHL DUP2 MSTORE PUSH1 0x4 ADD PUSH3 0x345 SWAP2 SWAP1 PUSH3 0xC0D JUMP JUMPDEST PUSH1 0x20 PUSH1 0x40 MLOAD DUP1 DUP4 SUB DUP2 DUP7 DUP1 EXTCODESIZE ISZERO DUP1 ISZERO PUSH3 0x35E JUMPI PUSH1 0x0 DUP1 REVERT JUMPDEST POP GAS STATICCALL ISZERO DUP1 ISZERO PUSH3 0x373 JUMPI RETURNDATASIZE PUSH1 0x0 DUP1 RETURNDATACOPY RETURNDATASIZE PUSH1 0x0 REVERT JUMPDEST POP POP POP POP PUSH1 0x40 MLOAD RETURNDATASIZE PUSH1 0x1F NOT PUSH1 0x1F DUP3 ADD AND DUP3 ADD DUP1 PUSH1 0x40 MSTORE POP DUP2 ADD SWAP1 PUSH3 0x399 SWAP2 SWAP1 PUSH3 0xC41 JUMP JUMPDEST SWAP1 POP PUSH1 0x0 DUP1 PUSH1 0x0 SWAP1 SLOAD SWAP1 PUSH2 0x100 EXP SWAP1 DIV PUSH20 0xFFFFFFFFFFFFFFFFFFFFFFFFFFFFFFFFFFFFFFFF AND PUSH20 0xFFFFFFFFFFFFFFFFFFFFFFFFFFFFFFFFFFFFFFFF AND PUSH4 0x469D2A83 ADDRESS PUSH1 0x40 MLOAD DUP3 PUSH4 0xFFFFFFFF AND PUSH1 0xE0 SHL DUP2 MSTORE PUSH1 0x4 ADD PUSH3 0x3F9 SWAP2 SWAP1 PUSH3 0xC0D JUMP JUMPDEST PUSH1 0x20 PUSH1 0x40 MLOAD DUP1 DUP4 SUB DUP2 DUP7 DUP1 EXTCODESIZE ISZERO DUP1 ISZERO PUSH3 0x412 JUMPI PUSH1 0x0 DUP1 REVERT JUMPDEST POP GAS STATICCALL ISZERO DUP1 ISZERO PUSH3 0x427 JUMPI RETURNDATASIZE PUSH1 0x0 DUP1 RETURNDATACOPY RETURNDATASIZE PUSH1 0x0 REVERT JUMPDEST POP POP POP POP PUSH1 0x40 MLOAD RETURNDATASIZE PUSH1 0x1F NOT PUSH1 0x1F DUP3 ADD AND DUP3 ADD DUP1 PUSH1 0x40 MSTORE POP DUP2 ADD SWAP1 PUSH3 0x44D SWAP2 SWAP1 PUSH3 0xC41 JUMP JUMPDEST SWAP1 POP PUSH1 0x0 DUP1 PUSH1 0x0 SWAP1 SLOAD SWAP1 PUSH2 0x100 EXP SWAP1 DIV PUSH20 0xFFFFFFFFFFFFFFFFFFFFFFFFFFFFFFFFFFFFFFFF AND PUSH20 0xFFFFFFFFFFFFFFFFFFFFFFFFFFFFFFFFFFFFFFFF AND PUSH4 0xE9847A75 ADDRESS PUSH1 0x40 MLOAD DUP3 PUSH4 0xFFFFFFFF AND PUSH1 0xE0 SHL DUP2 MSTORE PUSH1 0x4 ADD PUSH3 0x4AD SWAP2 SWAP1 PUSH3 0xC0D JUMP JUMPDEST PUSH1 0x20 PUSH1 0x40 MLOAD DUP1 DUP4 SUB DUP2 DUP7 DUP1 EXTCODESIZE ISZERO DUP1 ISZERO PUSH3 0x4C6 JUMPI PUSH1 0x0 DUP1 REVERT JUMPDEST POP GAS STATICCALL ISZERO DUP1 ISZERO PUSH3 0x4DB JUMPI RETURNDATASIZE PUSH1 0x0 DUP1 RETURNDATACOPY RETURNDATASIZE PUSH1 0x0 REVERT JUMPDEST POP POP POP POP PUSH1 0x40 MLOAD RETURNDATASIZE PUSH1 0x1F NOT PUSH1 0x1F DUP3 ADD AND DUP3 ADD DUP1 PUSH1 0x40 MSTORE POP DUP2 ADD SWAP1 PUSH3 0x501 SWAP2 SWAP1 PUSH3 0xCB0 JUMP JUMPDEST SWAP1 POP PUSH1 0x0 DUP1 PUSH1 0x0 SWAP1 SLOAD SWAP1 PUSH2 0x100 EXP SWAP1 DIV PUSH20 0xFFFFFFFFFFFFFFFFFFFFFFFFFFFFFFFFFFFFFFFF AND PUSH20 0xFFFFFFFFFFFFFFFFFFFFFFFFFFFFFFFFFFFFFFFF AND PUSH4 0x806DF959 ADDRESS PUSH1 0x40 MLOAD DUP3 PUSH4 0xFFFFFFFF AND PUSH1 0xE0 SHL DUP2 MSTORE PUSH1 0x4 ADD PUSH3 0x561 SWAP2 SWAP1 PUSH3 0xC0D JUMP JUMPDEST PUSH1 0x0 PUSH1 0x40 MLOAD DUP1 DUP4 SUB DUP2 DUP7 DUP1 EXTCODESIZE ISZERO DUP1 ISZERO PUSH3 0x57A JUMPI PUSH1 0x0 DUP1 REVERT JUMPDEST POP GAS STATICCALL ISZERO DUP1 ISZERO PUSH3 0x58F JUMPI RETURNDATASIZE PUSH1 0x0 DUP1 RETURNDATACOPY RETURNDATASIZE PUSH1 0x0 REVERT JUMPDEST POP POP POP POP PUSH1 0x40 MLOAD RETURNDATASIZE PUSH1 0x0 DUP3 RETURNDATACOPY RETURNDATASIZE PUSH1 0x1F NOT PUSH1 0x1F DUP3 ADD AND DUP3 ADD DUP1 PUSH1 0x40 MSTORE POP DUP2 ADD SWAP1 PUSH3 0x5BA SWAP2 SWAP1 PUSH3 0xDCC JUMP JUMPDEST SWAP1 POP PUSH1 0x0 DUP6 PUSH20 0xFFFFFFFFFFFFFFFFFFFFFFFFFFFFFFFFFFFFFFFF AND PUSH4 0x32B0F376 DUP7 DUP7 DUP7 DUP7 PUSH1 0x40 MLOAD DUP6 PUSH4 0xFFFFFFFF AND PUSH1 0xE0 SHL DUP2 MSTORE PUSH1 0x4 ADD PUSH3 0x5FF SWAP5 SWAP4 SWAP3 SWAP2 SWAP1 PUSH3 0xE9C JUMP JUMPDEST PUSH1 0x20 PUSH1 0x40 MLOAD DUP1 DUP4 SUB DUP2 PUSH1 0x0 DUP8 DUP1 EXTCODESIZE ISZERO DUP1 ISZERO PUSH3 0x61A JUMPI PUSH1 0x0 DUP1 REVERT JUMPDEST POP GAS CALL ISZERO DUP1 ISZERO PUSH3 0x62F JUMPI RETURNDATASIZE PUSH1 0x0 DUP1 RETURNDATACOPY RETURNDATASIZE PUSH1 0x0 REVERT JUMPDEST POP POP POP POP PUSH1 0x40 MLOAD RETURNDATASIZE PUSH1 0x1F NOT PUSH1 0x1F DUP3 ADD AND DUP3 ADD DUP1 PUSH1 0x40 MSTORE POP DUP2 ADD SWAP1 PUSH3 0x655 SWAP2 SWAP1 PUSH3 0xC41 JUMP JUMPDEST SWAP1 POP DUP6 PUSH20 0xFFFFFFFFFFFFFFFFFFFFFFFFFFFFFFFFFFFFFFFF AND PUSH4 0x23B872DD ADDRESS PUSH1 0x0 DUP1 SLOAD SWAP1 PUSH2 0x100 EXP SWAP1 DIV PUSH20 0xFFFFFFFFFFFFFFFFFFFFFFFFFFFFFFFFFFFFFFFF AND DUP5 PUSH1 0x40 MLOAD DUP5 PUSH4 0xFFFFFFFF AND PUSH1 0xE0 SHL DUP2 MSTORE PUSH1 0x4 ADD PUSH3 0x6B6 SWAP4 SWAP3 SWAP2 SWAP1 PUSH3 0xEF0 JUMP JUMPDEST PUSH1 0x0 PUSH1 0x40 MLOAD DUP1 DUP4 SUB DUP2 PUSH1 0x0 DUP8 DUP1 EXTCODESIZE ISZERO DUP1 ISZERO PUSH3 0x6D1 JUMPI PUSH1 0x0 DUP1 REVERT JUMPDEST POP GAS CALL ISZERO DUP1 ISZERO PUSH3 0x6E6 JUMPI RETURNDATASIZE PUSH1 0x0 DUP1 RETURNDATACOPY RETURNDATASIZE PUSH1 0x0 REVERT JUMPDEST POP POP POP POP PUSH1 0x0 DUP1 SLOAD SWAP1 PUSH2 0x100 EXP SWAP1 DIV PUSH20 0xFFFFFFFFFFFFFFFFFFFFFFFFFFFFFFFFFFFFFFFF AND PUSH20 0xFFFFFFFFFFFFFFFFFFFFFFFFFFFFFFFFFFFFFFFF AND PUSH4 0x14555C7A DUP3 PUSH1 0x40 MLOAD DUP3 PUSH4 0xFFFFFFFF AND PUSH1 0xE0 SHL DUP2 MSTORE PUSH1 0x4 ADD PUSH3 0x745 SWAP2 SWAP1 PUSH3 0xF2D JUMP JUMPDEST PUSH1 0x0 PUSH1 0x40 MLOAD DUP1 DUP4 SUB DUP2 PUSH1 0x0 DUP8 DUP1 EXTCODESIZE ISZERO DUP1 ISZERO PUSH3 0x760 JUMPI PUSH1 0x0 DUP1 REVERT JUMPDEST POP GAS CALL ISZERO DUP1 ISZERO PUSH3 0x775 JUMPI RETURNDATASIZE PUSH1 0x0 DUP1 RETURNDATACOPY RETURNDATASIZE PUSH1 0x0 REVERT JUMPDEST POP POP POP POP DUP6 PUSH20 0xFFFFFFFFFFFFFFFFFFFFFFFFFFFFFFFFFFFFFFFF AND PUSH4 0x483D6F76 PUSH1 0x40 MLOAD DUP2 PUSH4 0xFFFFFFFF AND PUSH1 0xE0 SHL DUP2 MSTORE PUSH1 0x4 ADD PUSH1 0x0 PUSH1 0x40 MLOAD DUP1 DUP4 SUB DUP2 PUSH1 0x0 DUP8 DUP1 EXTCODESIZE ISZERO DUP1 ISZERO PUSH3 0x7C2 JUMPI PUSH1 0x0 DUP1 REVERT JUMPDEST POP GAS CALL ISZERO DUP1 ISZERO PUSH3 0x7D7 JUMPI RETURNDATASIZE PUSH1 0x0 DUP1 RETURNDATACOPY RETURNDATASIZE PUSH1 0x0 REVERT JUMPDEST POP POP POP POP PUSH1 0x0 DUP1 SLOAD SWAP1 PUSH2 0x100 EXP SWAP1 DIV PUSH20 0xFFFFFFFFFFFFFFFFFFFFFFFFFFFFFFFFFFFFFFFF AND PUSH20 0xFFFFFFFFFFFFFFFFFFFFFFFFFFFFFFFFFFFFFFFF AND PUSH4 0x3842083A PUSH1 0x40 MLOAD DUP2 PUSH4 0xFFFFFFFF AND PUSH1 0xE0 SHL DUP2 MSTORE PUSH1 0x4 ADD PUSH1 0x0 PUSH1 0x40 MLOAD DUP1 DUP4 SUB DUP2 PUSH1 0x0 DUP8 DUP1 EXTCODESIZE ISZERO DUP1 ISZERO PUSH3 0x844 JUMPI PUSH1 0x0 DUP1 REVERT JUMPDEST POP GAS CALL ISZERO DUP1 ISZERO PUSH3 0x859 JUMPI RETURNDATASIZE PUSH1 0x0 DUP1 RETURNDATACOPY RETURNDATASIZE PUSH1 0x0 REVERT JUMPDEST POP POP POP POP POP POP POP POP POP POP JUMP JUMPDEST PUSH2 0x3BA1 DUP1 PUSH3 0xF4B DUP4 CODECOPY ADD SWAP1 JUMP JUMPDEST PUSH1 0x0 PUSH1 0x40 MLOAD SWAP1 POP SWAP1 JUMP JUMPDEST PUSH1 0x0 DUP1 REVERT JUMPDEST PUSH1 0x0 DUP1 REVERT JUMPDEST PUSH1 0x0 PUSH20 0xFFFFFFFFFFFFFFFFFFFFFFFFFFFFFFFFFFFFFFFF DUP3 AND SWAP1 POP SWAP2 SWAP1 POP JUMP JUMPDEST PUSH1 0x0 PUSH3 0x8B4 DUP3 PUSH3 0x887 JUMP JUMPDEST SWAP1 POP SWAP2 SWAP1 POP JUMP JUMPDEST PUSH3 0x8C6 DUP2 PUSH3 0x8A7 JUMP JUMPDEST DUP2 EQ PUSH3 0x8D2 JUMPI PUSH1 0x0 DUP1 REVERT JUMPDEST POP JUMP JUMPDEST PUSH1 0x0 DUP2 CALLDATALOAD SWAP1 POP PUSH3 0x8E6 DUP2 PUSH3 0x8BB JUMP JUMPDEST SWAP3 SWAP2 POP POP JUMP JUMPDEST PUSH1 0x0 DUP2 SWAP1 POP SWAP2 SWAP1 POP JUMP JUMPDEST PUSH3 0x901 DUP2 PUSH3 0x8EC JUMP JUMPDEST DUP2 EQ PUSH3 0x90D JUMPI PUSH1 0x0 DUP1 REVERT JUMPDEST POP JUMP JUMPDEST PUSH1 0x0 DUP2 CALLDATALOAD SWAP1 POP PUSH3 0x921 DUP2 PUSH3 0x8F6 JUMP JUMPDEST SWAP3 SWAP2 POP POP JUMP JUMPDEST PUSH1 0x0 DUP1 REVERT JUMPDEST PUSH1 0x0 DUP1 REVERT JUMPDEST PUSH1 0x0 PUSH1 0x1F NOT PUSH1 0x1F DUP4 ADD AND SWAP1 POP SWAP2 SWAP1 POP JUMP JUMPDEST PUSH32 0x4E487B7100000000000000000000000000000000000000000000000000000000 PUSH1 0x0 MSTORE PUSH1 0x41 PUSH1 0x4 MSTORE PUSH1 0x24 PUSH1 0x0 REVERT JUMPDEST PUSH3 0x97C DUP3 PUSH3 0x931 JUMP JUMPDEST DUP2 ADD DUP2 DUP2 LT PUSH8 0xFFFFFFFFFFFFFFFF DUP3 GT OR ISZERO PUSH3 0x99E JUMPI PUSH3 0x99D PUSH3 0x942 JUMP JUMPDEST JUMPDEST DUP1 PUSH1 0x40 MSTORE POP POP POP JUMP JUMPDEST PUSH1 0x0 PUSH3 0x9B3 PUSH3 0x873 JUMP JUMPDEST SWAP1 POP PUSH3 0x9C1 DUP3 DUP3 PUSH3 0x971 JUMP JUMPDEST SWAP2 SWAP1 POP JUMP JUMPDEST PUSH1 0x0 PUSH8 0xFFFFFFFFFFFFFFFF DUP3 GT ISZERO PUSH3 0x9E4 JUMPI PUSH3 0x9E3 PUSH3 0x942 JUMP JUMPDEST JUMPDEST PUSH3 0x9EF DUP3 PUSH3 0x931 JUMP JUMPDEST SWAP1 POP PUSH1 0x20 DUP2 ADD SWAP1 POP SWAP2 SWAP1 POP JUMP JUMPDEST DUP3 DUP2 DUP4 CALLDATACOPY PUSH1 0x0 DUP4 DUP4 ADD MSTORE POP POP POP JUMP JUMPDEST PUSH1 0x0 PUSH3 0xA22 PUSH3 0xA1C DUP5 PUSH3 0x9C6 JUMP JUMPDEST PUSH3 0x9A7 JUMP JUMPDEST SWAP1 POP DUP3 DUP2 MSTORE PUSH1 0x20 DUP2 ADD DUP5 DUP5 DUP5 ADD GT ISZERO PUSH3 0xA41 JUMPI PUSH3 0xA40 PUSH3 0x92C JUMP JUMPDEST JUMPDEST PUSH3 0xA4E DUP5 DUP3 DUP6 PUSH3 0x9FC JUMP JUMPDEST POP SWAP4 SWAP3 POP POP POP JUMP JUMPDEST PUSH1 0x0 DUP3 PUSH1 0x1F DUP4 ADD SLT PUSH3 0xA6E JUMPI PUSH3 0xA6D PUSH3 0x927 JUMP JUMPDEST JUMPDEST DUP2 CALLDATALOAD PUSH3 0xA80 DUP5 DUP3 PUSH1 0x20 DUP7 ADD PUSH3 0xA0B JUMP JUMPDEST SWAP2 POP POP SWAP3 SWAP2 POP POP JUMP JUMPDEST PUSH1 0x0 DUP1 PUSH1 0x0 DUP1 PUSH1 0x80 DUP6 DUP8 SUB SLT ISZERO PUSH3 0xAA6 JUMPI PUSH3 0xAA5 PUSH3 0x87D JUMP JUMPDEST JUMPDEST PUSH1 0x0 PUSH3 0xAB6 DUP8 DUP3 DUP9 ADD PUSH3 0x8D5 JUMP JUMPDEST SWAP5 POP POP PUSH1 0x20 PUSH3 0xAC9 DUP8 DUP3 DUP9 ADD PUSH3 0x8D5 JUMP JUMPDEST SWAP4 POP POP PUSH1 0x40 PUSH3 0xADC DUP8 DUP3 DUP9 ADD PUSH3 0x910 JUMP JUMPDEST SWAP3 POP POP PUSH1 0x60 DUP6 ADD CALLDATALOAD PUSH8 0xFFFFFFFFFFFFFFFF DUP2 GT ISZERO PUSH3 0xB00 JUMPI PUSH3 0xAFF PUSH3 0x882 JUMP JUMPDEST JUMPDEST PUSH3 0xB0E DUP8 DUP3 DUP9 ADD PUSH3 0xA56 JUMP JUMPDEST SWAP2 POP POP SWAP3 SWAP6 SWAP2 SWAP5 POP SWAP3 POP JUMP JUMPDEST PUSH1 0x0 PUSH32 0xFFFFFFFF00000000000000000000000000000000000000000000000000000000 DUP3 AND SWAP1 POP SWAP2 SWAP1 POP JUMP JUMPDEST PUSH3 0xB51 DUP2 PUSH3 0xB1A JUMP JUMPDEST DUP3 MSTORE POP POP JUMP JUMPDEST PUSH1 0x0 PUSH1 0x20 DUP3 ADD SWAP1 POP PUSH3 0xB6E PUSH1 0x0 DUP4 ADD DUP5 PUSH3 0xB46 JUMP JUMPDEST SWAP3 SWAP2 POP POP JUMP JUMPDEST PUSH1 0x0 DUP2 SWAP1 POP SWAP2 SWAP1 POP JUMP JUMPDEST PUSH1 0x0 PUSH3 0xB9F PUSH3 0xB99 PUSH3 0xB93 DUP5 PUSH3 0x887 JUMP JUMPDEST PUSH3 0xB74 JUMP JUMPDEST PUSH3 0x887 JUMP JUMPDEST SWAP1 POP SWAP2 SWAP1 POP JUMP JUMPDEST PUSH1 0x0 PUSH3 0xBB3 DUP3 PUSH3 0xB7E JUMP JUMPDEST SWAP1 POP SWAP2 SWAP1 POP JUMP JUMPDEST PUSH1 0x0 PUSH3 0xBC7 DUP3 PUSH3 0xBA6 JUMP JUMPDEST SWAP1 POP SWAP2 SWAP1 POP JUMP JUMPDEST PUSH3 0xBD9 DUP2 PUSH3 0xBBA JUMP JUMPDEST DUP3 MSTORE POP POP JUMP JUMPDEST PUSH1 0x0 PUSH1 0x20 DUP3 ADD SWAP1 POP PUSH3 0xBF6 PUSH1 0x0 DUP4 ADD DUP5 PUSH3 0xBCE JUMP JUMPDEST SWAP3 SWAP2 POP POP JUMP JUMPDEST PUSH3 0xC07 DUP2 PUSH3 0x8A7 JUMP JUMPDEST DUP3 MSTORE POP POP JUMP JUMPDEST PUSH1 0x0 PUSH1 0x20 DUP3 ADD SWAP1 POP PUSH3 0xC24 PUSH1 0x0 DUP4 ADD DUP5 PUSH3 0xBFC JUMP JUMPDEST SWAP3 SWAP2 POP POP JUMP JUMPDEST PUSH1 0x0 DUP2 MLOAD SWAP1 POP PUSH3 0xC3B DUP2 PUSH3 0x8F6 JUMP JUMPDEST SWAP3 SWAP2 POP POP JUMP JUMPDEST PUSH1 0x0 PUSH1 0x20 DUP3 DUP5 SUB SLT ISZERO PUSH3 0xC5A JUMPI PUSH3 0xC59 PUSH3 0x87D JUMP JUMPDEST JUMPDEST PUSH1 0x0 PUSH3 0xC6A DUP5 DUP3 DUP6 ADD PUSH3 0xC2A JUMP JUMPDEST SWAP2 POP POP SWAP3 SWAP2 POP POP JUMP JUMPDEST PUSH1 0x0 DUP2 ISZERO ISZERO SWAP1 POP SWAP2 SWAP1 POP JUMP JUMPDEST PUSH3 0xC8A DUP2 PUSH3 0xC73 JUMP JUMPDEST DUP2 EQ PUSH3 0xC96 JUMPI PUSH1 0x0 DUP1 REVERT JUMPDEST POP JUMP JUMPDEST PUSH1 0x0 DUP2 MLOAD SWAP1 POP PUSH3 0xCAA DUP2 PUSH3 0xC7F JUMP JUMPDEST SWAP3 SWAP2 POP POP JUMP JUMPDEST PUSH1 0x0 PUSH1 0x20 DUP3 DUP5 SUB SLT ISZERO PUSH3 0xCC9 JUMPI PUSH3 0xCC8 PUSH3 0x87D JUMP JUMPDEST JUMPDEST PUSH1 0x0 PUSH3 0xCD9 DUP5 DUP3 DUP6 ADD PUSH3 0xC99 JUMP JUMPDEST SWAP2 POP POP SWAP3 SWAP2 POP POP JUMP JUMPDEST PUSH1 0x0 PUSH8 0xFFFFFFFFFFFFFFFF DUP3 GT ISZERO PUSH3 0xD00 JUMPI PUSH3 0xCFF PUSH3 0x942 JUMP JUMPDEST JUMPDEST PUSH3 0xD0B DUP3 PUSH3 0x931 JUMP JUMPDEST SWAP1 POP PUSH1 0x20 DUP2 ADD SWAP1 POP SWAP2 SWAP1 POP JUMP JUMPDEST PUSH1 0x0 JUMPDEST DUP4 DUP2 LT ISZERO PUSH3 0xD38 JUMPI DUP1 DUP3 ADD MLOAD DUP2 DUP5 ADD MSTORE PUSH1 0x20 DUP2 ADD SWAP1 POP PUSH3 0xD1B JUMP JUMPDEST DUP4 DUP2 GT ISZERO PUSH3 0xD48 JUMPI PUSH1 0x0 DUP5 DUP5 ADD MSTORE JUMPDEST POP POP POP POP JUMP JUMPDEST PUSH1 0x0 PUSH3 0xD65 PUSH3 0xD5F DUP5 PUSH3 0xCE2 JUMP JUMPDEST PUSH3 0x9A7 JUMP JUMPDEST SWAP1 POP DUP3 DUP2 MSTORE PUSH1 0x20 DUP2 ADD DUP5 DUP5 DUP5 ADD GT ISZERO PUSH3 0xD84 JUMPI PUSH3 0xD83 PUSH3 0x92C JUMP JUMPDEST JUMPDEST PUSH3 0xD91 DUP5 DUP3 DUP6 PUSH3 0xD18 JUMP JUMPDEST POP SWAP4 SWAP3 POP POP POP JUMP JUMPDEST PUSH1 0x0 DUP3 PUSH1 0x1F DUP4 ADD SLT PUSH3 0xDB1 JUMPI PUSH3 0xDB0 PUSH3 0x927 JUMP JUMPDEST JUMPDEST DUP2 MLOAD PUSH3 0xDC3 DUP5 DUP3 PUSH1 0x20 DUP7 ADD PUSH3 0xD4E JUMP JUMPDEST SWAP2 POP POP SWAP3 SWAP2 POP POP JUMP JUMPDEST PUSH1 0x0 PUSH1 0x20 DUP3 DUP5 SUB SLT ISZERO PUSH3 0xDE5 JUMPI PUSH3 0xDE4 PUSH3 0x87D JUMP JUMPDEST JUMPDEST PUSH1 0x0 DUP3 ADD MLOAD PUSH8 0xFFFFFFFFFFFFFFFF DUP2 GT ISZERO PUSH3 0xE06 JUMPI PUSH3 0xE05 PUSH3 0x882 JUMP JUMPDEST JUMPDEST PUSH3 0xE14 DUP5 DUP3 DUP6 ADD PUSH3 0xD99 JUMP JUMPDEST SWAP2 POP POP SWAP3 SWAP2 POP POP JUMP JUMPDEST PUSH3 0xE28 DUP2 PUSH3 0x8EC JUMP JUMPDEST DUP3 MSTORE POP POP JUMP JUMPDEST PUSH3 0xE39 DUP2 PUSH3 0xC73 JUMP JUMPDEST DUP3 MSTORE POP POP JUMP JUMPDEST PUSH1 0x0 DUP2 MLOAD SWAP1 POP SWAP2 SWAP1 POP JUMP JUMPDEST PUSH1 0x0 DUP3 DUP3 MSTORE PUSH1 0x20 DUP3 ADD SWAP1 POP SWAP3 SWAP2 POP POP JUMP JUMPDEST PUSH1 0x0 PUSH3 0xE68 DUP3 PUSH3 0xE3F JUMP JUMPDEST PUSH3 0xE74 DUP2 DUP6 PUSH3 0xE4A JUMP JUMPDEST SWAP4 POP PUSH3 0xE86 DUP2 DUP6 PUSH1 0x20 DUP7 ADD PUSH3 0xD18 JUMP JUMPDEST PUSH3 0xE91 DUP2 PUSH3 0x931 JUMP JUMPDEST DUP5 ADD SWAP2 POP POP SWAP3 SWAP2 POP POP JUMP JUMPDEST PUSH1 0x0 PUSH1 0x80 DUP3 ADD SWAP1 POP PUSH3 0xEB3 PUSH1 0x0 DUP4 ADD DUP8 PUSH3 0xE1D JUMP JUMPDEST PUSH3 0xEC2 PUSH1 0x20 DUP4 ADD DUP7 PUSH3 0xE1D JUMP JUMPDEST PUSH3 0xED1 PUSH1 0x40 DUP4 ADD DUP6 PUSH3 0xE2E JUMP JUMPDEST DUP2 DUP2 SUB PUSH1 0x60 DUP4 ADD MSTORE PUSH3 0xEE5 DUP2 DUP5 PUSH3 0xE5B JUMP JUMPDEST SWAP1 POP SWAP6 SWAP5 POP POP POP POP POP JUMP JUMPDEST PUSH1 0x0 PUSH1 0x60 DUP3 ADD SWAP1 POP PUSH3 0xF07 PUSH1 0x0 DUP4 ADD DUP7 PUSH3 0xBFC JUMP JUMPDEST PUSH3 0xF16 PUSH1 0x20 DUP4 ADD DUP6 PUSH3 0xBFC JUMP JUMPDEST PUSH3 0xF25 PUSH1 0x40 DUP4 ADD DUP5 PUSH3 0xE1D JUMP JUMPDEST SWAP5 SWAP4 POP POP POP POP JUMP JUMPDEST PUSH1 0x0 PUSH1 0x20 DUP3 ADD SWAP1 POP PUSH3 0xF44 PUSH1 0x0 DUP4 ADD DUP5 PUSH3 0xE1D JUMP JUMPDEST SWAP3 SWAP2 POP POP JUMP INVALID PUSH1 0x80 PUSH1 0x40 MSTORE CALLVALUE DUP1 ISZERO PUSH3 0x11 JUMPI PUSH1 0x0 DUP1 REVERT JUMPDEST POP PUSH1 0x40 MLOAD DUP1 PUSH1 0x40 ADD PUSH1 0x40 MSTORE DUP1 PUSH1 0xA DUP2 MSTORE PUSH1 0x20 ADD PUSH32 0x626C61626C615F37323100000000000000000000000000000000000000000000 DUP2 MSTORE POP PUSH1 0x40 MLOAD DUP1 PUSH1 0x40 ADD PUSH1 0x40 MSTORE DUP1 PUSH1 0x6 DUP2 MSTORE PUSH1 0x20 ADD PUSH32 0x424C41424C410000000000000000000000000000000000000000000000000000 DUP2 MSTORE POP DUP2 PUSH1 0x0 SWAP1 DUP1 MLOAD SWAP1 PUSH1 0x20 ADD SWAP1 PUSH3 0x96 SWAP3 SWAP2 SWAP1 PUSH3 0x1D3 JUMP JUMPDEST POP DUP1 PUSH1 0x1 SWAP1 DUP1 MLOAD SWAP1 PUSH1 0x20 ADD SWAP1 PUSH3 0xAF SWAP3 SWAP2 SWAP1 PUSH3 0x1D3 JUMP JUMPDEST POP POP POP PUSH3 0xD2 PUSH3 0xC6 PUSH3 0xEF PUSH1 0x20 SHL PUSH1 0x20 SHR JUMP JUMPDEST PUSH3 0xF7 PUSH1 0x20 SHL PUSH1 0x20 SHR JUMP JUMPDEST PUSH3 0xE9 PUSH1 0x7 PUSH3 0x1BD PUSH1 0x20 SHL PUSH3 0x1518 OR PUSH1 0x20 SHR JUMP JUMPDEST PUSH3 0x2E8 JUMP JUMPDEST PUSH1 0x0 CALLER SWAP1 POP SWAP1 JUMP JUMPDEST PUSH1 0x0 PUSH1 0x6 PUSH1 0x0 SWAP1 SLOAD SWAP1 PUSH2 0x100 EXP SWAP1 DIV PUSH20 0xFFFFFFFFFFFFFFFFFFFFFFFFFFFFFFFFFFFFFFFF AND SWAP1 POP DUP2 PUSH1 0x6 PUSH1 0x0 PUSH2 0x100 EXP DUP2 SLOAD DUP2 PUSH20 0xFFFFFFFFFFFFFFFFFFFFFFFFFFFFFFFFFFFFFFFF MUL NOT AND SWAP1 DUP4 PUSH20 0xFFFFFFFFFFFFFFFFFFFFFFFFFFFFFFFFFFFFFFFF AND MUL OR SWAP1 SSTORE POP DUP2 PUSH20 0xFFFFFFFFFFFFFFFFFFFFFFFFFFFFFFFFFFFFFFFF AND DUP2 PUSH20 0xFFFFFFFFFFFFFFFFFFFFFFFFFFFFFFFFFFFFFFFF AND PUSH32 0x8BE0079C531659141344CD1FD0A4F28419497F9722A3DAAFE3B4186F6B6457E0 PUSH1 0x40 MLOAD PUSH1 0x40 MLOAD DUP1 SWAP2 SUB SWAP1 LOG3 POP POP JUMP JUMPDEST PUSH1 0x1 DUP2 PUSH1 0x0 ADD PUSH1 0x0 DUP3 DUP3 SLOAD ADD SWAP3 POP POP DUP2 SWAP1 SSTORE POP POP JUMP JUMPDEST DUP3 DUP1 SLOAD PUSH3 0x1E1 SWAP1 PUSH3 0x2B2 JUMP JUMPDEST SWAP1 PUSH1 0x0 MSTORE PUSH1 0x20 PUSH1 0x0 KECCAK256 SWAP1 PUSH1 0x1F ADD PUSH1 0x20 SWAP1 DIV DUP2 ADD SWAP3 DUP3 PUSH3 0x205 JUMPI PUSH1 0x0 DUP6 SSTORE PUSH3 0x251 JUMP JUMPDEST DUP3 PUSH1 0x1F LT PUSH3 0x220 JUMPI DUP1 MLOAD PUSH1 0xFF NOT AND DUP4 DUP1 ADD OR DUP6 SSTORE PUSH3 0x251 JUMP JUMPDEST DUP3 DUP1 ADD PUSH1 0x1 ADD DUP6 SSTORE DUP3 ISZERO PUSH3 0x251 JUMPI SWAP2 DUP3 ADD JUMPDEST DUP3 DUP2 GT ISZERO PUSH3 0x250 JUMPI DUP3 MLOAD DUP3 SSTORE SWAP2 PUSH1 0x20 ADD SWAP2 SWAP1 PUSH1 0x1 ADD SWAP1 PUSH3 0x233 JUMP JUMPDEST JUMPDEST POP SWAP1 POP PUSH3 0x260 SWAP2 SWAP1 PUSH3 0x264 JUMP JUMPDEST POP SWAP1 JUMP JUMPDEST JUMPDEST DUP1 DUP3 GT ISZERO PUSH3 0x27F JUMPI PUSH1 0x0 DUP2 PUSH1 0x0 SWAP1 SSTORE POP PUSH1 0x1 ADD PUSH3 0x265 JUMP JUMPDEST POP SWAP1 JUMP JUMPDEST PUSH32 0x4E487B7100000000000000000000000000000000000000000000000000000000 PUSH1 0x0 MSTORE PUSH1 0x22 PUSH1 0x4 MSTORE PUSH1 0x24 PUSH1 0x0 REVERT JUMPDEST PUSH1 0x0 PUSH1 0x2 DUP3 DIV SWAP1 POP PUSH1 0x1 DUP3 AND DUP1 PUSH3 0x2CB JUMPI PUSH1 0x7F DUP3 AND SWAP2 POP JUMPDEST PUSH1 0x20 DUP3 LT DUP2 EQ ISZERO PUSH3 0x2E2 JUMPI PUSH3 0x2E1 PUSH3 0x283 JUMP JUMPDEST JUMPDEST POP SWAP2 SWAP1 POP JUMP JUMPDEST PUSH2 0x38A9 DUP1 PUSH3 0x2F8 PUSH1 0x0 CODECOPY PUSH1 0x0 RETURN INVALID PUSH1 0x80 PUSH1 0x40 MSTORE PUSH1 0x4 CALLDATASIZE LT PUSH2 0x21A JUMPI PUSH1 0x0 CALLDATALOAD PUSH1 0xE0 SHR DUP1 PUSH4 0x6352211E GT PUSH2 0x123 JUMPI DUP1 PUSH4 0xA22CB465 GT PUSH2 0xAB JUMPI DUP1 PUSH4 0xC87B56DD GT PUSH2 0x6F JUMPI DUP1 PUSH4 0xC87B56DD EQ PUSH2 0x83B JUMPI DUP1 PUSH4 0xE985E9C5 EQ PUSH2 0x878 JUMPI DUP1 PUSH4 0xEC897772 EQ PUSH2 0x8B5 JUMPI DUP1 PUSH4 0xF2FDE38B EQ PUSH2 0x8DE JUMPI DUP1 PUSH4 0xFF36ED98 EQ PUSH2 0x907 JUMPI PUSH2 0x21A JUMP JUMPDEST DUP1 PUSH4 0xA22CB465 EQ PUSH2 0x72F JUMPI DUP1 PUSH4 0xB75E0750 EQ PUSH2 0x758 JUMPI DUP1 PUSH4 0xB88D4FDE EQ PUSH2 0x798 JUMPI DUP1 PUSH4 0xC5F51F73 EQ PUSH2 0x7C1 JUMPI DUP1 PUSH4 0xC7B9CB0B EQ PUSH2 0x7FE JUMPI PUSH2 0x21A JUMP JUMPDEST DUP1 PUSH4 0x77386DF3 GT PUSH2 0xF2 JUMPI DUP1 PUSH4 0x77386DF3 EQ PUSH2 0x636 JUMPI DUP1 PUSH4 0x8DA5CB5B EQ PUSH2 0x65F JUMPI DUP1 PUSH4 0x929C13E3 EQ PUSH2 0x68A JUMPI DUP1 PUSH4 0x95D89B41 EQ PUSH2 0x6C7 JUMPI DUP1 PUSH4 0xA0C32C8F EQ PUSH2 0x6F2 JUMPI PUSH2 0x21A JUMP JUMPDEST DUP1 PUSH4 0x6352211E EQ PUSH2 0x57C JUMPI DUP1 PUSH4 0x6A627842 EQ PUSH2 0x5B9 JUMPI DUP1 PUSH4 0x70A08231 EQ PUSH2 0x5E2 JUMPI DUP1 PUSH4 0x715018A6 EQ PUSH2 0x61F JUMPI PUSH2 0x21A JUMP JUMPDEST DUP1 PUSH4 0x2A4672B2 GT PUSH2 0x1A6 JUMPI DUP1 PUSH4 0x40D097C3 GT PUSH2 0x175 JUMPI DUP1 PUSH4 0x40D097C3 EQ PUSH2 0x4CC JUMPI DUP1 PUSH4 0x41D30BAE EQ PUSH2 0x4F5 JUMPI DUP1 PUSH4 0x42842E0E EQ PUSH2 0x4FF JUMPI DUP1 PUSH4 0x483D6F76 EQ PUSH2 0x528 JUMPI DUP1 PUSH4 0x4ABDA8C8 EQ PUSH2 0x53F JUMPI PUSH2 0x21A JUMP JUMPDEST DUP1 PUSH4 0x2A4672B2 EQ PUSH2 0x3D8 JUMPI DUP1 PUSH4 0x2F745C59 EQ PUSH2 0x415 JUMPI DUP1 PUSH4 0x32B0F376 EQ PUSH2 0x452 JUMPI DUP1 PUSH4 0x3573DBD1 EQ PUSH2 0x48F JUMPI PUSH2 0x21A JUMP JUMPDEST DUP1 PUSH4 0x1A14E94A GT PUSH2 0x1ED JUMPI DUP1 PUSH4 0x1A14E94A EQ PUSH2 0x2ED JUMPI DUP1 PUSH4 0x21658658 EQ PUSH2 0x309 JUMPI DUP1 PUSH4 0x23B872DD EQ PUSH2 0x334 JUMPI DUP1 PUSH4 0x242A0087 EQ PUSH2 0x35D JUMPI DUP1 PUSH4 0x27AA8F31 EQ PUSH2 0x39B JUMPI PUSH2 0x21A JUMP JUMPDEST DUP1 PUSH4 0x1FFC9A7 EQ PUSH2 0x21F JUMPI DUP1 PUSH4 0x6FDDE03 EQ PUSH2 0x25C JUMPI DUP1 PUSH4 0x81812FC EQ PUSH2 0x287 JUMPI DUP1 PUSH4 0x95EA7B3 EQ PUSH2 0x2C4 JUMPI JUMPDEST PUSH1 0x0 DUP1 REVERT JUMPDEST CALLVALUE DUP1 ISZERO PUSH2 0x22B JUMPI PUSH1 0x0 DUP1 REVERT JUMPDEST POP PUSH2 0x246 PUSH1 0x4 DUP1 CALLDATASIZE SUB DUP2 ADD SWAP1 PUSH2 0x241 SWAP2 SWAP1 PUSH2 0x269A JUMP JUMPDEST PUSH2 0x923 JUMP JUMPDEST PUSH1 0x40 MLOAD PUSH2 0x253 SWAP2 SWAP1 PUSH2 0x26E2 JUMP JUMPDEST PUSH1 0x40 MLOAD DUP1 SWAP2 SUB SWAP1 RETURN JUMPDEST CALLVALUE DUP1 ISZERO PUSH2 0x268 JUMPI PUSH1 0x0 DUP1 REVERT JUMPDEST POP PUSH2 0x271 PUSH2 0xA05 JUMP JUMPDEST PUSH1 0x40 MLOAD PUSH2 0x27E SWAP2 SWAP1 PUSH2 0x2796 JUMP JUMPDEST PUSH1 0x40 MLOAD DUP1 SWAP2 SUB SWAP1 RETURN JUMPDEST CALLVALUE DUP1 ISZERO PUSH2 0x293 JUMPI PUSH1 0x0 DUP1 REVERT JUMPDEST POP PUSH2 0x2AE PUSH1 0x4 DUP1 CALLDATASIZE SUB DUP2 ADD SWAP1 PUSH2 0x2A9 SWAP2 SWAP1 PUSH2 0x27EE JUMP JUMPDEST PUSH2 0xA97 JUMP JUMPDEST PUSH1 0x40 MLOAD PUSH2 0x2BB SWAP2 SWAP1 PUSH2 0x285C JUMP JUMPDEST PUSH1 0x40 MLOAD DUP1 SWAP2 SUB SWAP1 RETURN JUMPDEST CALLVALUE DUP1 ISZERO PUSH2 0x2D0 JUMPI PUSH1 0x0 DUP1 REVERT JUMPDEST POP PUSH2 0x2EB PUSH1 0x4 DUP1 CALLDATASIZE SUB DUP2 ADD SWAP1 PUSH2 0x2E6 SWAP2 SWAP1 PUSH2 0x28A3 JUMP JUMPDEST PUSH2 0xADD JUMP JUMPDEST STOP JUMPDEST PUSH2 0x307 PUSH1 0x4 DUP1 CALLDATASIZE SUB DUP2 ADD SWAP1 PUSH2 0x302 SWAP2 SWAP1 PUSH2 0x27EE JUMP JUMPDEST PUSH2 0xBF5 JUMP JUMPDEST STOP JUMPDEST CALLVALUE DUP1 ISZERO PUSH2 0x315 JUMPI PUSH1 0x0 DUP1 REVERT JUMPDEST POP PUSH2 0x31E PUSH2 0xBF8 JUMP JUMPDEST PUSH1 0x40 MLOAD PUSH2 0x32B SWAP2 SWAP1 PUSH2 0x28F2 JUMP JUMPDEST PUSH1 0x40 MLOAD DUP1 SWAP2 SUB SWAP1 RETURN JUMPDEST CALLVALUE DUP1 ISZERO PUSH2 0x340 JUMPI PUSH1 0x0 DUP1 REVERT JUMPDEST POP PUSH2 0x35B PUSH1 0x4 DUP1 CALLDATASIZE SUB DUP2 ADD SWAP1 PUSH2 0x356 SWAP2 SWAP1 PUSH2 0x290D JUMP JUMPDEST PUSH2 0xC02 JUMP JUMPDEST STOP JUMPDEST CALLVALUE DUP1 ISZERO PUSH2 0x369 JUMPI PUSH1 0x0 DUP1 REVERT JUMPDEST POP PUSH2 0x384 PUSH1 0x4 DUP1 CALLDATASIZE SUB DUP2 ADD SWAP1 PUSH2 0x37F SWAP2 SWAP1 PUSH2 0x27EE JUMP JUMPDEST PUSH2 0xC62 JUMP JUMPDEST PUSH1 0x40 MLOAD PUSH2 0x392 SWAP3 SWAP2 SWAP1 PUSH2 0x2960 JUMP JUMPDEST PUSH1 0x40 MLOAD DUP1 SWAP2 SUB SWAP1 RETURN JUMPDEST CALLVALUE DUP1 ISZERO PUSH2 0x3A7 JUMPI PUSH1 0x0 DUP1 REVERT JUMPDEST POP PUSH2 0x3C2 PUSH1 0x4 DUP1 CALLDATASIZE SUB DUP2 ADD SWAP1 PUSH2 0x3BD SWAP2 SWAP1 PUSH2 0x27EE JUMP JUMPDEST PUSH2 0xC71 JUMP JUMPDEST PUSH1 0x40 MLOAD PUSH2 0x3CF SWAP2 SWAP1 PUSH2 0x285C JUMP JUMPDEST PUSH1 0x40 MLOAD DUP1 SWAP2 SUB SWAP1 RETURN JUMPDEST CALLVALUE DUP1 ISZERO PUSH2 0x3E4 JUMPI PUSH1 0x0 DUP1 REVERT JUMPDEST POP PUSH2 0x3FF PUSH1 0x4 DUP1 CALLDATASIZE SUB DUP2 ADD SWAP1 PUSH2 0x3FA SWAP2 SWAP1 PUSH2 0x27EE JUMP JUMPDEST PUSH2 0xC7B JUMP JUMPDEST PUSH1 0x40 MLOAD PUSH2 0x40C SWAP2 SWAP1 PUSH2 0x28F2 JUMP JUMPDEST PUSH1 0x40 MLOAD DUP1 SWAP2 SUB SWAP1 RETURN JUMPDEST CALLVALUE DUP1 ISZERO PUSH2 0x421 JUMPI PUSH1 0x0 DUP1 REVERT JUMPDEST POP PUSH2 0x43C PUSH1 0x4 DUP1 CALLDATASIZE SUB DUP2 ADD SWAP1 PUSH2 0x437 SWAP2 SWAP1 PUSH2 0x28A3 JUMP JUMPDEST PUSH2 0xC82 JUMP JUMPDEST PUSH1 0x40 MLOAD PUSH2 0x449 SWAP2 SWAP1 PUSH2 0x28F2 JUMP JUMPDEST PUSH1 0x40 MLOAD DUP1 SWAP2 SUB SWAP1 RETURN JUMPDEST CALLVALUE DUP1 ISZERO PUSH2 0x45E JUMPI PUSH1 0x0 DUP1 REVERT JUMPDEST POP PUSH2 0x479 PUSH1 0x4 DUP1 CALLDATASIZE SUB DUP2 ADD SWAP1 PUSH2 0x474 SWAP2 SWAP1 PUSH2 0x2A1A JUMP JUMPDEST PUSH2 0xC8A JUMP JUMPDEST PUSH1 0x40 MLOAD PUSH2 0x486 SWAP2 SWAP1 PUSH2 0x28F2 JUMP JUMPDEST PUSH1 0x40 MLOAD DUP1 SWAP2 SUB SWAP1 RETURN JUMPDEST CALLVALUE DUP1 ISZERO PUSH2 0x49B JUMPI PUSH1 0x0 DUP1 REVERT JUMPDEST POP PUSH2 0x4B6 PUSH1 0x4 DUP1 CALLDATASIZE SUB DUP2 ADD SWAP1 PUSH2 0x4B1 SWAP2 SWAP1 PUSH2 0x27EE JUMP JUMPDEST PUSH2 0xE2F JUMP JUMPDEST PUSH1 0x40 MLOAD PUSH2 0x4C3 SWAP2 SWAP1 PUSH2 0x28F2 JUMP JUMPDEST PUSH1 0x40 MLOAD DUP1 SWAP2 SUB SWAP1 RETURN JUMPDEST CALLVALUE DUP1 ISZERO PUSH2 0x4D8 JUMPI PUSH1 0x0 DUP1 REVERT JUMPDEST POP PUSH2 0x4F3 PUSH1 0x4 DUP1 CALLDATASIZE SUB DUP2 ADD SWAP1 PUSH2 0x4EE SWAP2 SWAP1 PUSH2 0x2AA2 JUMP JUMPDEST PUSH2 0xE36 JUMP JUMPDEST STOP JUMPDEST PUSH2 0x4FD PUSH2 0xE64 JUMP JUMPDEST STOP JUMPDEST CALLVALUE DUP1 ISZERO PUSH2 0x50B JUMPI PUSH1 0x0 DUP1 REVERT JUMPDEST POP PUSH2 0x526 PUSH1 0x4 DUP1 CALLDATASIZE SUB DUP2 ADD SWAP1 PUSH2 0x521 SWAP2 SWAP1 PUSH2 0x290D JUMP JUMPDEST PUSH2 0xF02 JUMP JUMPDEST STOP JUMPDEST CALLVALUE DUP1 ISZERO PUSH2 0x534 JUMPI PUSH1 0x0 DUP1 REVERT JUMPDEST POP PUSH2 0x53D PUSH2 0xF22 JUMP JUMPDEST STOP JUMPDEST CALLVALUE DUP1 ISZERO PUSH2 0x54B JUMPI PUSH1 0x0 DUP1 REVERT JUMPDEST POP PUSH2 0x566 PUSH1 0x4 DUP1 CALLDATASIZE SUB DUP2 ADD SWAP1 PUSH2 0x561 SWAP2 SWAP1 PUSH2 0x27EE JUMP JUMPDEST PUSH2 0xF56 JUMP JUMPDEST PUSH1 0x40 MLOAD PUSH2 0x573 SWAP2 SWAP1 PUSH2 0x26E2 JUMP JUMPDEST PUSH1 0x40 MLOAD DUP1 SWAP2 SUB SWAP1 RETURN JUMPDEST CALLVALUE DUP1 ISZERO PUSH2 0x588 JUMPI PUSH1 0x0 DUP1 REVERT JUMPDEST POP PUSH2 0x5A3 PUSH1 0x4 DUP1 CALLDATASIZE SUB DUP2 ADD SWAP1 PUSH2 0x59E SWAP2 SWAP1 PUSH2 0x27EE JUMP JUMPDEST PUSH2 0xF5D JUMP JUMPDEST PUSH1 0x40 MLOAD PUSH2 0x5B0 SWAP2 SWAP1 PUSH2 0x285C JUMP JUMPDEST PUSH1 0x40 MLOAD DUP1 SWAP2 SUB SWAP1 RETURN JUMPDEST CALLVALUE DUP1 ISZERO PUSH2 0x5C5 JUMPI PUSH1 0x0 DUP1 REVERT JUMPDEST POP PUSH2 0x5E0 PUSH1 0x4 DUP1 CALLDATASIZE SUB DUP2 ADD SWAP1 PUSH2 0x5DB SWAP2 SWAP1 PUSH2 0x2AA2 JUMP JUMPDEST PUSH2 0xFE4 JUMP JUMPDEST STOP JUMPDEST CALLVALUE DUP1 ISZERO PUSH2 0x5EE JUMPI PUSH1 0x0 DUP1 REVERT JUMPDEST POP PUSH2 0x609 PUSH1 0x4 DUP1 CALLDATASIZE SUB DUP2 ADD SWAP1 PUSH2 0x604 SWAP2 SWAP1 PUSH2 0x2AA2 JUMP JUMPDEST PUSH2 0x1012 JUMP JUMPDEST PUSH1 0x40 MLOAD PUSH2 0x616 SWAP2 SWAP1 PUSH2 0x28F2 JUMP JUMPDEST PUSH1 0x40 MLOAD DUP1 SWAP2 SUB SWAP1 RETURN JUMPDEST CALLVALUE DUP1 ISZERO PUSH2 0x62B JUMPI PUSH1 0x0 DUP1 REVERT JUMPDEST POP PUSH2 0x634 PUSH2 0x10CA JUMP JUMPDEST STOP JUMPDEST CALLVALUE DUP1 ISZERO PUSH2 0x642 JUMPI PUSH1 0x0 DUP1 REVERT JUMPDEST POP PUSH2 0x65D PUSH1 0x4 DUP1 CALLDATASIZE SUB DUP2 ADD SWAP1 PUSH2 0x658 SWAP2 SWAP1 PUSH2 0x2ACF JUMP JUMPDEST PUSH2 0x10DE JUMP JUMPDEST STOP JUMPDEST CALLVALUE DUP1 ISZERO PUSH2 0x66B JUMPI PUSH1 0x0 DUP1 REVERT JUMPDEST POP PUSH2 0x674 PUSH2 0x10E2 JUMP JUMPDEST PUSH1 0x40 MLOAD PUSH2 0x681 SWAP2 SWAP1 PUSH2 0x285C JUMP JUMPDEST PUSH1 0x40 MLOAD DUP1 SWAP2 SUB SWAP1 RETURN JUMPDEST CALLVALUE DUP1 ISZERO PUSH2 0x696 JUMPI PUSH1 0x0 DUP1 REVERT JUMPDEST POP PUSH2 0x6B1 PUSH1 0x4 DUP1 CALLDATASIZE SUB DUP2 ADD SWAP1 PUSH2 0x6AC SWAP2 SWAP1 PUSH2 0x2B0F JUMP JUMPDEST PUSH2 0x110C JUMP JUMPDEST PUSH1 0x40 MLOAD PUSH2 0x6BE SWAP2 SWAP1 PUSH2 0x28F2 JUMP JUMPDEST PUSH1 0x40 MLOAD DUP1 SWAP2 SUB SWAP1 RETURN JUMPDEST CALLVALUE DUP1 ISZERO PUSH2 0x6D3 JUMPI PUSH1 0x0 DUP1 REVERT JUMPDEST POP PUSH2 0x6DC PUSH2 0x1119 JUMP JUMPDEST PUSH1 0x40 MLOAD PUSH2 0x6E9 SWAP2 SWAP1 PUSH2 0x2796 JUMP JUMPDEST PUSH1 0x40 MLOAD DUP1 SWAP2 SUB SWAP1 RETURN JUMPDEST CALLVALUE DUP1 ISZERO PUSH2 0x6FE JUMPI PUSH1 0x0 DUP1 REVERT JUMPDEST POP PUSH2 0x719 PUSH1 0x4 DUP1 CALLDATASIZE SUB DUP2 ADD SWAP1 PUSH2 0x714 SWAP2 SWAP1 PUSH2 0x2ACF JUMP JUMPDEST PUSH2 0x11AB JUMP JUMPDEST PUSH1 0x40 MLOAD PUSH2 0x726 SWAP2 SWAP1 PUSH2 0x28F2 JUMP JUMPDEST PUSH1 0x40 MLOAD DUP1 SWAP2 SUB SWAP1 RETURN JUMPDEST CALLVALUE DUP1 ISZERO PUSH2 0x73B JUMPI PUSH1 0x0 DUP1 REVERT JUMPDEST POP PUSH2 0x756 PUSH1 0x4 DUP1 CALLDATASIZE SUB DUP2 ADD SWAP1 PUSH2 0x751 SWAP2 SWAP1 PUSH2 0x2BBE JUMP JUMPDEST PUSH2 0x11B3 JUMP JUMPDEST STOP JUMPDEST CALLVALUE DUP1 ISZERO PUSH2 0x764 JUMPI PUSH1 0x0 DUP1 REVERT JUMPDEST POP PUSH2 0x77F PUSH1 0x4 DUP1 CALLDATASIZE SUB DUP2 ADD SWAP1 PUSH2 0x77A SWAP2 SWAP1 PUSH2 0x27EE JUMP JUMPDEST PUSH2 0x11C9 JUMP JUMPDEST PUSH1 0x40 MLOAD PUSH2 0x78F SWAP5 SWAP4 SWAP3 SWAP2 SWAP1 PUSH2 0x2BFE JUMP JUMPDEST PUSH1 0x40 MLOAD DUP1 SWAP2 SUB SWAP1 RETURN JUMPDEST CALLVALUE DUP1 ISZERO PUSH2 0x7A4 JUMPI PUSH1 0x0 DUP1 REVERT JUMPDEST POP PUSH2 0x7BF PUSH1 0x4 DUP1 CALLDATASIZE SUB DUP2 ADD SWAP1 PUSH2 0x7BA SWAP2 SWAP1 PUSH2 0x2D7A JUMP JUMPDEST PUSH2 0x12D3 JUMP JUMPDEST STOP JUMPDEST CALLVALUE DUP1 ISZERO PUSH2 0x7CD JUMPI PUSH1 0x0 DUP1 REVERT JUMPDEST POP PUSH2 0x7E8 PUSH1 0x4 DUP1 CALLDATASIZE SUB DUP2 ADD SWAP1 PUSH2 0x7E3 SWAP2 SWAP1 PUSH2 0x27EE JUMP JUMPDEST PUSH2 0x1335 JUMP JUMPDEST PUSH1 0x40 MLOAD PUSH2 0x7F5 SWAP2 SWAP1 PUSH2 0x26E2 JUMP JUMPDEST PUSH1 0x40 MLOAD DUP1 SWAP2 SUB SWAP1 RETURN JUMPDEST CALLVALUE DUP1 ISZERO PUSH2 0x80A JUMPI PUSH1 0x0 DUP1 REVERT JUMPDEST POP PUSH2 0x825 PUSH1 0x4 DUP1 CALLDATASIZE SUB DUP2 ADD SWAP1 PUSH2 0x820 SWAP2 SWAP1 PUSH2 0x2AA2 JUMP JUMPDEST PUSH2 0x133C JUMP JUMPDEST PUSH1 0x40 MLOAD PUSH2 0x832 SWAP2 SWAP1 PUSH2 0x26E2 JUMP JUMPDEST PUSH1 0x40 MLOAD DUP1 SWAP2 SUB SWAP1 RETURN JUMPDEST CALLVALUE DUP1 ISZERO PUSH2 0x847 JUMPI PUSH1 0x0 DUP1 REVERT JUMPDEST POP PUSH2 0x862 PUSH1 0x4 DUP1 CALLDATASIZE SUB DUP2 ADD SWAP1 PUSH2 0x85D SWAP2 SWAP1 PUSH2 0x27EE JUMP JUMPDEST PUSH2 0x1392 JUMP JUMPDEST PUSH1 0x40 MLOAD PUSH2 0x86F SWAP2 SWAP1 PUSH2 0x2796 JUMP JUMPDEST PUSH1 0x40 MLOAD DUP1 SWAP2 SUB SWAP1 RETURN JUMPDEST CALLVALUE DUP1 ISZERO PUSH2 0x884 JUMPI PUSH1 0x0 DUP1 REVERT JUMPDEST POP PUSH2 0x89F PUSH1 0x4 DUP1 CALLDATASIZE SUB DUP2 ADD SWAP1 PUSH2 0x89A SWAP2 SWAP1 PUSH2 0x2DFD JUMP JUMPDEST PUSH2 0x13FA JUMP JUMPDEST PUSH1 0x40 MLOAD PUSH2 0x8AC SWAP2 SWAP1 PUSH2 0x26E2 JUMP JUMPDEST PUSH1 0x40 MLOAD DUP1 SWAP2 SUB SWAP1 RETURN JUMPDEST CALLVALUE DUP1 ISZERO PUSH2 0x8C1 JUMPI PUSH1 0x0 DUP1 REVERT JUMPDEST POP PUSH2 0x8DC PUSH1 0x4 DUP1 CALLDATASIZE SUB DUP2 ADD SWAP1 PUSH2 0x8D7 SWAP2 SWAP1 PUSH2 0x27EE JUMP JUMPDEST PUSH2 0x148E JUMP JUMPDEST STOP JUMPDEST CALLVALUE DUP1 ISZERO PUSH2 0x8EA JUMPI PUSH1 0x0 DUP1 REVERT JUMPDEST POP PUSH2 0x905 PUSH1 0x4 DUP1 CALLDATASIZE SUB DUP2 ADD SWAP1 PUSH2 0x900 SWAP2 SWAP1 PUSH2 0x2AA2 JUMP JUMPDEST PUSH2 0x1491 JUMP JUMPDEST STOP JUMPDEST PUSH2 0x921 PUSH1 0x4 DUP1 CALLDATASIZE SUB DUP2 ADD SWAP1 PUSH2 0x91C SWAP2 SWAP1 PUSH2 0x27EE JUMP JUMPDEST PUSH2 0x1515 JUMP JUMPDEST STOP JUMPDEST PUSH1 0x0 PUSH32 0x80AC58CD00000000000000000000000000000000000000000000000000000000 PUSH28 0xFFFFFFFFFFFFFFFFFFFFFFFFFFFFFFFFFFFFFFFFFFFFFFFFFFFFFFFF NOT AND DUP3 PUSH28 0xFFFFFFFFFFFFFFFFFFFFFFFFFFFFFFFFFFFFFFFFFFFFFFFFFFFFFFFF NOT AND EQ DUP1 PUSH2 0x9EE JUMPI POP PUSH32 0x5B5E139F00000000000000000000000000000000000000000000000000000000 PUSH28 0xFFFFFFFFFFFFFFFFFFFFFFFFFFFFFFFFFFFFFFFFFFFFFFFFFFFFFFFF NOT AND DUP3 PUSH28 0xFFFFFFFFFFFFFFFFFFFFFFFFFFFFFFFFFFFFFFFFFFFFFFFFFFFFFFFF NOT AND EQ JUMPDEST DUP1 PUSH2 0x9FE JUMPI POP PUSH2 0x9FD DUP3 PUSH2 0x152E JUMP JUMPDEST JUMPDEST SWAP1 POP SWAP2 SWAP1 POP JUMP JUMPDEST PUSH1 0x60 PUSH1 0x0 DUP1 SLOAD PUSH2 0xA14 SWAP1 PUSH2 0x2E6C JUMP JUMPDEST DUP1 PUSH1 0x1F ADD PUSH1 0x20 DUP1 SWAP2 DIV MUL PUSH1 0x20 ADD PUSH1 0x40 MLOAD SWAP1 DUP2 ADD PUSH1 0x40 MSTORE DUP1 SWAP3 SWAP2 SWAP1 DUP2 DUP2 MSTORE PUSH1 0x20 ADD DUP3 DUP1 SLOAD PUSH2 0xA40 SWAP1 PUSH2 0x2E6C JUMP JUMPDEST DUP1 ISZERO PUSH2 0xA8D JUMPI DUP1 PUSH1 0x1F LT PUSH2 0xA62 JUMPI PUSH2 0x100 DUP1 DUP4 SLOAD DIV MUL DUP4 MSTORE SWAP2 PUSH1 0x20 ADD SWAP2 PUSH2 0xA8D JUMP JUMPDEST DUP3 ADD SWAP2 SWAP1 PUSH1 0x0 MSTORE PUSH1 0x20 PUSH1 0x0 KECCAK256 SWAP1 JUMPDEST DUP2 SLOAD DUP2 MSTORE SWAP1 PUSH1 0x1 ADD SWAP1 PUSH1 0x20 ADD DUP1 DUP4 GT PUSH2 0xA70 JUMPI DUP3 SWAP1 SUB PUSH1 0x1F AND DUP3 ADD SWAP2 JUMPDEST POP POP POP POP POP SWAP1 POP SWAP1 JUMP JUMPDEST PUSH1 0x0 PUSH2 0xAA2 DUP3 PUSH2 0x1598 JUMP JUMPDEST PUSH1 0x4 PUSH1 0x0 DUP4 DUP2 MSTORE PUSH1 0x20 ADD SWAP1 DUP2 MSTORE PUSH1 0x20 ADD PUSH1 0x0 KECCAK256 PUSH1 0x0 SWAP1 SLOAD SWAP1 PUSH2 0x100 EXP SWAP1 DIV PUSH20 0xFFFFFFFFFFFFFFFFFFFFFFFFFFFFFFFFFFFFFFFF AND SWAP1 POP SWAP2 SWAP1 POP JUMP JUMPDEST PUSH1 0x0 PUSH2 0xAE8 DUP3 PUSH2 0xF5D JUMP JUMPDEST SWAP1 POP DUP1 PUSH20 0xFFFFFFFFFFFFFFFFFFFFFFFFFFFFFFFFFFFFFFFF AND DUP4 PUSH20 0xFFFFFFFFFFFFFFFFFFFFFFFFFFFFFFFFFFFFFFFF AND EQ ISZERO PUSH2 0xB59 JUMPI PUSH1 0x40 MLOAD PUSH32 0x8C379A000000000000000000000000000000000000000000000000000000000 DUP2 MSTORE PUSH1 0x4 ADD PUSH2 0xB50 SWAP1 PUSH2 0x2F10 JUMP JUMPDEST PUSH1 0x40 MLOAD DUP1 SWAP2 SUB SWAP1 REVERT JUMPDEST DUP1 PUSH20 0xFFFFFFFFFFFFFFFFFFFFFFFFFFFFFFFFFFFFFFFF AND PUSH2 0xB78 PUSH2 0x15E3 JUMP JUMPDEST PUSH20 0xFFFFFFFFFFFFFFFFFFFFFFFFFFFFFFFFFFFFFFFF AND EQ DUP1 PUSH2 0xBA7 JUMPI POP PUSH2 0xBA6 DUP2 PUSH2 0xBA1 PUSH2 0x15E3 JUMP JUMPDEST PUSH2 0x13FA JUMP JUMPDEST JUMPDEST PUSH2 0xBE6 JUMPI PUSH1 0x40 MLOAD PUSH32 0x8C379A000000000000000000000000000000000000000000000000000000000 DUP2 MSTORE PUSH1 0x4 ADD PUSH2 0xBDD SWAP1 PUSH2 0x2FA2 JUMP JUMPDEST PUSH1 0x40 MLOAD DUP1 SWAP2 SUB SWAP1 REVERT JUMPDEST PUSH2 0xBF0 DUP4 DUP4 PUSH2 0x15EB JUMP JUMPDEST POP POP POP JUMP JUMPDEST POP JUMP JUMPDEST PUSH1 0x0 PUSH1 0xB SLOAD SWAP1 POP SWAP1 JUMP JUMPDEST PUSH2 0xC13 PUSH2 0xC0D PUSH2 0x15E3 JUMP JUMPDEST DUP3 PUSH2 0x16A4 JUMP JUMPDEST PUSH2 0xC52 JUMPI PUSH1 0x40 MLOAD PUSH32 0x8C379A000000000000000000000000000000000000000000000000000000000 DUP2 MSTORE PUSH1 0x4 ADD PUSH2 0xC49 SWAP1 PUSH2 0x3034 JUMP JUMPDEST PUSH1 0x40 MLOAD DUP1 SWAP2 SUB SWAP1 REVERT JUMPDEST PUSH2 0xC5D DUP4 DUP4 DUP4 PUSH2 0x1739 JUMP JUMPDEST POP POP POP JUMP JUMPDEST PUSH1 0x0 DUP1 PUSH1 0x0 DUP1 SWAP2 POP SWAP2 POP SWAP2 POP SWAP2 JUMP JUMPDEST PUSH1 0x0 CALLER SWAP1 POP SWAP2 SWAP1 POP JUMP JUMPDEST PUSH1 0x0 SWAP2 SWAP1 POP JUMP JUMPDEST PUSH1 0x0 SWAP3 SWAP2 POP POP JUMP JUMPDEST PUSH1 0x0 PUSH1 0x9 PUSH1 0x0 SWAP1 SLOAD SWAP1 PUSH2 0x100 EXP SWAP1 DIV PUSH1 0xFF AND ISZERO PUSH2 0xD2E JUMPI PUSH1 0xA PUSH1 0x0 CALLER PUSH20 0xFFFFFFFFFFFFFFFFFFFFFFFFFFFFFFFFFFFFFFFF AND PUSH20 0xFFFFFFFFFFFFFFFFFFFFFFFFFFFFFFFFFFFFFFFF AND DUP2 MSTORE PUSH1 0x20 ADD SWAP1 DUP2 MSTORE PUSH1 0x20 ADD PUSH1 0x0 KECCAK256 PUSH1 0x0 SWAP1 SLOAD SWAP1 PUSH2 0x100 EXP SWAP1 DIV PUSH1 0xFF AND PUSH2 0xD2D JUMPI PUSH1 0x40 MLOAD PUSH32 0x8C379A000000000000000000000000000000000000000000000000000000000 DUP2 MSTORE PUSH1 0x4 ADD PUSH2 0xD24 SWAP1 PUSH2 0x30A0 JUMP JUMPDEST PUSH1 0x40 MLOAD DUP1 SWAP2 SUB SWAP1 REVERT JUMPDEST JUMPDEST PUSH1 0x40 MLOAD DUP1 PUSH1 0x80 ADD PUSH1 0x40 MSTORE DUP1 DUP8 DUP2 MSTORE PUSH1 0x20 ADD DUP7 DUP2 MSTORE PUSH1 0x20 ADD DUP6 ISZERO ISZERO DUP2 MSTORE PUSH1 0x20 ADD DUP5 DUP5 DUP1 DUP1 PUSH1 0x1F ADD PUSH1 0x20 DUP1 SWAP2 DIV MUL PUSH1 0x20 ADD PUSH1 0x40 MLOAD SWAP1 DUP2 ADD PUSH1 0x40 MSTORE DUP1 SWAP4 SWAP3 SWAP2 SWAP1 DUP2 DUP2 MSTORE PUSH1 0x20 ADD DUP4 DUP4 DUP1 DUP3 DUP5 CALLDATACOPY PUSH1 0x0 DUP2 DUP5 ADD MSTORE PUSH1 0x1F NOT PUSH1 0x1F DUP3 ADD AND SWAP1 POP DUP1 DUP4 ADD SWAP3 POP POP POP POP POP POP POP DUP2 MSTORE POP PUSH1 0x8 PUSH1 0x0 PUSH2 0xDA3 PUSH1 0x7 PUSH2 0x1A33 JUMP JUMPDEST DUP2 MSTORE PUSH1 0x20 ADD SWAP1 DUP2 MSTORE PUSH1 0x20 ADD PUSH1 0x0 KECCAK256 PUSH1 0x0 DUP3 ADD MLOAD DUP2 PUSH1 0x0 ADD SSTORE PUSH1 0x20 DUP3 ADD MLOAD DUP2 PUSH1 0x1 ADD SSTORE PUSH1 0x40 DUP3 ADD MLOAD DUP2 PUSH1 0x2 ADD PUSH1 0x0 PUSH2 0x100 EXP DUP2 SLOAD DUP2 PUSH1 0xFF MUL NOT AND SWAP1 DUP4 ISZERO ISZERO MUL OR SWAP1 SSTORE POP PUSH1 0x60 DUP3 ADD MLOAD DUP2 PUSH1 0x3 ADD SWAP1 DUP1 MLOAD SWAP1 PUSH1 0x20 ADD SWAP1 PUSH2 0xE01 SWAP3 SWAP2 SWAP1 PUSH2 0x258B JUMP JUMPDEST POP SWAP1 POP POP PUSH2 0xE0E CALLER PUSH2 0xFE4 JUMP JUMPDEST PUSH1 0x1 PUSH2 0xE1A PUSH1 0x7 PUSH2 0x1A33 JUMP JUMPDEST PUSH2 0xE24 SWAP2 SWAP1 PUSH2 0x30EF JUMP JUMPDEST SWAP1 POP SWAP6 SWAP5 POP POP POP POP POP JUMP JUMPDEST PUSH1 0x0 SWAP2 SWAP1 POP JUMP JUMPDEST PUSH2 0xE3E PUSH2 0x1A41 JUMP JUMPDEST PUSH1 0x0 PUSH2 0xE4A PUSH1 0x7 PUSH2 0x1A33 JUMP JUMPDEST SWAP1 POP PUSH2 0xE56 PUSH1 0x7 PUSH2 0x1518 JUMP JUMPDEST PUSH2 0xE60 DUP3 DUP3 PUSH2 0x1ABF JUMP JUMPDEST POP POP JUMP JUMPDEST PUSH1 0xB SLOAD CALLVALUE EQ PUSH2 0xEA8 JUMPI PUSH1 0x40 MLOAD PUSH32 0x8C379A000000000000000000000000000000000000000000000000000000000 DUP2 MSTORE PUSH1 0x4 ADD PUSH2 0xE9F SWAP1 PUSH2 0x3195 JUMP JUMPDEST PUSH1 0x40 MLOAD DUP1 SWAP2 SUB SWAP1 REVERT JUMPDEST PUSH1 0x1 PUSH1 0xA PUSH1 0x0 CALLER PUSH20 0xFFFFFFFFFFFFFFFFFFFFFFFFFFFFFFFFFFFFFFFF AND PUSH20 0xFFFFFFFFFFFFFFFFFFFFFFFFFFFFFFFFFFFFFFFF AND DUP2 MSTORE PUSH1 0x20 ADD SWAP1 DUP2 MSTORE PUSH1 0x20 ADD PUSH1 0x0 KECCAK256 PUSH1 0x0 PUSH2 0x100 EXP DUP2 SLOAD DUP2 PUSH1 0xFF MUL NOT AND SWAP1 DUP4 ISZERO ISZERO MUL OR SWAP1 SSTORE POP JUMP JUMPDEST PUSH2 0xF1D DUP4 DUP4 DUP4 PUSH1 0x40 MLOAD DUP1 PUSH1 0x20 ADD PUSH1 0x40 MSTORE DUP1 PUSH1 0x0 DUP2 MSTORE POP PUSH2 0x12D3 JUMP JUMPDEST POP POP POP JUMP JUMPDEST PUSH2 0xF2A PUSH2 0x1A41 JUMP JUMPDEST PUSH1 0x9 PUSH1 0x0 SWAP1 SLOAD SWAP1 PUSH2 0x100 EXP SWAP1 DIV PUSH1 0xFF AND ISZERO PUSH1 0x9 PUSH1 0x0 PUSH2 0x100 EXP DUP2 SLOAD DUP2 PUSH1 0xFF MUL NOT AND SWAP1 DUP4 ISZERO ISZERO MUL OR SWAP1 SSTORE POP JUMP JUMPDEST PUSH1 0x0 SWAP2 SWAP1 POP JUMP JUMPDEST PUSH1 0x0 DUP1 PUSH2 0xF69 DUP4 PUSH2 0x1ADD JUMP JUMPDEST SWAP1 POP PUSH1 0x0 PUSH20 0xFFFFFFFFFFFFFFFFFFFFFFFFFFFFFFFFFFFFFFFF AND DUP2 PUSH20 0xFFFFFFFFFFFFFFFFFFFFFFFFFFFFFFFFFFFFFFFF AND EQ ISZERO PUSH2 0xFDB JUMPI PUSH1 0x40 MLOAD PUSH32 0x8C379A000000000000000000000000000000000000000000000000000000000 DUP2 MSTORE PUSH1 0x4 ADD PUSH2 0xFD2 SWAP1 PUSH2 0x3201 JUMP JUMPDEST PUSH1 0x40 MLOAD DUP1 SWAP2 SUB SWAP1 REVERT JUMPDEST DUP1 SWAP2 POP POP SWAP2 SWAP1 POP JUMP JUMPDEST PUSH2 0xFEC PUSH2 0x1A41 JUMP JUMPDEST PUSH1 0x0 PUSH2 0xFF8 PUSH1 0x7 PUSH2 0x1A33 JUMP JUMPDEST SWAP1 POP PUSH2 0x1004 PUSH1 0x7 PUSH2 0x1518 JUMP JUMPDEST PUSH2 0x100E DUP3 DUP3 PUSH2 0x1B1A JUMP JUMPDEST POP POP JUMP JUMPDEST PUSH1 0x0 DUP1 PUSH20 0xFFFFFFFFFFFFFFFFFFFFFFFFFFFFFFFFFFFFFFFF AND DUP3 PUSH20 0xFFFFFFFFFFFFFFFFFFFFFFFFFFFFFFFFFFFFFFFF AND EQ ISZERO PUSH2 0x1083 JUMPI PUSH1 0x40 MLOAD PUSH32 0x8C379A000000000000000000000000000000000000000000000000000000000 DUP2 MSTORE PUSH1 0x4 ADD PUSH2 0x107A SWAP1 PUSH2 0x3293 JUMP JUMPDEST PUSH1 0x40 MLOAD DUP1 SWAP2 SUB SWAP1 REVERT JUMPDEST PUSH1 0x3 PUSH1 0x0 DUP4 PUSH20 0xFFFFFFFFFFFFFFFFFFFFFFFFFFFFFFFFFFFFFFFF AND PUSH20 0xFFFFFFFFFFFFFFFFFFFFFFFFFFFFFFFFFFFFFFFF AND DUP2 MSTORE PUSH1 0x20 ADD SWAP1 DUP2 MSTORE PUSH1 0x20 ADD PUSH1 0x0 KECCAK256 SLOAD SWAP1 POP SWAP2 SWAP1 POP JUMP JUMPDEST PUSH2 0x10D2 PUSH2 0x1A41 JUMP JUMPDEST PUSH2 0x10DC PUSH1 0x0 PUSH2 0x1D38 JUMP JUMPDEST JUMP JUMPDEST POP POP JUMP JUMPDEST PUSH1 0x0 PUSH1 0x6 PUSH1 0x0 SWAP1 SLOAD SWAP1 PUSH2 0x100 EXP SWAP1 DIV PUSH20 0xFFFFFFFFFFFFFFFFFFFFFFFFFFFFFFFFFFFFFFFF AND SWAP1 POP SWAP1 JUMP JUMPDEST PUSH1 0x0 SWAP8 SWAP7 POP POP POP POP POP POP POP JUMP JUMPDEST PUSH1 0x60 PUSH1 0x1 DUP1 SLOAD PUSH2 0x1128 SWAP1 PUSH2 0x2E6C JUMP JUMPDEST DUP1 PUSH1 0x1F ADD PUSH1 0x20 DUP1 SWAP2 DIV MUL PUSH1 0x20 ADD PUSH1 0x40 MLOAD SWAP1 DUP2 ADD PUSH1 0x40 MSTORE DUP1 SWAP3 SWAP2 SWAP1 DUP2 DUP2 MSTORE PUSH1 0x20 ADD DUP3 DUP1 SLOAD PUSH2 0x1154 SWAP1 PUSH2 0x2E6C JUMP JUMPDEST DUP1 ISZERO PUSH2 0x11A1 JUMPI DUP1 PUSH1 0x1F LT PUSH2 0x1176 JUMPI PUSH2 0x100 DUP1 DUP4 SLOAD DIV MUL DUP4 MSTORE SWAP2 PUSH1 0x20 ADD SWAP2 PUSH2 0x11A1 JUMP JUMPDEST DUP3 ADD SWAP2 SWAP1 PUSH1 0x0 MSTORE PUSH1 0x20 PUSH1 0x0 KECCAK256 SWAP1 JUMPDEST DUP2 SLOAD DUP2 MSTORE SWAP1 PUSH1 0x1 ADD SWAP1 PUSH1 0x20 ADD DUP1 DUP4 GT PUSH2 0x1184 JUMPI DUP3 SWAP1 SUB PUSH1 0x1F AND DUP3 ADD SWAP2 JUMPDEST POP POP POP POP POP SWAP1 POP SWAP1 JUMP JUMPDEST PUSH1 0x0 SWAP3 SWAP2 POP POP JUMP JUMPDEST PUSH2 0x11C5 PUSH2 0x11BE PUSH2 0x15E3 JUMP JUMPDEST DUP4 DUP4 PUSH2 0x1DFE JUMP JUMPDEST POP POP JUMP JUMPDEST PUSH1 0x60 PUSH1 0x0 DUP1 PUSH1 0x0 PUSH1 0x8 PUSH1 0x0 DUP7 DUP2 MSTORE PUSH1 0x20 ADD SWAP1 DUP2 MSTORE PUSH1 0x20 ADD PUSH1 0x0 KECCAK256 PUSH1 0x3 ADD PUSH1 0x8 PUSH1 0x0 DUP8 DUP2 MSTORE PUSH1 0x20 ADD SWAP1 DUP2 MSTORE PUSH1 0x20 ADD PUSH1 0x0 KECCAK256 PUSH1 0x2 ADD PUSH1 0x0 SWAP1 SLOAD SWAP1 PUSH2 0x100 EXP SWAP1 DIV PUSH1 0xFF AND PUSH1 0x8 PUSH1 0x0 DUP9 DUP2 MSTORE PUSH1 0x20 ADD SWAP1 DUP2 MSTORE PUSH1 0x20 ADD PUSH1 0x0 KECCAK256 PUSH1 0x1 ADD SLOAD PUSH1 0x8 PUSH1 0x0 DUP10 DUP2 MSTORE PUSH1 0x20 ADD SWAP1 DUP2 MSTORE PUSH1 0x20 ADD PUSH1 0x0 KECCAK256 PUSH1 0x0 ADD SLOAD DUP4 DUP1 SLOAD PUSH2 0x1244 SWAP1 PUSH2 0x2E6C JUMP JUMPDEST DUP1 PUSH1 0x1F ADD PUSH1 0x20 DUP1 SWAP2 DIV MUL PUSH1 0x20 ADD PUSH1 0x40 MLOAD SWAP1 DUP2 ADD PUSH1 0x40 MSTORE DUP1 SWAP3 SWAP2 SWAP1 DUP2 DUP2 MSTORE PUSH1 0x20 ADD DUP3 DUP1 SLOAD PUSH2 0x1270 SWAP1 PUSH2 0x2E6C JUMP JUMPDEST DUP1 ISZERO PUSH2 0x12BD JUMPI DUP1 PUSH1 0x1F LT PUSH2 0x1292 JUMPI PUSH2 0x100 DUP1 DUP4 SLOAD DIV MUL DUP4 MSTORE SWAP2 PUSH1 0x20 ADD SWAP2 PUSH2 0x12BD JUMP JUMPDEST DUP3 ADD SWAP2 SWAP1 PUSH1 0x0 MSTORE PUSH1 0x20 PUSH1 0x0 KECCAK256 SWAP1 JUMPDEST DUP2 SLOAD DUP2 MSTORE SWAP1 PUSH1 0x1 ADD SWAP1 PUSH1 0x20 ADD DUP1 DUP4 GT PUSH2 0x12A0 JUMPI DUP3 SWAP1 SUB PUSH1 0x1F AND DUP3 ADD SWAP2 JUMPDEST POP POP POP POP POP SWAP4 POP SWAP4 POP SWAP4 POP SWAP4 POP SWAP4 POP SWAP2 SWAP4 POP SWAP2 SWAP4 JUMP JUMPDEST PUSH2 0x12E4 PUSH2 0x12DE PUSH2 0x15E3 JUMP JUMPDEST DUP4 PUSH2 0x16A4 JUMP JUMPDEST PUSH2 0x1323 JUMPI PUSH1 0x40 MLOAD PUSH32 0x8C379A000000000000000000000000000000000000000000000000000000000 DUP2 MSTORE PUSH1 0x4 ADD PUSH2 0x131A SWAP1 PUSH2 0x3034 JUMP JUMPDEST PUSH1 0x40 MLOAD DUP1 SWAP2 SUB SWAP1 REVERT JUMPDEST PUSH2 0x132F DUP5 DUP5 DUP5 DUP5 PUSH2 0x1F6B JUMP JUMPDEST POP POP POP POP JUMP JUMPDEST PUSH1 0x0 SWAP2 SWAP1 POP JUMP JUMPDEST PUSH1 0x0 PUSH1 0xA PUSH1 0x0 DUP4 PUSH20 0xFFFFFFFFFFFFFFFFFFFFFFFFFFFFFFFFFFFFFFFF AND PUSH20 0xFFFFFFFFFFFFFFFFFFFFFFFFFFFFFFFFFFFFFFFF AND DUP2 MSTORE PUSH1 0x20 ADD SWAP1 DUP2 MSTORE PUSH1 0x20 ADD PUSH1 0x0 KECCAK256 PUSH1 0x0 SWAP1 SLOAD SWAP1 PUSH2 0x100 EXP SWAP1 DIV PUSH1 0xFF AND SWAP1 POP SWAP2 SWAP1 POP JUMP JUMPDEST PUSH1 0x60 PUSH2 0x139D DUP3 PUSH2 0x1598 JUMP JUMPDEST PUSH1 0x0 PUSH2 0x13A7 PUSH2 0x1FC7 JUMP JUMPDEST SWAP1 POP PUSH1 0x0 DUP2 MLOAD GT PUSH2 0x13C7 JUMPI PUSH1 0x40 MLOAD DUP1 PUSH1 0x20 ADD PUSH1 0x40 MSTORE DUP1 PUSH1 0x0 DUP2 MSTORE POP PUSH2 0x13F2 JUMP JUMPDEST DUP1 PUSH2 0x13D1 DUP5 PUSH2 0x1FDE JUMP JUMPDEST PUSH1 0x40 MLOAD PUSH1 0x20 ADD PUSH2 0x13E2 SWAP3 SWAP2 SWAP1 PUSH2 0x32EF JUMP JUMPDEST PUSH1 0x40 MLOAD PUSH1 0x20 DUP2 DUP4 SUB SUB DUP2 MSTORE SWAP1 PUSH1 0x40 MSTORE JUMPDEST SWAP2 POP POP SWAP2 SWAP1 POP JUMP JUMPDEST PUSH1 0x0 PUSH1 0x5 PUSH1 0x0 DUP5 PUSH20 0xFFFFFFFFFFFFFFFFFFFFFFFFFFFFFFFFFFFFFFFF AND PUSH20 0xFFFFFFFFFFFFFFFFFFFFFFFFFFFFFFFFFFFFFFFF AND DUP2 MSTORE PUSH1 0x20 ADD SWAP1 DUP2 MSTORE PUSH1 0x20 ADD PUSH1 0x0 KECCAK256 PUSH1 0x0 DUP4 PUSH20 0xFFFFFFFFFFFFFFFFFFFFFFFFFFFFFFFFFFFFFFFF AND PUSH20 0xFFFFFFFFFFFFFFFFFFFFFFFFFFFFFFFFFFFFFFFF AND DUP2 MSTORE PUSH1 0x20 ADD SWAP1 DUP2 MSTORE PUSH1 0x20 ADD PUSH1 0x0 KECCAK256 PUSH1 0x0 SWAP1 SLOAD SWAP1 PUSH2 0x100 EXP SWAP1 DIV PUSH1 0xFF AND SWAP1 POP SWAP3 SWAP2 POP POP JUMP JUMPDEST POP JUMP JUMPDEST PUSH2 0x1499 PUSH2 0x1A41 JUMP JUMPDEST PUSH1 0x0 PUSH20 0xFFFFFFFFFFFFFFFFFFFFFFFFFFFFFFFFFFFFFFFF AND DUP2 PUSH20 0xFFFFFFFFFFFFFFFFFFFFFFFFFFFFFFFFFFFFFFFF AND EQ ISZERO PUSH2 0x1509 JUMPI PUSH1 0x40 MLOAD PUSH32 0x8C379A000000000000000000000000000000000000000000000000000000000 DUP2 MSTORE PUSH1 0x4 ADD PUSH2 0x1500 SWAP1 PUSH2 0x3385 JUMP JUMPDEST PUSH1 0x40 MLOAD DUP1 SWAP2 SUB SWAP1 REVERT JUMPDEST PUSH2 0x1512 DUP2 PUSH2 0x1D38 JUMP JUMPDEST POP JUMP JUMPDEST POP JUMP JUMPDEST PUSH1 0x1 DUP2 PUSH1 0x0 ADD PUSH1 0x0 DUP3 DUP3 SLOAD ADD SWAP3 POP POP DUP2 SWAP1 SSTORE POP POP JUMP JUMPDEST PUSH1 0x0 PUSH32 0x1FFC9A700000000000000000000000000000000000000000000000000000000 PUSH28 0xFFFFFFFFFFFFFFFFFFFFFFFFFFFFFFFFFFFFFFFFFFFFFFFFFFFFFFFF NOT AND DUP3 PUSH28 0xFFFFFFFFFFFFFFFFFFFFFFFFFFFFFFFFFFFFFFFFFFFFFFFFFFFFFFFF NOT AND EQ SWAP1 POP SWAP2 SWAP1 POP JUMP JUMPDEST PUSH2 0x15A1 DUP2 PUSH2 0x20B6 JUMP JUMPDEST PUSH2 0x15E0 JUMPI PUSH1 0x40 MLOAD PUSH32 0x8C379A000000000000000000000000000000000000000000000000000000000 DUP2 MSTORE PUSH1 0x4 ADD PUSH2 0x15D7 SWAP1 PUSH2 0x3201 JUMP JUMPDEST PUSH1 0x40 MLOAD DUP1 SWAP2 SUB SWAP1 REVERT JUMPDEST POP JUMP JUMPDEST PUSH1 0x0 CALLER SWAP1 POP SWAP1 JUMP JUMPDEST DUP2 PUSH1 0x4 PUSH1 0x0 DUP4 DUP2 MSTORE PUSH1 0x20 ADD SWAP1 DUP2 MSTORE PUSH1 0x20 ADD PUSH1 0x0 KECCAK256 PUSH1 0x0 PUSH2 0x100 EXP DUP2 SLOAD DUP2 PUSH20 0xFFFFFFFFFFFFFFFFFFFFFFFFFFFFFFFFFFFFFFFF MUL NOT AND SWAP1 DUP4 PUSH20 0xFFFFFFFFFFFFFFFFFFFFFFFFFFFFFFFFFFFFFFFF AND MUL OR SWAP1 SSTORE POP DUP1 DUP3 PUSH20 0xFFFFFFFFFFFFFFFFFFFFFFFFFFFFFFFFFFFFFFFF AND PUSH2 0x165E DUP4 PUSH2 0xF5D JUMP JUMPDEST PUSH20 0xFFFFFFFFFFFFFFFFFFFFFFFFFFFFFFFFFFFFFFFF AND PUSH32 0x8C5BE1E5EBEC7D5BD14F71427D1E84F3DD0314C0F7B2291E5B200AC8C7C3B925 PUSH1 0x40 MLOAD PUSH1 0x40 MLOAD DUP1 SWAP2 SUB SWAP1 LOG4 POP POP JUMP JUMPDEST PUSH1 0x0 DUP1 PUSH2 0x16B0 DUP4 PUSH2 0xF5D JUMP JUMPDEST SWAP1 POP DUP1 PUSH20 0xFFFFFFFFFFFFFFFFFFFFFFFFFFFFFFFFFFFFFFFF AND DUP5 PUSH20 0xFFFFFFFFFFFFFFFFFFFFFFFFFFFFFFFFFFFFFFFF AND EQ DUP1 PUSH2 0x16F2 JUMPI POP PUSH2 0x16F1 DUP2 DUP6 PUSH2 0x13FA JUMP JUMPDEST JUMPDEST DUP1 PUSH2 0x1730 JUMPI POP DUP4 PUSH20 0xFFFFFFFFFFFFFFFFFFFFFFFFFFFFFFFFFFFFFFFF AND PUSH2 0x1718 DUP5 PUSH2 0xA97 JUMP JUMPDEST PUSH20 0xFFFFFFFFFFFFFFFFFFFFFFFFFFFFFFFFFFFFFFFF AND EQ JUMPDEST SWAP2 POP POP SWAP3 SWAP2 POP POP JUMP JUMPDEST DUP3 PUSH20 0xFFFFFFFFFFFFFFFFFFFFFFFFFFFFFFFFFFFFFFFF AND PUSH2 0x1759 DUP3 PUSH2 0xF5D JUMP JUMPDEST PUSH20 0xFFFFFFFFFFFFFFFFFFFFFFFFFFFFFFFFFFFFFFFF AND EQ PUSH2 0x17AF JUMPI PUSH1 0x40 MLOAD PUSH32 0x8C379A000000000000000000000000000000000000000000000000000000000 DUP2 MSTORE PUSH1 0x4 ADD PUSH2 0x17A6 SWAP1 PUSH2 0x3417 JUMP JUMPDEST PUSH1 0x40 MLOAD DUP1 SWAP2 SUB SWAP1 REVERT JUMPDEST PUSH1 0x0 PUSH20 0xFFFFFFFFFFFFFFFFFFFFFFFFFFFFFFFFFFFFFFFF AND DUP3 PUSH20 0xFFFFFFFFFFFFFFFFFFFFFFFFFFFFFFFFFFFFFFFF AND EQ ISZERO PUSH2 0x181F JUMPI PUSH1 0x40 MLOAD PUSH32 0x8C379A000000000000000000000000000000000000000000000000000000000 DUP2 MSTORE PUSH1 0x4 ADD PUSH2 0x1816 SWAP1 PUSH2 0x34A9 JUMP JUMPDEST PUSH1 0x40 MLOAD DUP1 SWAP2 SUB SWAP1 REVERT JUMPDEST PUSH2 0x182C DUP4 DUP4 DUP4 PUSH1 0x1 PUSH2 0x20F7 JUMP JUMPDEST DUP3 PUSH20 0xFFFFFFFFFFFFFFFFFFFFFFFFFFFFFFFFFFFFFFFF AND PUSH2 0x184C DUP3 PUSH2 0xF5D JUMP JUMPDEST PUSH20 0xFFFFFFFFFFFFFFFFFFFFFFFFFFFFFFFFFFFFFFFF AND EQ PUSH2 0x18A2 JUMPI PUSH1 0x40 MLOAD PUSH32 0x8C379A000000000000000000000000000000000000000000000000000000000 DUP2 MSTORE PUSH1 0x4 ADD PUSH2 0x1899 SWAP1 PUSH2 0x3417 JUMP JUMPDEST PUSH1 0x40 MLOAD DUP1 SWAP2 SUB SWAP1 REVERT JUMPDEST PUSH1 0x4 PUSH1 0x0 DUP3 DUP2 MSTORE PUSH1 0x20 ADD SWAP1 DUP2 MSTORE PUSH1 0x20 ADD PUSH1 0x0 KECCAK256 PUSH1 0x0 PUSH2 0x100 EXP DUP2 SLOAD SWAP1 PUSH20 0xFFFFFFFFFFFFFFFFFFFFFFFFFFFFFFFFFFFFFFFF MUL NOT AND SWAP1 SSTORE PUSH1 0x1 PUSH1 0x3 PUSH1 0x0 DUP6 PUSH20 0xFFFFFFFFFFFFFFFFFFFFFFFFFFFFFFFFFFFFFFFF AND PUSH20 0xFFFFFFFFFFFFFFFFFFFFFFFFFFFFFFFFFFFFFFFF AND DUP2 MSTORE PUSH1 0x20 ADD SWAP1 DUP2 MSTORE PUSH1 0x20 ADD PUSH1 0x0 KECCAK256 PUSH1 0x0 DUP3 DUP3 SLOAD SUB SWAP3 POP POP DUP2 SWAP1 SSTORE POP PUSH1 0x1 PUSH1 0x3 PUSH1 0x0 DUP5 PUSH20 0xFFFFFFFFFFFFFFFFFFFFFFFFFFFFFFFFFFFFFFFF AND PUSH20 0xFFFFFFFFFFFFFFFFFFFFFFFFFFFFFFFFFFFFFFFF AND DUP2 MSTORE PUSH1 0x20 ADD SWAP1 DUP2 MSTORE PUSH1 0x20 ADD PUSH1 0x0 KECCAK256 PUSH1 0x0 DUP3 DUP3 SLOAD ADD SWAP3 POP POP DUP2 SWAP1 SSTORE POP DUP2 PUSH1 0x2 PUSH1 0x0 DUP4 DUP2 MSTORE PUSH1 0x20 ADD SWAP1 DUP2 MSTORE PUSH1 0x20 ADD PUSH1 0x0 KECCAK256 PUSH1 0x0 PUSH2 0x100 EXP DUP2 SLOAD DUP2 PUSH20 0xFFFFFFFFFFFFFFFFFFFFFFFFFFFFFFFFFFFFFFFF MUL NOT AND SWAP1 DUP4 PUSH20 0xFFFFFFFFFFFFFFFFFFFFFFFFFFFFFFFFFFFFFFFF AND MUL OR SWAP1 SSTORE POP DUP1 DUP3 PUSH20 0xFFFFFFFFFFFFFFFFFFFFFFFFFFFFFFFFFFFFFFFF AND DUP5 PUSH20 0xFFFFFFFFFFFFFFFFFFFFFFFFFFFFFFFFFFFFFFFF AND PUSH32 0xDDF252AD1BE2C89B69C2B068FC378DAA952BA7F163C4A11628F55A4DF523B3EF PUSH1 0x40 MLOAD PUSH1 0x40 MLOAD DUP1 SWAP2 SUB SWAP1 LOG4 PUSH2 0x1A2E DUP4 DUP4 DUP4 PUSH1 0x1 PUSH2 0x221D JUMP JUMPDEST POP POP POP JUMP JUMPDEST PUSH1 0x0 DUP2 PUSH1 0x0 ADD SLOAD SWAP1 POP SWAP2 SWAP1 POP JUMP JUMPDEST PUSH2 0x1A49 PUSH2 0x15E3 JUMP JUMPDEST PUSH20 0xFFFFFFFFFFFFFFFFFFFFFFFFFFFFFFFFFFFFFFFF AND PUSH2 0x1A67 PUSH2 0x10E2 JUMP JUMPDEST PUSH20 0xFFFFFFFFFFFFFFFFFFFFFFFFFFFFFFFFFFFFFFFF AND EQ PUSH2 0x1ABD JUMPI PUSH1 0x40 MLOAD PUSH32 0x8C379A000000000000000000000000000000000000000000000000000000000 DUP2 MSTORE PUSH1 0x4 ADD PUSH2 0x1AB4 SWAP1 PUSH2 0x3515 JUMP JUMPDEST PUSH1 0x40 MLOAD DUP1 SWAP2 SUB SWAP1 REVERT JUMPDEST JUMP JUMPDEST PUSH2 0x1AD9 DUP3 DUP3 PUSH1 0x40 MLOAD DUP1 PUSH1 0x20 ADD PUSH1 0x40 MSTORE DUP1 PUSH1 0x0 DUP2 MSTORE POP PUSH2 0x2223 JUMP JUMPDEST POP POP JUMP JUMPDEST PUSH1 0x0 PUSH1 0x2 PUSH1 0x0 DUP4 DUP2 MSTORE PUSH1 0x20 ADD SWAP1 DUP2 MSTORE PUSH1 0x20 ADD PUSH1 0x0 KECCAK256 PUSH1 0x0 SWAP1 SLOAD SWAP1 PUSH2 0x100 EXP SWAP1 DIV PUSH20 0xFFFFFFFFFFFFFFFFFFFFFFFFFFFFFFFFFFFFFFFF AND SWAP1 POP SWAP2 SWAP1 POP JUMP JUMPDEST PUSH1 0x0 PUSH20 0xFFFFFFFFFFFFFFFFFFFFFFFFFFFFFFFFFFFFFFFF AND DUP3 PUSH20 0xFFFFFFFFFFFFFFFFFFFFFFFFFFFFFFFFFFFFFFFF AND EQ ISZERO PUSH2 0x1B8A JUMPI PUSH1 0x40 MLOAD PUSH32 0x8C379A000000000000000000000000000000000000000000000000000000000 DUP2 MSTORE PUSH1 0x4 ADD PUSH2 0x1B81 SWAP1 PUSH2 0x3581 JUMP JUMPDEST PUSH1 0x40 MLOAD DUP1 SWAP2 SUB SWAP1 REVERT JUMPDEST PUSH2 0x1B93 DUP2 PUSH2 0x20B6 JUMP JUMPDEST ISZERO PUSH2 0x1BD3 JUMPI PUSH1 0x40 MLOAD PUSH32 0x8C379A000000000000000000000000000000000000000000000000000000000 DUP2 MSTORE PUSH1 0x4 ADD PUSH2 0x1BCA SWAP1 PUSH2 0x35ED JUMP JUMPDEST PUSH1 0x40 MLOAD DUP1 SWAP2 SUB SWAP1 REVERT JUMPDEST PUSH2 0x1BE1 PUSH1 0x0 DUP4 DUP4 PUSH1 0x1 PUSH2 0x20F7 JUMP JUMPDEST PUSH2 0x1BEA DUP2 PUSH2 0x20B6 JUMP JUMPDEST ISZERO PUSH2 0x1C2A JUMPI PUSH1 0x40 MLOAD PUSH32 0x8C379A000000000000000000000000000000000000000000000000000000000 DUP2 MSTORE PUSH1 0x4 ADD PUSH2 0x1C21 SWAP1 PUSH2 0x35ED JUMP JUMPDEST PUSH1 0x40 MLOAD DUP1 SWAP2 SUB SWAP1 REVERT JUMPDEST PUSH1 0x1 PUSH1 0x3 PUSH1 0x0 DUP5 PUSH20 0xFFFFFFFFFFFFFFFFFFFFFFFFFFFFFFFFFFFFFFFF AND PUSH20 0xFFFFFFFFFFFFFFFFFFFFFFFFFFFFFFFFFFFFFFFF AND DUP2 MSTORE PUSH1 0x20 ADD SWAP1 DUP2 MSTORE PUSH1 0x20 ADD PUSH1 0x0 KECCAK256 PUSH1 0x0 DUP3 DUP3 SLOAD ADD SWAP3 POP POP DUP2 SWAP1 SSTORE POP DUP2 PUSH1 0x2 PUSH1 0x0 DUP4 DUP2 MSTORE PUSH1 0x20 ADD SWAP1 DUP2 MSTORE PUSH1 0x20 ADD PUSH1 0x0 KECCAK256 PUSH1 0x0 PUSH2 0x100 EXP DUP2 SLOAD DUP2 PUSH20 0xFFFFFFFFFFFFFFFFFFFFFFFFFFFFFFFFFFFFFFFF MUL NOT AND SWAP1 DUP4 PUSH20 0xFFFFFFFFFFFFFFFFFFFFFFFFFFFFFFFFFFFFFFFF AND MUL OR SWAP1 SSTORE POP DUP1 DUP3 PUSH20 0xFFFFFFFFFFFFFFFFFFFFFFFFFFFFFFFFFFFFFFFF AND PUSH1 0x0 PUSH20 0xFFFFFFFFFFFFFFFFFFFFFFFFFFFFFFFFFFFFFFFF AND PUSH32 0xDDF252AD1BE2C89B69C2B068FC378DAA952BA7F163C4A11628F55A4DF523B3EF PUSH1 0x40 MLOAD PUSH1 0x40 MLOAD DUP1 SWAP2 SUB SWAP1 LOG4 PUSH2 0x1D34 PUSH1 0x0 DUP4 DUP4 PUSH1 0x1 PUSH2 0x221D JUMP JUMPDEST POP POP JUMP JUMPDEST PUSH1 0x0 PUSH1 0x6 PUSH1 0x0 SWAP1 SLOAD SWAP1 PUSH2 0x100 EXP SWAP1 DIV PUSH20 0xFFFFFFFFFFFFFFFFFFFFFFFFFFFFFFFFFFFFFFFF AND SWAP1 POP DUP2 PUSH1 0x6 PUSH1 0x0 PUSH2 0x100 EXP DUP2 SLOAD DUP2 PUSH20 0xFFFFFFFFFFFFFFFFFFFFFFFFFFFFFFFFFFFFFFFF MUL NOT AND SWAP1 DUP4 PUSH20 0xFFFFFFFFFFFFFFFFFFFFFFFFFFFFFFFFFFFFFFFF AND MUL OR SWAP1 SSTORE POP DUP2 PUSH20 0xFFFFFFFFFFFFFFFFFFFFFFFFFFFFFFFFFFFFFFFF AND DUP2 PUSH20 0xFFFFFFFFFFFFFFFFFFFFFFFFFFFFFFFFFFFFFFFF AND PUSH32 0x8BE0079C531659141344CD1FD0A4F28419497F9722A3DAAFE3B4186F6B6457E0 PUSH1 0x40 MLOAD PUSH1 0x40 MLOAD DUP1 SWAP2 SUB SWAP1 LOG3 POP POP JUMP JUMPDEST DUP2 PUSH20 0xFFFFFFFFFFFFFFFFFFFFFFFFFFFFFFFFFFFFFFFF AND DUP4 PUSH20 0xFFFFFFFFFFFFFFFFFFFFFFFFFFFFFFFFFFFFFFFF AND EQ ISZERO PUSH2 0x1E6D JUMPI PUSH1 0x40 MLOAD PUSH32 0x8C379A000000000000000000000000000000000000000000000000000000000 DUP2 MSTORE PUSH1 0x4 ADD PUSH2 0x1E64 SWAP1 PUSH2 0x3659 JUMP JUMPDEST PUSH1 0x40 MLOAD DUP1 SWAP2 SUB SWAP1 REVERT JUMPDEST DUP1 PUSH1 0x5 PUSH1 0x0 DUP6 PUSH20 0xFFFFFFFFFFFFFFFFFFFFFFFFFFFFFFFFFFFFFFFF AND PUSH20 0xFFFFFFFFFFFFFFFFFFFFFFFFFFFFFFFFFFFFFFFF AND DUP2 MSTORE PUSH1 0x20 ADD SWAP1 DUP2 MSTORE PUSH1 0x20 ADD PUSH1 0x0 KECCAK256 PUSH1 0x0 DUP5 PUSH20 0xFFFFFFFFFFFFFFFFFFFFFFFFFFFFFFFFFFFFFFFF AND PUSH20 0xFFFFFFFFFFFFFFFFFFFFFFFFFFFFFFFFFFFFFFFF AND DUP2 MSTORE PUSH1 0x20 ADD SWAP1 DUP2 MSTORE PUSH1 0x20 ADD PUSH1 0x0 KECCAK256 PUSH1 0x0 PUSH2 0x100 EXP DUP2 SLOAD DUP2 PUSH1 0xFF MUL NOT AND SWAP1 DUP4 ISZERO ISZERO MUL OR SWAP1 SSTORE POP DUP2 PUSH20 0xFFFFFFFFFFFFFFFFFFFFFFFFFFFFFFFFFFFFFFFF AND DUP4 PUSH20 0xFFFFFFFFFFFFFFFFFFFFFFFFFFFFFFFFFFFFFFFF AND PUSH32 0x17307EAB39AB6107E8899845AD3D59BD9653F200F220920489CA2B5937696C31 DUP4 PUSH1 0x40 MLOAD PUSH2 0x1F5E SWAP2 SWAP1 PUSH2 0x26E2 JUMP JUMPDEST PUSH1 0x40 MLOAD DUP1 SWAP2 SUB SWAP1 LOG3 POP POP POP JUMP JUMPDEST PUSH2 0x1F76 DUP5 DUP5 DUP5 PUSH2 0x1739 JUMP JUMPDEST PUSH2 0x1F82 DUP5 DUP5 DUP5 DUP5 PUSH2 0x227E JUMP JUMPDEST PUSH2 0x1FC1 JUMPI PUSH1 0x40 MLOAD PUSH32 0x8C379A000000000000000000000000000000000000000000000000000000000 DUP2 MSTORE PUSH1 0x4 ADD PUSH2 0x1FB8 SWAP1 PUSH2 0x36EB JUMP JUMPDEST PUSH1 0x40 MLOAD DUP1 SWAP2 SUB SWAP1 REVERT JUMPDEST POP POP POP POP JUMP JUMPDEST PUSH1 0x60 PUSH1 0x40 MLOAD DUP1 PUSH1 0x20 ADD PUSH1 0x40 MSTORE DUP1 PUSH1 0x0 DUP2 MSTORE POP SWAP1 POP SWAP1 JUMP JUMPDEST PUSH1 0x60 PUSH1 0x0 PUSH1 0x1 PUSH2 0x1FED DUP5 PUSH2 0x2415 JUMP JUMPDEST ADD SWAP1 POP PUSH1 0x0 DUP2 PUSH8 0xFFFFFFFFFFFFFFFF DUP2 GT ISZERO PUSH2 0x200C JUMPI PUSH2 0x200B PUSH2 0x2C4F JUMP JUMPDEST JUMPDEST PUSH1 0x40 MLOAD SWAP1 DUP1 DUP3 MSTORE DUP1 PUSH1 0x1F ADD PUSH1 0x1F NOT AND PUSH1 0x20 ADD DUP3 ADD PUSH1 0x40 MSTORE DUP1 ISZERO PUSH2 0x203E JUMPI DUP2 PUSH1 0x20 ADD PUSH1 0x1 DUP3 MUL DUP1 CALLDATASIZE DUP4 CALLDATACOPY DUP1 DUP3 ADD SWAP2 POP POP SWAP1 POP JUMPDEST POP SWAP1 POP PUSH1 0x0 DUP3 PUSH1 0x20 ADD DUP3 ADD SWAP1 POP JUMPDEST PUSH1 0x1 ISZERO PUSH2 0x20AB JUMPI DUP1 DUP1 PUSH1 0x1 SWAP1 SUB SWAP2 POP POP PUSH32 0x3031323334353637383961626364656600000000000000000000000000000000 PUSH1 0xA DUP7 MOD BYTE DUP2 MSTORE8 PUSH1 0xA DUP6 DUP2 PUSH2 0x2095 JUMPI PUSH2 0x2094 PUSH2 0x370B JUMP JUMPDEST JUMPDEST DIV SWAP5 POP PUSH1 0x0 DUP6 EQ ISZERO PUSH2 0x20A6 JUMPI PUSH2 0x20AB JUMP JUMPDEST PUSH2 0x204C JUMP JUMPDEST DUP2 SWAP4 POP POP POP POP SWAP2 SWAP1 POP JUMP JUMPDEST PUSH1 0x0 DUP1 PUSH20 0xFFFFFFFFFFFFFFFFFFFFFFFFFFFFFFFFFFFFFFFF AND PUSH2 0x20D8 DUP4 PUSH2 0x1ADD JUMP JUMPDEST PUSH20 0xFFFFFFFFFFFFFFFFFFFFFFFFFFFFFFFFFFFFFFFF AND EQ ISZERO SWAP1 POP SWAP2 SWAP1 POP JUMP JUMPDEST PUSH1 0x1 DUP2 GT ISZERO PUSH2 0x2217 JUMPI PUSH1 0x0 PUSH20 0xFFFFFFFFFFFFFFFFFFFFFFFFFFFFFFFFFFFFFFFF AND DUP5 PUSH20 0xFFFFFFFFFFFFFFFFFFFFFFFFFFFFFFFFFFFFFFFF AND EQ PUSH2 0x218B JUMPI DUP1 PUSH1 0x3 PUSH1 0x0 DUP7 PUSH20 0xFFFFFFFFFFFFFFFFFFFFFFFFFFFFFFFFFFFFFFFF AND PUSH20 0xFFFFFFFFFFFFFFFFFFFFFFFFFFFFFFFFFFFFFFFF AND DUP2 MSTORE PUSH1 0x20 ADD SWAP1 DUP2 MSTORE PUSH1 0x20 ADD PUSH1 0x0 KECCAK256 PUSH1 0x0 DUP3 DUP3 SLOAD PUSH2 0x2183 SWAP2 SWAP1 PUSH2 0x30EF JUMP JUMPDEST SWAP3 POP POP DUP2 SWAP1 SSTORE POP JUMPDEST PUSH1 0x0 PUSH20 0xFFFFFFFFFFFFFFFFFFFFFFFFFFFFFFFFFFFFFFFF AND DUP4 PUSH20 0xFFFFFFFFFFFFFFFFFFFFFFFFFFFFFFFFFFFFFFFF AND EQ PUSH2 0x2216 JUMPI DUP1 PUSH1 0x3 PUSH1 0x0 DUP6 PUSH20 0xFFFFFFFFFFFFFFFFFFFFFFFFFFFFFFFFFFFFFFFF AND PUSH20 0xFFFFFFFFFFFFFFFFFFFFFFFFFFFFFFFFFFFFFFFF AND DUP2 MSTORE PUSH1 0x20 ADD SWAP1 DUP2 MSTORE PUSH1 0x20 ADD PUSH1 0x0 KECCAK256 PUSH1 0x0 DUP3 DUP3 SLOAD PUSH2 0x220E SWAP2 SWAP1 PUSH2 0x373A JUMP JUMPDEST SWAP3 POP POP DUP2 SWAP1 SSTORE POP JUMPDEST JUMPDEST POP POP POP POP JUMP JUMPDEST POP POP POP POP JUMP JUMPDEST PUSH2 0x222D DUP4 DUP4 PUSH2 0x1B1A JUMP JUMPDEST PUSH2 0x223A PUSH1 0x0 DUP5 DUP5 DUP5 PUSH2 0x227E JUMP JUMPDEST PUSH2 0x2279 JUMPI PUSH1 0x40 MLOAD PUSH32 0x8C379A000000000000000000000000000000000000000000000000000000000 DUP2 MSTORE PUSH1 0x4 ADD PUSH2 0x2270 SWAP1 PUSH2 0x36EB JUMP JUMPDEST PUSH1 0x40 MLOAD DUP1 SWAP2 SUB SWAP1 REVERT JUMPDEST POP POP POP JUMP JUMPDEST PUSH1 0x0 PUSH2 0x229F DUP5 PUSH20 0xFFFFFFFFFFFFFFFFFFFFFFFFFFFFFFFFFFFFFFFF AND PUSH2 0x2568 JUMP JUMPDEST ISZERO PUSH2 0x2408 JUMPI DUP4 PUSH20 0xFFFFFFFFFFFFFFFFFFFFFFFFFFFFFFFFFFFFFFFF AND PUSH4 0x150B7A02 PUSH2 0x22C8 PUSH2 0x15E3 JUMP JUMPDEST DUP8 DUP7 DUP7 PUSH1 0x40 MLOAD DUP6 PUSH4 0xFFFFFFFF AND PUSH1 0xE0 SHL DUP2 MSTORE PUSH1 0x4 ADD PUSH2 0x22EA SWAP5 SWAP4 SWAP3 SWAP2 SWAP1 PUSH2 0x37E5 JUMP JUMPDEST PUSH1 0x20 PUSH1 0x40 MLOAD DUP1 DUP4 SUB DUP2 PUSH1 0x0 DUP8 DUP1 EXTCODESIZE ISZERO DUP1 ISZERO PUSH2 0x2304 JUMPI PUSH1 0x0 DUP1 REVERT JUMPDEST POP GAS CALL SWAP3 POP POP POP DUP1 ISZERO PUSH2 0x2335 JUMPI POP PUSH1 0x40 MLOAD RETURNDATASIZE PUSH1 0x1F NOT PUSH1 0x1F DUP3 ADD AND DUP3 ADD DUP1 PUSH1 0x40 MSTORE POP DUP2 ADD SWAP1 PUSH2 0x2332 SWAP2 SWAP1 PUSH2 0x3846 JUMP JUMPDEST PUSH1 0x1 JUMPDEST PUSH2 0x23B8 JUMPI RETURNDATASIZE DUP1 PUSH1 0x0 DUP2 EQ PUSH2 0x2365 JUMPI PUSH1 0x40 MLOAD SWAP2 POP PUSH1 0x1F NOT PUSH1 0x3F RETURNDATASIZE ADD AND DUP3 ADD PUSH1 0x40 MSTORE RETURNDATASIZE DUP3 MSTORE RETURNDATASIZE PUSH1 0x0 PUSH1 0x20 DUP5 ADD RETURNDATACOPY PUSH2 0x236A JUMP JUMPDEST PUSH1 0x60 SWAP2 POP JUMPDEST POP PUSH1 0x0 DUP2 MLOAD EQ ISZERO PUSH2 0x23B0 JUMPI PUSH1 0x40 MLOAD PUSH32 0x8C379A000000000000000000000000000000000000000000000000000000000 DUP2 MSTORE PUSH1 0x4 ADD PUSH2 0x23A7 SWAP1 PUSH2 0x36EB JUMP JUMPDEST PUSH1 0x40 MLOAD DUP1 SWAP2 SUB SWAP1 REVERT JUMPDEST DUP1 MLOAD DUP2 PUSH1 0x20 ADD REVERT JUMPDEST PUSH4 0x150B7A02 PUSH1 0xE0 SHL PUSH28 0xFFFFFFFFFFFFFFFFFFFFFFFFFFFFFFFFFFFFFFFFFFFFFFFFFFFFFFFF NOT AND DUP2 PUSH28 0xFFFFFFFFFFFFFFFFFFFFFFFFFFFFFFFFFFFFFFFFFFFFFFFFFFFFFFFF NOT AND EQ SWAP2 POP POP PUSH2 0x240D JUMP JUMPDEST PUSH1 0x1 SWAP1 POP JUMPDEST SWAP5 SWAP4 POP POP POP POP JUMP JUMPDEST PUSH1 0x0 DUP1 PUSH1 0x0 SWAP1 POP PUSH27 0x184F03E93FF9F4DAA797ED6E38ED64BF6A1F010000000000000000 DUP4 LT PUSH2 0x2473 JUMPI PUSH27 0x184F03E93FF9F4DAA797ED6E38ED64BF6A1F010000000000000000 DUP4 DUP2 PUSH2 0x2469 JUMPI PUSH2 0x2468 PUSH2 0x370B JUMP JUMPDEST JUMPDEST DIV SWAP3 POP PUSH1 0x40 DUP2 ADD SWAP1 POP JUMPDEST PUSH14 0x4EE2D6D415B85ACEF8100000000 DUP4 LT PUSH2 0x24B0 JUMPI PUSH14 0x4EE2D6D415B85ACEF8100000000 DUP4 DUP2 PUSH2 0x24A6 JUMPI PUSH2 0x24A5 PUSH2 0x370B JUMP JUMPDEST JUMPDEST DIV SWAP3 POP PUSH1 0x20 DUP2 ADD SWAP1 POP JUMPDEST PUSH7 0x2386F26FC10000 DUP4 LT PUSH2 0x24DF JUMPI PUSH7 0x2386F26FC10000 DUP4 DUP2 PUSH2 0x24D5 JUMPI PUSH2 0x24D4 PUSH2 0x370B JUMP JUMPDEST JUMPDEST DIV SWAP3 POP PUSH1 0x10 DUP2 ADD SWAP1 POP JUMPDEST PUSH4 0x5F5E100 DUP4 LT PUSH2 0x2508 JUMPI PUSH4 0x5F5E100 DUP4 DUP2 PUSH2 0x24FE JUMPI PUSH2 0x24FD PUSH2 0x370B JUMP JUMPDEST JUMPDEST DIV SWAP3 POP PUSH1 0x8 DUP2 ADD SWAP1 POP JUMPDEST PUSH2 0x2710 DUP4 LT PUSH2 0x252D JUMPI PUSH2 0x2710 DUP4 DUP2 PUSH2 0x2523 JUMPI PUSH2 0x2522 PUSH2 0x370B JUMP JUMPDEST JUMPDEST DIV SWAP3 POP PUSH1 0x4 DUP2 ADD SWAP1 POP JUMPDEST PUSH1 0x64 DUP4 LT PUSH2 0x2550 JUMPI PUSH1 0x64 DUP4 DUP2 PUSH2 0x2546 JUMPI PUSH2 0x2545 PUSH2 0x370B JUMP JUMPDEST JUMPDEST DIV SWAP3 POP PUSH1 0x2 DUP2 ADD SWAP1 POP JUMPDEST PUSH1 0xA DUP4 LT PUSH2 0x255F JUMPI PUSH1 0x1 DUP2 ADD SWAP1 POP JUMPDEST DUP1 SWAP2 POP POP SWAP2 SWAP1 POP JUMP JUMPDEST PUSH1 0x0 DUP1 DUP3 PUSH20 0xFFFFFFFFFFFFFFFFFFFFFFFFFFFFFFFFFFFFFFFF AND EXTCODESIZE GT SWAP1 POP SWAP2 SWAP1 POP JUMP JUMPDEST DUP3 DUP1 SLOAD PUSH2 0x2597 SWAP1 PUSH2 0x2E6C JUMP JUMPDEST SWAP1 PUSH1 0x0 MSTORE PUSH1 0x20 PUSH1 0x0 KECCAK256 SWAP1 PUSH1 0x1F ADD PUSH1 0x20 SWAP1 DIV DUP2 ADD SWAP3 DUP3 PUSH2 0x25B9 JUMPI PUSH1 0x0 DUP6 SSTORE PUSH2 0x2600 JUMP JUMPDEST DUP3 PUSH1 0x1F LT PUSH2 0x25D2 JUMPI DUP1 MLOAD PUSH1 0xFF NOT AND DUP4 DUP1 ADD OR DUP6 SSTORE PUSH2 0x2600 JUMP JUMPDEST DUP3 DUP1 ADD PUSH1 0x1 ADD DUP6 SSTORE DUP3 ISZERO PUSH2 0x2600 JUMPI SWAP2 DUP3 ADD JUMPDEST DUP3 DUP2 GT ISZERO PUSH2 0x25FF JUMPI DUP3 MLOAD DUP3 SSTORE SWAP2 PUSH1 0x20 ADD SWAP2 SWAP1 PUSH1 0x1 ADD SWAP1 PUSH2 0x25E4 JUMP JUMPDEST JUMPDEST POP SWAP1 POP PUSH2 0x260D SWAP2 SWAP1 PUSH2 0x2611 JUMP JUMPDEST POP SWAP1 JUMP JUMPDEST JUMPDEST DUP1 DUP3 GT ISZERO PUSH2 0x262A JUMPI PUSH1 0x0 DUP2 PUSH1 0x0 SWAP1 SSTORE POP PUSH1 0x1 ADD PUSH2 0x2612 JUMP JUMPDEST POP SWAP1 JUMP JUMPDEST PUSH1 0x0 PUSH1 0x40 MLOAD SWAP1 POP SWAP1 JUMP JUMPDEST PUSH1 0x0 DUP1 REVERT JUMPDEST PUSH1 0x0 DUP1 REVERT JUMPDEST PUSH1 0x0 PUSH32 0xFFFFFFFF00000000000000000000000000000000000000000000000000000000 DUP3 AND SWAP1 POP SWAP2 SWAP1 POP JUMP JUMPDEST PUSH2 0x2677 DUP2 PUSH2 0x2642 JUMP JUMPDEST DUP2 EQ PUSH2 0x2682 JUMPI PUSH1 0x0 DUP1 REVERT JUMPDEST POP JUMP JUMPDEST PUSH1 0x0 DUP2 CALLDATALOAD SWAP1 POP PUSH2 0x2694 DUP2 PUSH2 0x266E JUMP JUMPDEST SWAP3 SWAP2 POP POP JUMP JUMPDEST PUSH1 0x0 PUSH1 0x20 DUP3 DUP5 SUB SLT ISZERO PUSH2 0x26B0 JUMPI PUSH2 0x26AF PUSH2 0x2638 JUMP JUMPDEST JUMPDEST PUSH1 0x0 PUSH2 0x26BE DUP5 DUP3 DUP6 ADD PUSH2 0x2685 JUMP JUMPDEST SWAP2 POP POP SWAP3 SWAP2 POP POP JUMP JUMPDEST PUSH1 0x0 DUP2 ISZERO ISZERO SWAP1 POP SWAP2 SWAP1 POP JUMP JUMPDEST PUSH2 0x26DC DUP2 PUSH2 0x26C7 JUMP JUMPDEST DUP3 MSTORE POP POP JUMP JUMPDEST PUSH1 0x0 PUSH1 0x20 DUP3 ADD SWAP1 POP PUSH2 0x26F7 PUSH1 0x0 DUP4 ADD DUP5 PUSH2 0x26D3 JUMP JUMPDEST SWAP3 SWAP2 POP POP JUMP JUMPDEST PUSH1 0x0 DUP2 MLOAD SWAP1 POP SWAP2 SWAP1 POP JUMP JUMPDEST PUSH1 0x0 DUP3 DUP3 MSTORE PUSH1 0x20 DUP3 ADD SWAP1 POP SWAP3 SWAP2 POP POP JUMP JUMPDEST PUSH1 0x0 JUMPDEST DUP4 DUP2 LT ISZERO PUSH2 0x2737 JUMPI DUP1 DUP3 ADD MLOAD DUP2 DUP5 ADD MSTORE PUSH1 0x20 DUP2 ADD SWAP1 POP PUSH2 0x271C JUMP JUMPDEST DUP4 DUP2 GT ISZERO PUSH2 0x2746 JUMPI PUSH1 0x0 DUP5 DUP5 ADD MSTORE JUMPDEST POP POP POP POP JUMP JUMPDEST PUSH1 0x0 PUSH1 0x1F NOT PUSH1 0x1F DUP4 ADD AND SWAP1 POP SWAP2 SWAP1 POP JUMP JUMPDEST PUSH1 0x0 PUSH2 0x2768 DUP3 PUSH2 0x26FD JUMP JUMPDEST PUSH2 0x2772 DUP2 DUP6 PUSH2 0x2708 JUMP JUMPDEST SWAP4 POP PUSH2 0x2782 DUP2 DUP6 PUSH1 0x20 DUP7 ADD PUSH2 0x2719 JUMP JUMPDEST PUSH2 0x278B DUP2 PUSH2 0x274C JUMP JUMPDEST DUP5 ADD SWAP2 POP POP SWAP3 SWAP2 POP POP JUMP JUMPDEST PUSH1 0x0 PUSH1 0x20 DUP3 ADD SWAP1 POP DUP2 DUP2 SUB PUSH1 0x0 DUP4 ADD MSTORE PUSH2 0x27B0 DUP2 DUP5 PUSH2 0x275D JUMP JUMPDEST SWAP1 POP SWAP3 SWAP2 POP POP JUMP JUMPDEST PUSH1 0x0 DUP2 SWAP1 POP SWAP2 SWAP1 POP JUMP JUMPDEST PUSH2 0x27CB DUP2 PUSH2 0x27B8 JUMP JUMPDEST DUP2 EQ PUSH2 0x27D6 JUMPI PUSH1 0x0 DUP1 REVERT JUMPDEST POP JUMP JUMPDEST PUSH1 0x0 DUP2 CALLDATALOAD SWAP1 POP PUSH2 0x27E8 DUP2 PUSH2 0x27C2 JUMP JUMPDEST SWAP3 SWAP2 POP POP JUMP JUMPDEST PUSH1 0x0 PUSH1 0x20 DUP3 DUP5 SUB SLT ISZERO PUSH2 0x2804 JUMPI PUSH2 0x2803 PUSH2 0x2638 JUMP JUMPDEST JUMPDEST PUSH1 0x0 PUSH2 0x2812 DUP5 DUP3 DUP6 ADD PUSH2 0x27D9 JUMP JUMPDEST SWAP2 POP POP SWAP3 SWAP2 POP POP JUMP JUMPDEST PUSH1 0x0 PUSH20 0xFFFFFFFFFFFFFFFFFFFFFFFFFFFFFFFFFFFFFFFF DUP3 AND SWAP1 POP SWAP2 SWAP1 POP JUMP JUMPDEST PUSH1 0x0 PUSH2 0x2846 DUP3 PUSH2 0x281B JUMP JUMPDEST SWAP1 POP SWAP2 SWAP1 POP JUMP JUMPDEST PUSH2 0x2856 DUP2 PUSH2 0x283B JUMP JUMPDEST DUP3 MSTORE POP POP JUMP JUMPDEST PUSH1 0x0 PUSH1 0x20 DUP3 ADD SWAP1 POP PUSH2 0x2871 PUSH1 0x0 DUP4 ADD DUP5 PUSH2 0x284D JUMP JUMPDEST SWAP3 SWAP2 POP POP JUMP JUMPDEST PUSH2 0x2880 DUP2 PUSH2 0x283B JUMP JUMPDEST DUP2 EQ PUSH2 0x288B JUMPI PUSH1 0x0 DUP1 REVERT JUMPDEST POP JUMP JUMPDEST PUSH1 0x0 DUP2 CALLDATALOAD SWAP1 POP PUSH2 0x289D DUP2 PUSH2 0x2877 JUMP JUMPDEST SWAP3 SWAP2 POP POP JUMP JUMPDEST PUSH1 0x0 DUP1 PUSH1 0x40 DUP4 DUP6 SUB SLT ISZERO PUSH2 0x28BA JUMPI PUSH2 0x28B9 PUSH2 0x2638 JUMP JUMPDEST JUMPDEST PUSH1 0x0 PUSH2 0x28C8 DUP6 DUP3 DUP7 ADD PUSH2 0x288E JUMP JUMPDEST SWAP3 POP POP PUSH1 0x20 PUSH2 0x28D9 DUP6 DUP3 DUP7 ADD PUSH2 0x27D9 JUMP JUMPDEST SWAP2 POP POP SWAP3 POP SWAP3 SWAP1 POP JUMP JUMPDEST PUSH2 0x28EC DUP2 PUSH2 0x27B8 JUMP JUMPDEST DUP3 MSTORE POP POP JUMP JUMPDEST PUSH1 0x0 PUSH1 0x20 DUP3 ADD SWAP1 POP PUSH2 0x2907 PUSH1 0x0 DUP4 ADD DUP5 PUSH2 0x28E3 JUMP JUMPDEST SWAP3 SWAP2 POP POP JUMP JUMPDEST PUSH1 0x0 DUP1 PUSH1 0x0 PUSH1 0x60 DUP5 DUP7 SUB SLT ISZERO PUSH2 0x2926 JUMPI PUSH2 0x2925 PUSH2 0x2638 JUMP JUMPDEST JUMPDEST PUSH1 0x0 PUSH2 0x2934 DUP7 DUP3 DUP8 ADD PUSH2 0x288E JUMP JUMPDEST SWAP4 POP POP PUSH1 0x20 PUSH2 0x2945 DUP7 DUP3 DUP8 ADD PUSH2 0x288E JUMP JUMPDEST SWAP3 POP POP PUSH1 0x40 PUSH2 0x2956 DUP7 DUP3 DUP8 ADD PUSH2 0x27D9 JUMP JUMPDEST SWAP2 POP POP SWAP3 POP SWAP3 POP SWAP3 JUMP JUMPDEST PUSH1 0x0 PUSH1 0x40 DUP3 ADD SWAP1 POP PUSH2 0x2975 PUSH1 0x0 DUP4 ADD DUP6 PUSH2 0x28E3 JUMP JUMPDEST PUSH2 0x2982 PUSH1 0x20 DUP4 ADD DUP5 PUSH2 0x28E3 JUMP JUMPDEST SWAP4 SWAP3 POP POP POP JUMP JUMPDEST PUSH2 0x2992 DUP2 PUSH2 0x26C7 JUMP JUMPDEST DUP2 EQ PUSH2 0x299D JUMPI PUSH1 0x0 DUP1 REVERT JUMPDEST POP JUMP JUMPDEST PUSH1 0x0 DUP2 CALLDATALOAD SWAP1 POP PUSH2 0x29AF DUP2 PUSH2 0x2989 JUMP JUMPDEST SWAP3 SWAP2 POP POP JUMP JUMPDEST PUSH1 0x0 DUP1 REVERT JUMPDEST PUSH1 0x0 DUP1 REVERT JUMPDEST PUSH1 0x0 DUP1 REVERT JUMPDEST PUSH1 0x0 DUP1 DUP4 PUSH1 0x1F DUP5 ADD SLT PUSH2 0x29DA JUMPI PUSH2 0x29D9 PUSH2 0x29B5 JUMP JUMPDEST JUMPDEST DUP3 CALLDATALOAD SWAP1 POP PUSH8 0xFFFFFFFFFFFFFFFF DUP2 GT ISZERO PUSH2 0x29F7 JUMPI PUSH2 0x29F6 PUSH2 0x29BA JUMP JUMPDEST JUMPDEST PUSH1 0x20 DUP4 ADD SWAP2 POP DUP4 PUSH1 0x1 DUP3 MUL DUP4 ADD GT ISZERO PUSH2 0x2A13 JUMPI PUSH2 0x2A12 PUSH2 0x29BF JUMP JUMPDEST JUMPDEST SWAP3 POP SWAP3 SWAP1 POP JUMP JUMPDEST PUSH1 0x0 DUP1 PUSH1 0x0 DUP1 PUSH1 0x0 PUSH1 0x80 DUP7 DUP9 SUB SLT ISZERO PUSH2 0x2A36 JUMPI PUSH2 0x2A35 PUSH2 0x2638 JUMP JUMPDEST JUMPDEST PUSH1 0x0 PUSH2 0x2A44 DUP9 DUP3 DUP10 ADD PUSH2 0x27D9 JUMP JUMPDEST SWAP6 POP POP PUSH1 0x20 PUSH2 0x2A55 DUP9 DUP3 DUP10 ADD PUSH2 0x27D9 JUMP JUMPDEST SWAP5 POP POP PUSH1 0x40 PUSH2 0x2A66 DUP9 DUP3 DUP10 ADD PUSH2 0x29A0 JUMP JUMPDEST SWAP4 POP POP PUSH1 0x60 DUP7 ADD CALLDATALOAD PUSH8 0xFFFFFFFFFFFFFFFF DUP2 GT ISZERO PUSH2 0x2A87 JUMPI PUSH2 0x2A86 PUSH2 0x263D JUMP JUMPDEST JUMPDEST PUSH2 0x2A93 DUP9 DUP3 DUP10 ADD PUSH2 0x29C4 JUMP JUMPDEST SWAP3 POP SWAP3 POP POP SWAP3 SWAP6 POP SWAP3 SWAP6 SWAP1 SWAP4 POP JUMP JUMPDEST PUSH1 0x0 PUSH1 0x20 DUP3 DUP5 SUB SLT ISZERO PUSH2 0x2AB8 JUMPI PUSH2 0x2AB7 PUSH2 0x2638 JUMP JUMPDEST JUMPDEST PUSH1 0x0 PUSH2 0x2AC6 DUP5 DUP3 DUP6 ADD PUSH2 0x288E JUMP JUMPDEST SWAP2 POP POP SWAP3 SWAP2 POP POP JUMP JUMPDEST PUSH1 0x0 DUP1 PUSH1 0x40 DUP4 DUP6 SUB SLT ISZERO PUSH2 0x2AE6 JUMPI PUSH2 0x2AE5 PUSH2 0x2638 JUMP JUMPDEST JUMPDEST PUSH1 0x0 PUSH2 0x2AF4 DUP6 DUP3 DUP7 ADD PUSH2 0x27D9 JUMP JUMPDEST SWAP3 POP POP PUSH1 0x20 PUSH2 0x2B05 DUP6 DUP3 DUP7 ADD PUSH2 0x27D9 JUMP JUMPDEST SWAP2 POP POP SWAP3 POP SWAP3 SWAP1 POP JUMP JUMPDEST PUSH1 0x0 DUP1 PUSH1 0x0 DUP1 PUSH1 0x0 DUP1 PUSH1 0x0 PUSH1 0xC0 DUP9 DUP11 SUB SLT ISZERO PUSH2 0x2B2E JUMPI PUSH2 0x2B2D PUSH2 0x2638 JUMP JUMPDEST JUMPDEST PUSH1 0x0 PUSH2 0x2B3C DUP11 DUP3 DUP12 ADD PUSH2 0x27D9 JUMP JUMPDEST SWAP8 POP POP PUSH1 0x20 PUSH2 0x2B4D DUP11 DUP3 DUP12 ADD PUSH2 0x27D9 JUMP JUMPDEST SWAP7 POP POP PUSH1 0x40 PUSH2 0x2B5E DUP11 DUP3 DUP12 ADD PUSH2 0x29A0 JUMP JUMPDEST SWAP6 POP POP PUSH1 0x60 DUP9 ADD CALLDATALOAD PUSH8 0xFFFFFFFFFFFFFFFF DUP2 GT ISZERO PUSH2 0x2B7F JUMPI PUSH2 0x2B7E PUSH2 0x263D JUMP JUMPDEST JUMPDEST PUSH2 0x2B8B DUP11 DUP3 DUP12 ADD PUSH2 0x29C4 JUMP JUMPDEST SWAP5 POP SWAP5 POP POP PUSH1 0x80 PUSH2 0x2B9E DUP11 DUP3 DUP12 ADD PUSH2 0x27D9 JUMP JUMPDEST SWAP3 POP POP PUSH1 0xA0 PUSH2 0x2BAF DUP11 DUP3 DUP12 ADD PUSH2 0x27D9 JUMP JUMPDEST SWAP2 POP POP SWAP3 SWAP6 SWAP9 SWAP2 SWAP5 SWAP8 POP SWAP3 SWAP6 POP JUMP JUMPDEST PUSH1 0x0 DUP1 PUSH1 0x40 DUP4 DUP6 SUB SLT ISZERO PUSH2 0x2BD5 JUMPI PUSH2 0x2BD4 PUSH2 0x2638 JUMP JUMPDEST JUMPDEST PUSH1 0x0 PUSH2 0x2BE3 DUP6 DUP3 DUP7 ADD PUSH2 0x288E JUMP JUMPDEST SWAP3 POP POP PUSH1 0x20 PUSH2 0x2BF4 DUP6 DUP3 DUP7 ADD PUSH2 0x29A0 JUMP JUMPDEST SWAP2 POP POP SWAP3 POP SWAP3 SWAP1 POP JUMP JUMPDEST PUSH1 0x0 PUSH1 0x80 DUP3 ADD SWAP1 POP DUP2 DUP2 SUB PUSH1 0x0 DUP4 ADD MSTORE PUSH2 0x2C18 DUP2 DUP8 PUSH2 0x275D JUMP JUMPDEST SWAP1 POP PUSH2 0x2C27 PUSH1 0x20 DUP4 ADD DUP7 PUSH2 0x26D3 JUMP JUMPDEST PUSH2 0x2C34 PUSH1 0x40 DUP4 ADD DUP6 PUSH2 0x28E3 JUMP JUMPDEST PUSH2 0x2C41 PUSH1 0x60 DUP4 ADD DUP5 PUSH2 0x28E3 JUMP JUMPDEST SWAP6 SWAP5 POP POP POP POP POP JUMP JUMPDEST PUSH1 0x0 DUP1 REVERT JUMPDEST PUSH32 0x4E487B7100000000000000000000000000000000000000000000000000000000 PUSH1 0x0 MSTORE PUSH1 0x41 PUSH1 0x4 MSTORE PUSH1 0x24 PUSH1 0x0 REVERT JUMPDEST PUSH2 0x2C87 DUP3 PUSH2 0x274C JUMP JUMPDEST DUP2 ADD DUP2 DUP2 LT PUSH8 0xFFFFFFFFFFFFFFFF DUP3 GT OR ISZERO PUSH2 0x2CA6 JUMPI PUSH2 0x2CA5 PUSH2 0x2C4F JUMP JUMPDEST JUMPDEST DUP1 PUSH1 0x40 MSTORE POP POP POP JUMP JUMPDEST PUSH1 0x0 PUSH2 0x2CB9 PUSH2 0x262E JUMP JUMPDEST SWAP1 POP PUSH2 0x2CC5 DUP3 DUP3 PUSH2 0x2C7E JUMP JUMPDEST SWAP2 SWAP1 POP JUMP JUMPDEST PUSH1 0x0 PUSH8 0xFFFFFFFFFFFFFFFF DUP3 GT ISZERO PUSH2 0x2CE5 JUMPI PUSH2 0x2CE4 PUSH2 0x2C4F JUMP JUMPDEST JUMPDEST PUSH2 0x2CEE DUP3 PUSH2 0x274C JUMP JUMPDEST SWAP1 POP PUSH1 0x20 DUP2 ADD SWAP1 POP SWAP2 SWAP1 POP JUMP JUMPDEST DUP3 DUP2 DUP4 CALLDATACOPY PUSH1 0x0 DUP4 DUP4 ADD MSTORE POP POP POP JUMP JUMPDEST PUSH1 0x0 PUSH2 0x2D1D PUSH2 0x2D18 DUP5 PUSH2 0x2CCA JUMP JUMPDEST PUSH2 0x2CAF JUMP JUMPDEST SWAP1 POP DUP3 DUP2 MSTORE PUSH1 0x20 DUP2 ADD DUP5 DUP5 DUP5 ADD GT ISZERO PUSH2 0x2D39 JUMPI PUSH2 0x2D38 PUSH2 0x2C4A JUMP JUMPDEST JUMPDEST PUSH2 0x2D44 DUP5 DUP3 DUP6 PUSH2 0x2CFB JUMP JUMPDEST POP SWAP4 SWAP3 POP POP POP JUMP JUMPDEST PUSH1 0x0 DUP3 PUSH1 0x1F DUP4 ADD SLT PUSH2 0x2D61 JUMPI PUSH2 0x2D60 PUSH2 0x29B5 JUMP JUMPDEST JUMPDEST DUP2 CALLDATALOAD PUSH2 0x2D71 DUP5 DUP3 PUSH1 0x20 DUP7 ADD PUSH2 0x2D0A JUMP JUMPDEST SWAP2 POP POP SWAP3 SWAP2 POP POP JUMP JUMPDEST PUSH1 0x0 DUP1 PUSH1 0x0 DUP1 PUSH1 0x80 DUP6 DUP8 SUB SLT ISZERO PUSH2 0x2D94 JUMPI PUSH2 0x2D93 PUSH2 0x2638 JUMP JUMPDEST JUMPDEST PUSH1 0x0 PUSH2 0x2DA2 DUP8 DUP3 DUP9 ADD PUSH2 0x288E JUMP JUMPDEST SWAP5 POP POP PUSH1 0x20 PUSH2 0x2DB3 DUP8 DUP3 DUP9 ADD PUSH2 0x288E JUMP JUMPDEST SWAP4 POP POP PUSH1 0x40 PUSH2 0x2DC4 DUP8 DUP3 DUP9 ADD PUSH2 0x27D9 JUMP JUMPDEST SWAP3 POP POP PUSH1 0x60 DUP6 ADD CALLDATALOAD PUSH8 0xFFFFFFFFFFFFFFFF DUP2 GT ISZERO PUSH2 0x2DE5 JUMPI PUSH2 0x2DE4 PUSH2 0x263D JUMP JUMPDEST JUMPDEST PUSH2 0x2DF1 DUP8 DUP3 DUP9 ADD PUSH2 0x2D4C JUMP JUMPDEST SWAP2 POP POP SWAP3 SWAP6 SWAP2 SWAP5 POP SWAP3 POP JUMP JUMPDEST PUSH1 0x0 DUP1 PUSH1 0x40 DUP4 DUP6 SUB SLT ISZERO PUSH2 0x2E14 JUMPI PUSH2 0x2E13 PUSH2 0x2638 JUMP JUMPDEST JUMPDEST PUSH1 0x0 PUSH2 0x2E22 DUP6 DUP3 DUP7 ADD PUSH2 0x288E JUMP JUMPDEST SWAP3 POP POP PUSH1 0x20 PUSH2 0x2E33 DUP6 DUP3 DUP7 ADD PUSH2 0x288E JUMP JUMPDEST SWAP2 POP POP SWAP3 POP SWAP3 SWAP1 POP JUMP JUMPDEST PUSH32 0x4E487B7100000000000000000000000000000000000000000000000000000000 PUSH1 0x0 MSTORE PUSH1 0x22 PUSH1 0x4 MSTORE PUSH1 0x24 PUSH1 0x0 REVERT JUMPDEST PUSH1 0x0 PUSH1 0x2 DUP3 DIV SWAP1 POP PUSH1 0x1 DUP3 AND DUP1 PUSH2 0x2E84 JUMPI PUSH1 0x7F DUP3 AND SWAP2 POP JUMPDEST PUSH1 0x20 DUP3 LT DUP2 EQ ISZERO PUSH2 0x2E98 JUMPI PUSH2 0x2E97 PUSH2 0x2E3D JUMP JUMPDEST JUMPDEST POP SWAP2 SWAP1 POP JUMP JUMPDEST PUSH32 0x4552433732313A20617070726F76616C20746F2063757272656E74206F776E65 PUSH1 0x0 DUP3 ADD MSTORE PUSH32 0x7200000000000000000000000000000000000000000000000000000000000000 PUSH1 0x20 DUP3 ADD MSTORE POP JUMP JUMPDEST PUSH1 0x0 PUSH2 0x2EFA PUSH1 0x21 DUP4 PUSH2 0x2708 JUMP JUMPDEST SWAP2 POP PUSH2 0x2F05 DUP3 PUSH2 0x2E9E JUMP JUMPDEST PUSH1 0x40 DUP3 ADD SWAP1 POP SWAP2 SWAP1 POP JUMP JUMPDEST PUSH1 0x0 PUSH1 0x20 DUP3 ADD SWAP1 POP DUP2 DUP2 SUB PUSH1 0x0 DUP4 ADD MSTORE PUSH2 0x2F29 DUP2 PUSH2 0x2EED JUMP JUMPDEST SWAP1 POP SWAP2 SWAP1 POP JUMP JUMPDEST PUSH32 0x4552433732313A20617070726F76652063616C6C6572206973206E6F7420746F PUSH1 0x0 DUP3 ADD MSTORE PUSH32 0x6B656E206F776E6572206F7220617070726F76656420666F7220616C6C000000 PUSH1 0x20 DUP3 ADD MSTORE POP JUMP JUMPDEST PUSH1 0x0 PUSH2 0x2F8C PUSH1 0x3D DUP4 PUSH2 0x2708 JUMP JUMPDEST SWAP2 POP PUSH2 0x2F97 DUP3 PUSH2 0x2F30 JUMP JUMPDEST PUSH1 0x40 DUP3 ADD SWAP1 POP SWAP2 SWAP1 POP JUMP JUMPDEST PUSH1 0x0 PUSH1 0x20 DUP3 ADD SWAP1 POP DUP2 DUP2 SUB PUSH1 0x0 DUP4 ADD MSTORE PUSH2 0x2FBB DUP2 PUSH2 0x2F7F JUMP JUMPDEST SWAP1 POP SWAP2 SWAP1 POP JUMP JUMPDEST PUSH32 0x4552433732313A2063616C6C6572206973206E6F7420746F6B656E206F776E65 PUSH1 0x0 DUP3 ADD MSTORE PUSH32 0x72206F7220617070726F76656400000000000000000000000000000000000000 PUSH1 0x20 DUP3 ADD MSTORE POP JUMP JUMPDEST PUSH1 0x0 PUSH2 0x301E PUSH1 0x2D DUP4 PUSH2 0x2708 JUMP JUMPDEST SWAP2 POP PUSH2 0x3029 DUP3 PUSH2 0x2FC2 JUMP JUMPDEST PUSH1 0x40 DUP3 ADD SWAP1 POP SWAP2 SWAP1 POP JUMP JUMPDEST PUSH1 0x0 PUSH1 0x20 DUP3 ADD SWAP1 POP DUP2 DUP2 SUB PUSH1 0x0 DUP4 ADD MSTORE PUSH2 0x304D DUP2 PUSH2 0x3011 JUMP JUMPDEST SWAP1 POP SWAP2 SWAP1 POP JUMP JUMPDEST PUSH32 0x4E6F742072656769737472656420617320627265656465722E00000000000000 PUSH1 0x0 DUP3 ADD MSTORE POP JUMP JUMPDEST PUSH1 0x0 PUSH2 0x308A PUSH1 0x19 DUP4 PUSH2 0x2708 JUMP JUMPDEST SWAP2 POP PUSH2 0x3095 DUP3 PUSH2 0x3054 JUMP JUMPDEST PUSH1 0x20 DUP3 ADD SWAP1 POP SWAP2 SWAP1 POP JUMP JUMPDEST PUSH1 0x0 PUSH1 0x20 DUP3 ADD SWAP1 POP DUP2 DUP2 SUB PUSH1 0x0 DUP4 ADD MSTORE PUSH2 0x30B9 DUP2 PUSH2 0x307D JUMP JUMPDEST SWAP1 POP SWAP2 SWAP1 POP JUMP JUMPDEST PUSH32 0x4E487B7100000000000000000000000000000000000000000000000000000000 PUSH1 0x0 MSTORE PUSH1 0x11 PUSH1 0x4 MSTORE PUSH1 0x24 PUSH1 0x0 REVERT JUMPDEST PUSH1 0x0 PUSH2 0x30FA DUP3 PUSH2 0x27B8 JUMP JUMPDEST SWAP2 POP PUSH2 0x3105 DUP4 PUSH2 0x27B8 JUMP JUMPDEST SWAP3 POP DUP3 DUP3 LT ISZERO PUSH2 0x3118 JUMPI PUSH2 0x3117 PUSH2 0x30C0 JUMP JUMPDEST JUMPDEST DUP3 DUP3 SUB SWAP1 POP SWAP3 SWAP2 POP POP JUMP JUMPDEST PUSH32 0x50617965642076616C7565206E6F7420657175616C20746F2072656769737472 PUSH1 0x0 DUP3 ADD MSTORE PUSH32 0x6174696F6E50726963652076616C75652E000000000000000000000000000000 PUSH1 0x20 DUP3 ADD MSTORE POP JUMP JUMPDEST PUSH1 0x0 PUSH2 0x317F PUSH1 0x31 DUP4 PUSH2 0x2708 JUMP JUMPDEST SWAP2 POP PUSH2 0x318A DUP3 PUSH2 0x3123 JUMP JUMPDEST PUSH1 0x40 DUP3 ADD SWAP1 POP SWAP2 SWAP1 POP JUMP JUMPDEST PUSH1 0x0 PUSH1 0x20 DUP3 ADD SWAP1 POP DUP2 DUP2 SUB PUSH1 0x0 DUP4 ADD MSTORE PUSH2 0x31AE DUP2 PUSH2 0x3172 JUMP JUMPDEST SWAP1 POP SWAP2 SWAP1 POP JUMP JUMPDEST PUSH32 0x4552433732313A20696E76616C696420746F6B656E2049440000000000000000 PUSH1 0x0 DUP3 ADD MSTORE POP JUMP JUMPDEST PUSH1 0x0 PUSH2 0x31EB PUSH1 0x18 DUP4 PUSH2 0x2708 JUMP JUMPDEST SWAP2 POP PUSH2 0x31F6 DUP3 PUSH2 0x31B5 JUMP JUMPDEST PUSH1 0x20 DUP3 ADD SWAP1 POP SWAP2 SWAP1 POP JUMP JUMPDEST PUSH1 0x0 PUSH1 0x20 DUP3 ADD SWAP1 POP DUP2 DUP2 SUB PUSH1 0x0 DUP4 ADD MSTORE PUSH2 0x321A DUP2 PUSH2 0x31DE JUMP JUMPDEST SWAP1 POP SWAP2 SWAP1 POP JUMP JUMPDEST PUSH32 0x4552433732313A2061646472657373207A65726F206973206E6F742061207661 PUSH1 0x0 DUP3 ADD MSTORE PUSH32 0x6C6964206F776E65720000000000000000000000000000000000000000000000 PUSH1 0x20 DUP3 ADD MSTORE POP JUMP JUMPDEST PUSH1 0x0 PUSH2 0x327D PUSH1 0x29 DUP4 PUSH2 0x2708 JUMP JUMPDEST SWAP2 POP PUSH2 0x3288 DUP3 PUSH2 0x3221 JUMP JUMPDEST PUSH1 0x40 DUP3 ADD SWAP1 POP SWAP2 SWAP1 POP JUMP JUMPDEST PUSH1 0x0 PUSH1 0x20 DUP3 ADD SWAP1 POP DUP2 DUP2 SUB PUSH1 0x0 DUP4 ADD MSTORE PUSH2 0x32AC DUP2 PUSH2 0x3270 JUMP JUMPDEST SWAP1 POP SWAP2 SWAP1 POP JUMP JUMPDEST PUSH1 0x0 DUP2 SWAP1 POP SWAP3 SWAP2 POP POP JUMP JUMPDEST PUSH1 0x0 PUSH2 0x32C9 DUP3 PUSH2 0x26FD JUMP JUMPDEST PUSH2 0x32D3 DUP2 DUP6 PUSH2 0x32B3 JUMP JUMPDEST SWAP4 POP PUSH2 0x32E3 DUP2 DUP6 PUSH1 0x20 DUP7 ADD PUSH2 0x2719 JUMP JUMPDEST DUP1 DUP5 ADD SWAP2 POP POP SWAP3 SWAP2 POP POP JUMP JUMPDEST PUSH1 0x0 PUSH2 0x32FB DUP3 DUP6 PUSH2 0x32BE JUMP JUMPDEST SWAP2 POP PUSH2 0x3307 DUP3 DUP5 PUSH2 0x32BE JUMP JUMPDEST SWAP2 POP DUP2 SWAP1 POP SWAP4 SWAP3 POP POP POP JUMP JUMPDEST PUSH32 0x4F776E61626C653A206E6577206F776E657220697320746865207A65726F2061 PUSH1 0x0 DUP3 ADD MSTORE PUSH32 0x6464726573730000000000000000000000000000000000000000000000000000 PUSH1 0x20 DUP3 ADD MSTORE POP JUMP JUMPDEST PUSH1 0x0 PUSH2 0x336F PUSH1 0x26 DUP4 PUSH2 0x2708 JUMP JUMPDEST SWAP2 POP PUSH2 0x337A DUP3 PUSH2 0x3313 JUMP JUMPDEST PUSH1 0x40 DUP3 ADD SWAP1 POP SWAP2 SWAP1 POP JUMP JUMPDEST PUSH1 0x0 PUSH1 0x20 DUP3 ADD SWAP1 POP DUP2 DUP2 SUB PUSH1 0x0 DUP4 ADD MSTORE PUSH2 0x339E DUP2 PUSH2 0x3362 JUMP JUMPDEST SWAP1 POP SWAP2 SWAP1 POP JUMP JUMPDEST PUSH32 0x4552433732313A207472616E736665722066726F6D20696E636F727265637420 PUSH1 0x0 DUP3 ADD MSTORE PUSH32 0x6F776E6572000000000000000000000000000000000000000000000000000000 PUSH1 0x20 DUP3 ADD MSTORE POP JUMP JUMPDEST PUSH1 0x0 PUSH2 0x3401 PUSH1 0x25 DUP4 PUSH2 0x2708 JUMP JUMPDEST SWAP2 POP PUSH2 0x340C DUP3 PUSH2 0x33A5 JUMP JUMPDEST PUSH1 0x40 DUP3 ADD SWAP1 POP SWAP2 SWAP1 POP JUMP JUMPDEST PUSH1 0x0 PUSH1 0x20 DUP3 ADD SWAP1 POP DUP2 DUP2 SUB PUSH1 0x0 DUP4 ADD MSTORE PUSH2 0x3430 DUP2 PUSH2 0x33F4 JUMP JUMPDEST SWAP1 POP SWAP2 SWAP1 POP JUMP JUMPDEST PUSH32 0x4552433732313A207472616E7366657220746F20746865207A65726F20616464 PUSH1 0x0 DUP3 ADD MSTORE PUSH32 0x7265737300000000000000000000000000000000000000000000000000000000 PUSH1 0x20 DUP3 ADD MSTORE POP JUMP JUMPDEST PUSH1 0x0 PUSH2 0x3493 PUSH1 0x24 DUP4 PUSH2 0x2708 JUMP JUMPDEST SWAP2 POP PUSH2 0x349E DUP3 PUSH2 0x3437 JUMP JUMPDEST PUSH1 0x40 DUP3 ADD SWAP1 POP SWAP2 SWAP1 POP JUMP JUMPDEST PUSH1 0x0 PUSH1 0x20 DUP3 ADD SWAP1 POP DUP2 DUP2 SUB PUSH1 0x0 DUP4 ADD MSTORE PUSH2 0x34C2 DUP2 PUSH2 0x3486 JUMP JUMPDEST SWAP1 POP SWAP2 SWAP1 POP JUMP JUMPDEST PUSH32 0x4F776E61626C653A2063616C6C6572206973206E6F7420746865206F776E6572 PUSH1 0x0 DUP3 ADD MSTORE POP JUMP JUMPDEST PUSH1 0x0 PUSH2 0x34FF PUSH1 0x20 DUP4 PUSH2 0x2708 JUMP JUMPDEST SWAP2 POP PUSH2 0x350A DUP3 PUSH2 0x34C9 JUMP JUMPDEST PUSH1 0x20 DUP3 ADD SWAP1 POP SWAP2 SWAP1 POP JUMP JUMPDEST PUSH1 0x0 PUSH1 0x20 DUP3 ADD SWAP1 POP DUP2 DUP2 SUB PUSH1 0x0 DUP4 ADD MSTORE PUSH2 0x352E DUP2 PUSH2 0x34F2 JUMP JUMPDEST SWAP1 POP SWAP2 SWAP1 POP JUMP JUMPDEST PUSH32 0x4552433732313A206D696E7420746F20746865207A65726F2061646472657373 PUSH1 0x0 DUP3 ADD MSTORE POP JUMP JUMPDEST PUSH1 0x0 PUSH2 0x356B PUSH1 0x20 DUP4 PUSH2 0x2708 JUMP JUMPDEST SWAP2 POP PUSH2 0x3576 DUP3 PUSH2 0x3535 JUMP JUMPDEST PUSH1 0x20 DUP3 ADD SWAP1 POP SWAP2 SWAP1 POP JUMP JUMPDEST PUSH1 0x0 PUSH1 0x20 DUP3 ADD SWAP1 POP DUP2 DUP2 SUB PUSH1 0x0 DUP4 ADD MSTORE PUSH2 0x359A DUP2 PUSH2 0x355E JUMP JUMPDEST SWAP1 POP SWAP2 SWAP1 POP JUMP JUMPDEST PUSH32 0x4552433732313A20746F6B656E20616C7265616479206D696E74656400000000 PUSH1 0x0 DUP3 ADD MSTORE POP JUMP JUMPDEST PUSH1 0x0 PUSH2 0x35D7 PUSH1 0x1C DUP4 PUSH2 0x2708 JUMP JUMPDEST SWAP2 POP PUSH2 0x35E2 DUP3 PUSH2 0x35A1 JUMP JUMPDEST PUSH1 0x20 DUP3 ADD SWAP1 POP SWAP2 SWAP1 POP JUMP JUMPDEST PUSH1 0x0 PUSH1 0x20 DUP3 ADD SWAP1 POP DUP2 DUP2 SUB PUSH1 0x0 DUP4 ADD MSTORE PUSH2 0x3606 DUP2 PUSH2 0x35CA JUMP JUMPDEST SWAP1 POP SWAP2 SWAP1 POP JUMP JUMPDEST PUSH32 0x4552433732313A20617070726F766520746F2063616C6C657200000000000000 PUSH1 0x0 DUP3 ADD MSTORE POP JUMP JUMPDEST PUSH1 0x0 PUSH2 0x3643 PUSH1 0x19 DUP4 PUSH2 0x2708 JUMP JUMPDEST SWAP2 POP PUSH2 0x364E DUP3 PUSH2 0x360D JUMP JUMPDEST PUSH1 0x20 DUP3 ADD SWAP1 POP SWAP2 SWAP1 POP JUMP JUMPDEST PUSH1 0x0 PUSH1 0x20 DUP3 ADD SWAP1 POP DUP2 DUP2 SUB PUSH1 0x0 DUP4 ADD MSTORE PUSH2 0x3672 DUP2 PUSH2 0x3636 JUMP JUMPDEST SWAP1 POP SWAP2 SWAP1 POP JUMP JUMPDEST PUSH32 0x4552433732313A207472616E7366657220746F206E6F6E204552433732315265 PUSH1 0x0 DUP3 ADD MSTORE PUSH32 0x63656976657220696D706C656D656E7465720000000000000000000000000000 PUSH1 0x20 DUP3 ADD MSTORE POP JUMP JUMPDEST PUSH1 0x0 PUSH2 0x36D5 PUSH1 0x32 DUP4 PUSH2 0x2708 JUMP JUMPDEST SWAP2 POP PUSH2 0x36E0 DUP3 PUSH2 0x3679 JUMP JUMPDEST PUSH1 0x40 DUP3 ADD SWAP1 POP SWAP2 SWAP1 POP JUMP JUMPDEST PUSH1 0x0 PUSH1 0x20 DUP3 ADD SWAP1 POP DUP2 DUP2 SUB PUSH1 0x0 DUP4 ADD MSTORE PUSH2 0x3704 DUP2 PUSH2 0x36C8 JUMP JUMPDEST SWAP1 POP SWAP2 SWAP1 POP JUMP JUMPDEST PUSH32 0x4E487B7100000000000000000000000000000000000000000000000000000000 PUSH1 0x0 MSTORE PUSH1 0x12 PUSH1 0x4 MSTORE PUSH1 0x24 PUSH1 0x0 REVERT JUMPDEST PUSH1 0x0 PUSH2 0x3745 DUP3 PUSH2 0x27B8 JUMP JUMPDEST SWAP2 POP PUSH2 0x3750 DUP4 PUSH2 0x27B8 JUMP JUMPDEST SWAP3 POP DUP3 PUSH32 0xFFFFFFFFFFFFFFFFFFFFFFFFFFFFFFFFFFFFFFFFFFFFFFFFFFFFFFFFFFFFFFFF SUB DUP3 GT ISZERO PUSH2 0x3785 JUMPI PUSH2 0x3784 PUSH2 0x30C0 JUMP JUMPDEST JUMPDEST DUP3 DUP3 ADD SWAP1 POP SWAP3 SWAP2 POP POP JUMP JUMPDEST PUSH1 0x0 DUP2 MLOAD SWAP1 POP SWAP2 SWAP1 POP JUMP JUMPDEST PUSH1 0x0 DUP3 DUP3 MSTORE PUSH1 0x20 DUP3 ADD SWAP1 POP SWAP3 SWAP2 POP POP JUMP JUMPDEST PUSH1 0x0 PUSH2 0x37B7 DUP3 PUSH2 0x3790 JUMP JUMPDEST PUSH2 0x37C1 DUP2 DUP6 PUSH2 0x379B JUMP JUMPDEST SWAP4 POP PUSH2 0x37D1 DUP2 DUP6 PUSH1 0x20 DUP7 ADD PUSH2 0x2719 JUMP JUMPDEST PUSH2 0x37DA DUP2 PUSH2 0x274C JUMP JUMPDEST DUP5 ADD SWAP2 POP POP SWAP3 SWAP2 POP POP JUMP JUMPDEST PUSH1 0x0 PUSH1 0x80 DUP3 ADD SWAP1 POP PUSH2 0x37FA PUSH1 0x0 DUP4 ADD DUP8 PUSH2 0x284D JUMP JUMPDEST PUSH2 0x3807 PUSH1 0x20 DUP4 ADD DUP7 PUSH2 0x284D JUMP JUMPDEST PUSH2 0x3814 PUSH1 0x40 DUP4 ADD DUP6 PUSH2 0x28E3 JUMP JUMPDEST DUP2 DUP2 SUB PUSH1 0x60 DUP4 ADD MSTORE PUSH2 0x3826 DUP2 DUP5 PUSH2 0x37AC JUMP JUMPDEST SWAP1 POP SWAP6 SWAP5 POP POP POP POP POP JUMP JUMPDEST PUSH1 0x0 DUP2 MLOAD SWAP1 POP PUSH2 0x3840 DUP2 PUSH2 0x266E JUMP JUMPDEST SWAP3 SWAP2 POP POP JUMP JUMPDEST PUSH1 0x0 PUSH1 0x20 DUP3 DUP5 SUB SLT ISZERO PUSH2 0x385C JUMPI PUSH2 0x385B PUSH2 0x2638 JUMP JUMPDEST JUMPDEST PUSH1 0x0 PUSH2 0x386A DUP5 DUP3 DUP6 ADD PUSH2 0x3831 JUMP JUMPDEST SWAP2 POP POP SWAP3 SWAP2 POP POP JUMP INVALID LOG2 PUSH5 0x6970667358 0x22 SLT KECCAK256 DUP14 0xDD 0x49 0xA5 0xBA 0xB7 JUMP STATICCALL EXTCODEHASH SLT DUP11 POP PUSH14 0xF4AEAEC5D9782E4343443A24E32E 0xE7 PUSH31 0x9BCFE264736F6C63430008090033A2646970667358221220449D6F449F6F60 DUP6 PUSH10 0xF307FB9678FBF4D67B88 OR SWAP2 LOG1 RETURN 0x4C DIFFICULTY 0xBF BASEFEE LOG1 LOG0 MLOAD 0xB2 0xAD PUSH5 0x736F6C6343 STOP ADDMOD MULMOD STOP CALLER "
		},
		"gasEstimates": {
			"creation": {
				"codeDepositCost": "3846600",
				"executionCost": "28637",
				"totalCost": "3875237"
			},
			"external": {
				"allIn()": "infinite",
				"onERC721Received(address,address,uint256,bytes)": "infinite"
			}
		},
		"methodIdentifiers": {
			"allIn()": "8cf760b8",
			"onERC721Received(address,address,uint256,bytes)": "150b7a02"
		}
	},
	"abi": [
		{
			"inputs": [],
			"stateMutability": "nonpayable",
			"type": "constructor"
		},
		{
			"anonymous": false,
			"inputs": [
				{
					"indexed": false,
					"internalType": "address",
					"name": "anAddress",
					"type": "address"
				}
			],
			"name": "anEvent",
			"type": "event"
		},
		{
			"inputs": [],
			"name": "allIn",
			"outputs": [],
			"stateMutability": "nonpayable",
			"type": "function"
		},
		{
			"inputs": [
				{
					"internalType": "address",
					"name": "_operator",
					"type": "address"
				},
				{
					"internalType": "address",
					"name": "_from",
					"type": "address"
				},
				{
					"internalType": "uint256",
					"name": "_tokenId",
					"type": "uint256"
				},
				{
					"internalType": "bytes",
					"name": "_data",
					"type": "bytes"
				}
			],
			"name": "onERC721Received",
			"outputs": [
				{
					"internalType": "bytes4",
					"name": "value",
					"type": "bytes4"
				}
			],
			"stateMutability": "pure",
			"type": "function"
		}
	]
}